S00B000077424D532D524D5877
S325080080000000042035870608D57B0608E17B0608E97B0608F17B0608F97B0608000000002E
S3250800802000000000000000000000000071520608017C06080000000011530608B98A060813
S325080080408587060885870608858706081D7C060885870608858706088587060885870608B5
S32508008060317C06083F7C0608037C06084D7C0608617C0608757C0608897C06089D7C0608E6
S32508008080B17C0608C57C06088587060885870608D97C0608ED7C0608017D0608157D06080E
S325080080A085870608317D06084D7D06088587060885870608697D06088587060885870608A8
S325080080C08587060885870608858706087D7D0608917D0608A57D0608B97D06088587060892
S325080080E0CD7D06088587060885870608858706088587060885870608858706088587060864
S3250800810085870608E57D060885870608F97D060885870608858706080D7E06088587060842
S32508008120217E0608357E060885870608497E0608858706088587060885870608858706086C
S325080081405D7E0608717E06088587060885870608857E0608997E060885870608858706088D
S3250800816085870608858706088587060885870608858706088587060885870608000000003B
S32508008180AD7E0608858706088587060885870608858706088587060885870608C17E0608AF
S325080081A0D57E0608E97E0608000000000000000000000000000000000000000000000000DB
S325080081C0000000000000000000000000000000000000000000000000000000000000000091
S325080081E0000000000000000000000000000000000000000000000000000000000000000071
S32508008200000000000000000000000000000000000000000000000000000000000000000050
S32508008220000000000000000000000000FFFFFFFF10B5054C237833B9044B13B10448AFF396
S3250800824000800123237010BDC0150020000000001C45070808B5034B1BB103490348AFF397
S32508008260008008BD00000000C41500201C450708C0B2002820D0C0B201281DD0C0B2022894
S325080082801AD0C0B2032817D0C0B2042814D0C0B2052811D0C0B206280ED0C0B207280BD066
S325080082A0C0B2082808D0C0B2092805D0C0B20A2802D0C0B20B2801D1012000E00020C0B23E
S325080082C0704738B546F2796401F028F8002848D00020DFF8001C0870002005000C2D20D2AB
S325080082E0DFF8F00BDFF8501A695C10EB8100DFF84C1AC163DFF8DC0BDFF83C1A695C10EB10
S325080083008100DFF8D41B8167DFF8C80BDFF8281A695C10EB810041F61F61C0F8A8106D1C6C
S32508008320DCE7DFF8180ADFF8AC1BC866DFF8A80BDFF8A01BC1F8D800DFF8000ADFF8941B93
S325080083400867DFF8940BDFF88C1BC1F8DC006821DFF8880B6AF016FADFF8781BC1F8E000B7
S3250800836008E05FF0FF30DFF86C1BC1F8E0004AF6B5200400200080B232BD10B5040000214E
S32508008380200000F07BFF10BD10B504000121200000F074FF10BD10B504000221200000F041
S325080083A06DFF10BD10B504000321200000F066FF10BD10B504000421200000F05FFF10BD1E
S325080083C010B504000521200000F058FF10BD10B504000621200000F051FF10BD10B5040086
S325080083E00721200000F04AFF10BD10B504000821200000F043FF10BD10B5040009212000FD
S3250800840000F03CFF10BD10B504000A21200000F035FF10BD10B504000B21200000F02EFF1F
S3250800842010BD38B5040046F27965002C03D14AF6B520050033E0DFF89C0AD0F8E02068215F
S32508008440DFF8980A6AF086F9DFF8941A884203D04AF6B520050022E0DFF8880ADFF8741AB0
S32508008460C86603F0D7FBDFF86C1AC1F8D800DFF8640A0078002805D1DFF8580AD0F8D80079
S32508008480206003E0DFF84C0A406B20606821DFF84C0A6AF077F9DFF83C1AC1F8E0002800A5
S325080084A080B232BD70B504000D0046F27966002C01D0002D03D14AF6B52006002FE0DFF841
S325080084C0140AD0F8E0206821DFF8100A6AF042F9DFF80C1A884203D04AF6B52006001EE0E6
S325080084E0280003F0B9FBDFF8EC19C1F8D800DFF8E4090078002805D1DFF8D809D0F8D800A0
S32508008500206003E0DFF8CC09406B20606821DFF8CC096AF037F9DFF8BC19C1F8E0003000DF
S3250800852080B270BD38B5040046F27965002C03D14AF6B52005002EE0DFF89809D0F8E0205F
S325080085406821DFF898096AF005F9DFF89419884203D04AF6B52005001DE003F0EFFBDFF8C8
S325080085607419C1F8D800DFF86C090078002805D1DFF86009D0F8D800206003E0DFF8540996
S32508008580406B20606821DFF854096AF0FBF8DFF84419C1F8E000280080B232BD38B5040091
S325080085A046F27965002C03D14AF6B52005002EE0DFF82009D0F8E0206821DFF820096AF0C4
S325080085C0C9F8DFF81C19884203D04AF6B52005001DE003F090FBDFF8FC18C1F8D800DFF83B
S325080085E0F4080078002805D1DFF8E808D0F8D800206003E0DFF8DC08406B20606821DFF8EB
S32508008600DC086AF0BFF8DFF8CC18C1F8E000280080B232BD38B5040046F27965002C03D1B3
S325080086204AF6B520050033E0DFF8A808D0F8E0206821DFF8A8086AF08DF8DFF8A418884264
S3250800864003D04AF6B520050022E0DFF8F006DFF88418C86603F0EFFADFF87818C1F8D800DB
S32508008660DFF870080078002805D1DFF86808D0F8D800206003E0DFF85C08406B20606821EE
S32508008680DFF858086AF07EF8DFF84818C1F8E000280080B232BD38B5040046F27965002C79
S325080086A003D14AF6B520050033E0DFF82808D0F8E0206821DFF824086AF04CF8DFF82018A3
S325080086C0884203D04AF6B520050022E0DFF81408DFF80018086703F015FCDFF8F817C1F8DF
S325080086E0DC00DFF8F0070078002805D1DFF8E407D0F8DC00206003E0DFF8D807806B206062
S325080087006821DFF8D8076AF03DF8DFF8C817C1F8E000280080B232BD70B504000D0046F277
S325080087207966002C01D0002D03D14AF6B52006002FE0DFF8A007D0F8E0206821DFF89C07DB
S325080087406AF008F8DFF89817884203D04AF6B52006001EE0280003F0F8FBDFF87817C1F848
S32508008760DC00DFF870070078002805D1DFF86407D0F8DC00206003E0DFF85807806B206061
S325080087806821DFF8580769F0FDFFDFF84817C1F8E000300080B270BD38B5040046F2796552
S325080087A0002C03D14AF6B52005002EE0DFF82407D0F8E0206821DFF8240769F0CBFFDFF834
S325080087C02017884203D04AF6B52005001DE003F03CFCDFF80017C1F8DC00DFF8F8060078A5
S325080087E0002805D1DFF8EC06D0F8DC00206003E0DFF8E006806B20606821DFF8E00669F0D6
S32508008800C1FFDFF8D016C1F8E000280080B232BD38B5040046F27965002C03D14AF6B520CF
S3250800882005002EE0DFF8AC06D0F8E0206821DFF8AC0669F08FFFDFF8A816884203D04AF65B
S32508008840B52005001DE003F0DDFBDFF88816C1F8DC00DFF880060078002805D1DFF874063A
S32508008860D0F8DC00206003E0DFF86806806B20606821DFF8680669F085FFDFF85816C1F88A
S32508008880E000280080B232BD38B5040046F27965002C03D14AF6B520050033E0DFF834065C
S325080088A0D0F8E0206821DFF8340669F053FFDFF83016884203D04AF6B520050022E0DFF8F0
S325080088C07C04DFF81016086703F02EFBDFF80416C1F8DC00DFF8FC050078002805D1DFF8D7
S325080088E0F405D0F8DC00206003E0DFF8E805806B20606821DFF8E40569F044FFDFF8D41596
S32508008900C1F8E000280080B232BDF8B504000D0046F27966002C01D0002D03D14AF6B5207F
S32508008920060039E1686BDFF8BC15884205D0686BDFF80814884240F07F80286BDFF8A4150D
S32508008940884204D0286BDFF8F413884274D12868DFF89015884204D02868DFF8E01388421D
S325080089606AD16868DFF87C15884204D06868DFF8CC13884260D1A868DFF86815884204D055
S32508008980A868DFF8B813884256D1E868DFF85415884204D0E868DFF8A41388424CD12869A2
S325080089A0DFF84015884204D02869DFF89013884242D16869DFF82C15884204D06869DFF8C8
S325080089C07C13884238D1A869DFF81815884204D0A869DFF8681388422ED1E869DFF8041507
S325080089E0884204D0E869DFF85413884224D1286ADFF8F014884204D0286ADFF840138842EC
S32508008A001AD1686ADFF8DC14884203D0686ACB49884211D1A86ADFF8CC14884203D0A86A1D
S32508008A20C649884208D1E86ADFF8B814884207D0E86AC249884203D04AF6B5200600ABE040
S32508008A40DFF89004D0F8E0206821DFF8900469F081FEDFF88C14884203D04AF6B5200600DA
S32508008A609AE0002007000C2F3BD2DFF86804B249795C10EB8100B049795C55F82110C16300
S32508008A80DFF85004AC49795C10EB8100DFF848148167DFF84004007800280BD1DFF8340496
S32508008AA0A549795C10EB8100806FA349795C44F821000AE0DFF81C049F49795C10EB810042
S32508008AC040689D49795C44F82100DFF808049A49795C10EB810041F61F61C0F8A8107F1CEF
S32508008AE0C1E7286BDFF8EC13C866DFF8E803C06EDFF8F013884206D103F08CF8DFF8D41389
S32508008B00C1F8D80005E003F096F8DFF8C813C1F8D800DFF8C0030078002805D1DFF8B4036F
S32508008B20D0F8D800206303E0DFF8A803406B2063686BDFF8A0130867DFF89803006FDFF8ED
S32508008B40A413884206D103F0DDF9DFF88813C1F8DC0005E003F0E8F9DFF87813C1F8DC002F
S32508008B60DFF870030078002805D1DFF86803D0F8DC00606303E0DFF85C03806B6063002097
S32508008B80DFF8501348676821DFF8500369F0FAFDDFF84013C1F8E000300080B2F2BD2DE9F1
S32508008BA0F84F04000D0016001F0046F27968002C10D0002D06D1DFF81C03C06EDFF82413BF
S32508008BC0884207D0002E09D1C248006FDFF81413884203D14AF6B5208046A9E0BA46A06B5A
S32508008BE08346BAF1000F14D01FFA88F84AF6B52080450ED0DAF80400002802D0BBF1000F24
S32508008C0002D14AF6B5208046DAF80CA0DBF808B0E7E71FFA88F84AF6B520804500F0888056
S32508008C20AC48D0F8E0206821AC4869F093FDAC49884203D04AF6B520804679E00020814657
S32508008C40B9F10C0F1FD2A348007800280CD1A148394919F8011010EB8100806F364919F860
S32508008C60011044F821000BE09A48334919F8011010EB81004068304919F8011044F82100F1
S32508008C8019F10109DCE79348C06E9649884206D1280002F0E1FF8F49C1F8D80003E08E484A
S32508008CA08C49C1F8D8008B480078002804D18948D0F8D800206302E08648406B2063854859
S32508008CC0006F8849884206D1300003F03EF98149C1F8DC0003E080487E49C1F8DC007D4820
S32508008CE00078002804D17B48D0F8DC00606302E07848806B6063774847677648406F8246D5
S32508008D00A06B8346BAF1000F0BD0DAF80000CBF800007148CBF80400DAF80CA0DBF808B0BE
S32508008D20F0E768216D4869F02DFD6A49C1F8E000404680B2BDE8F28FB4830708F9D5060049
S32508008D402DE9F04182B0040046F27965002C03D14AF6B5200500B9E05E48406F0700A06B58
S32508008D608046002F0ED0ADB24AF6B520854209D0B8F1000F02D14AF6B5200500FF68D8F822
S32508008D800880EEE7ADB24AF6B520854200F09E805048D0F8E0206821504869F0DBFC5049D5
S32508008DA0884203D04AF6B52005008FE0002006000C2E3BD2474810EB8600C06B494988427B
S32508008DC019D141F61F600090DFF8E405315C684600F02EFA3F49DFF8D825B25C11EB820159
S32508008DE088673C48DFF8C815715C10EB81000099C0F8A81007E03748DFF8B415715C10EB1E
S32508008E0081003549816733480078002806D1314810EB8600806F44F8260005E02D4810EBCB
S32508008E208600406844F82600761CC1E72948C06E2C49884205D102F081FF2649C1F8D80034
S32508008E4003E025482349C1F8D80022480078002804D12048D0F8D800206302E01D48406B5B
S32508008E6020631C48006F1F49884205D103F0EDF81849C1F8DC0003E017481649C1F8DC0082
S32508008E8014480078002804D11248D0F8DC00606302E01048806B60630E48406F0700A06B33
S32508008EA08046002F0BD0B86879688847C8F804003868C8F80000FF68D8F80880F1E76821C0
S32508008EC0064869F05FFC0349C1F8E000280080B2BDE8F681DC150020FFFF0100541600208D
S32508008EE05D445100A2D7030070B5040046F27965002C03D14AF6B52005007EE1606B41F63C
S32508008F00E171884214D0606BDFF8A81488420FD0606B4DF22D3188420AD0606BDFF89814E2
S32508008F20884205D0606BDFF89414884240F03A81206B41F6E171884214D0206BDFF87414D9
S32508008F4088420FD0206B4DF22D3188420AD0206BDFF86414884205D0206BDFF86014884275
S32508008F6040F02081206841F6E171884214D02068DFF8401488420FD020684DF22D31884208
S32508008F800AD02068DFF83014884205D02068DFF82C14884240F00681606841F6E17188426C
S32508008FA014D06068DFF80C1488420FD060684DF22D3188420AD06068DFF8FC13884205D001
S32508008FC06068DFF8F813884240F0EC80A06841F6E171884214D0A068DFF8D81388420FD0C1
S32508008FE0A0684DF22D3188420AD0A068DFF8C813884205D0A068DFF8C413884240F0D280BF
S32508009000E06841F6E171884214D0E068DFF8A41388420FD0E0684DF22D3188420AD0E06873
S32508009020DFF89413884205D0E068DFF89013884240F0B880206941F6E171884214D02069C8
S32508009040DFF8701388420FD020694DF22D3188420AD02069DFF86013884205D02069DFF863
S325080090605C13884240F09E80606941F6E171884214D06069DFF83C1388420FD060694DF2BB
S325080090802D3188420AD06069DFF82C13884205D06069DFF82813884240F08480A06941F629
S325080090A0E171884210D0A069C24988420CD0A0694DF22D31884207D0A069BF49884203D0F7
S325080090C0A069BE4988426DD1E06941F6E171884210D0E069B74988420CD0E0694DF22D3119
S325080090E0884207D0E069B449884203D0E069B349884257D1206A41F6E171884210D0206A60
S32508009100AC4988420CD0206A4DF22D31884207D0206AA949884203D0206AA849884241D16E
S32508009120606A41F6E171884210D0606AA14988420CD0606A4DF22D31884207D0606A9E4911
S32508009140884203D0606A9D4988422BD1A06A41F6E171884210D0A06A964988420CD0A06A18
S325080091604DF22D31884207D0A06A9349884203D0A06A9249884215D1E06A41F6E1718842EE
S3250800918014D0E06A8B49884210D0E06A4DF22D3188420BD0E06A8849884207D0E06A8749B3
S325080091A0884203D04AF6B520050026E08448D0F8E0206821834869F0CDFA8349884203D073
S325080091C04AF6B520050018E001207D490870002006000C2E0BD27A487549715C10EB81000A
S325080091E07349715C54F821104160761CF1E7206B73494863606B72498863280080B270BD66
S3250800920010B56F48D0F8E02068216E4869F0A2FA6D49884203D04AF6B520040005E0002057
S325080092206749087046F279600400200080B210BD70B58CB004000D006846644930226AF04B
S32508009240C1F86846EDB250F825102000604AEDB212EBC50252689047060041F6E170864269
S3250800926009D120685A49EDB251F83510884202D04DF22D30060030000CB070BD70B504002E
S325080092800D0046F27966002C05D02800C0B2FEF7EFFF002803D14AF6B52006003BE048485C
S325080092A0D0F8E0206821474869F054FA4649884203D04AF6B52006002DE041F61F60404986
S325080092C0EDB211EB8501C1F8A8002900C9B23C48EDB210EB8500A830FFF7AAFF3849EDB220
S325080092E011EB8501886736480078002806D13448EDB210EB8500806F206005E03048EDB2F4
S3250800930010EB85004068206068212E4869F03AFA2B49C1F8E000300080B270BDF8B501249D
S32508009320002541F288362B48006810F4805007002848006850F48050264908605FF0FF3012
S32508009340254908600020254908600020244908605FF0FF3023490860234824490860204844
S32508009360006850F001001E4908606D1CAE4202D20020040003E000F03DF80028F5D0E4B26B
S32508009380002C08D01A481449086000F03EF8002801D100200400B7F5805F05D00D48006833
S325080093A030F480500B4908602000C0B2F2BD0000B4830708554B0100FFFF010076A90100A8
S325080093C0DC150020541600205D44510084830708C083070848100240003002400430024008
S325080093E00830024010300240B71DC10414300240C2A507F40B490968C90702D5002108004D
S3250800940001E001210800C0B2704707490968074A914202D00021080001E001210800C0B2AD
S32508009420704700000830024000300240CDB5E8B52DE9F0479AB004000D0041F6E176DFF84F
S32508009440088168464149682269F0BCFF4048854274D1002C72D0002007000D2F56D20120F1
S32508009460814601208246BAF1210F1CD218F107084846694651F837108847814507D088F498
S32508009480F04898F067084DF22D3006000BE0314890EA08085FEA49095FEA59095FEA49091E
S325080094A01AF1010ADFE741F6E170864222D17FF00100814601208246BAF1210F1AD218F18F
S325080094C007084846694651F837108847814507D088F4F04898F067084DF22D30060009E000
S325080094E01C4890EA08085FEA490959F001091AF1010AE1E741F6E170864207D1684610EBD3
S32508009500C700406890EA08087F1CA6E7206841F61F61884202D01048060011E0C4F80080B6
S325080095204DF22D30864203D020680C49884207D04DF22D3006000A48206001E006480600BF
S3250800954030001AB0BDE8F087D32C0100208807081E1456004B55010076A901008CA80E00A5
S325080095608CA8FEF02DE9F04182B004000D0041F6E1768C4800908C48854240F00E81002CB9
S3250800958000F00B810120070001208046B8F1210F19D20098C01D009038006BF011F8874204
S325080095A007D000988149484000904DF22D30060009E000987E49484000907F007F087F00C5
S325080095C018F10108E2E741F6E170864221D17FF00100070001208046B8F1210F19D20098A6
S325080095E0C01D009038006AF0EBFF874207D000986E49484000904DF22D30060009E000984A
S325080096006B49484000907F0057F0010718F10108E2E741F6E170864203D1009865494840D5
S32508009620009041F6E170864240F08F8068466BF05BF9012803D04DF22D30060085E06846EF
S325080096406BF0DAF9012803D04DF22D3006007CE068466BF059FA012803D04DF22D300600DA
S3250800966073E068466BF0DEFA012803D04DF22D3006006AE068466BF05DFB012803D04DF224
S325080096802D30060061E068466BF0DCFB012803D04DF22D30060058E068466BF061FC0128D3
S325080096A003D04DF22D3006004FE068466BF0E0FC012803D04DF22D30060046E068466BF046
S325080096C05FFD012803D04DF22D3006003DE068466BF0E4FD012803D04DF22D30060034E0C9
S325080096E068466BF063FE012803D04DF22D3006002BE068466BF0E2FE012803D04DF22D30C8
S32508009700060022E068466BF067FF012803D04DF22D30060019E068466BF0E6FF012803D043
S325080097204DF22D30060010E068466CF065F8012803D04DF22D30060007E068466CF0E4F8B7
S32508009740012802D04DF22D30060041F6E17086420BD16AF040FF012804D10098154948401D
S32508009760009002E04DF22D300600206841F61F61884202D01048060011E0009820604DF246
S325080097802D30864203D020680C49884207D04DF22D3006000A48206001E00748060030006B
S325080097A0BDE8F68162693400F3443000AD163000D90B30000DB2370076A9010031060600BF
S325080097C0310606FF2DE9F24FE4B0040041F6E175DFF8007803A8DFF80018102269F0F2FD60
S325080097E06846DFF8F8170CC90CC00839083853A8DFF8EC17402269F0E5FD4EA8DFF8E4176B
S32508009800142269F0DFFD49A8DFF8DC17142269F0D9FD43A8DFF8D417182269F0D3FD3DA8BA
S32508009820DFF8CC17182269F0CDFD11A8DFF8C417102269F0C7FD0DA8DFF8BC17102269F05F
S32508009840C1FD39A8DFF8B417102269F0BBFD35A8DFF8AC17102269F0B5FD25A8402169F03B
S32508009860B3FD1DA8DFF89C17202269F0ABFD15A8DFF89417202269F0A5FD6498DFF88C17A6
S32508009880884240F0A183002C00F09E8368F098FF6CF090F80290029830F0F86006003000B2
S325080098A06CF08BF816F0F860474000208046B8F1040F13D203A818F101010422B1FBF2F3E2
S325080098C003FB121350F8231003A850F828006CF077F87840070018F10108E8E70020804670
S325080098E0B8F1040F0FD21DA85FEA480110EB810041681DA850F838006CF062F87840070087
S3250800990018F10108ECE700208046B8F1020F09D2684650F828006CF062F87840070018F13D
S325080099200108F2E700208046B8F1040F13D203A818F101010422B1FBF2F303FB121350F8D8
S32508009940231003A850F828006CF056F87840070018F10108E8E700208046B8F1040F0FD2DE
S3250800996015A85FEA480110EB8100416815A850F838006CF041F87840070018F10108ECE7EF
S3250800998000208046B8F1020F09D2684650F828006CF041F87840070018F10108F2E7DFF80A
S325080099A070066CF038F878400700DFF868066CF032F87840070000208046B8F1080F1FD2B7
S325080099C053A85FEA480110EB8100416853A850F838006CF02DF87840070053A85FEA48017F
S325080099E010EB8100426853A850F8381053A850F838006CF02CF87840070018F10108DCE719
S32508009A0000208046B8F1020F35D2684618F1010111F0010150F82120684650F82810684670
S32508009A2050F828006CF022F878400700684618F1010111F0010150F82120684650F8281000
S32508009A40684650F828006CF020F878400700684618F1010111F0010150F82120684650F86C
S32508009A602810684650F828006CF01EF87840070018F10108C6E7DFF8A025DFF8A015DFF893
S32508009A80A0056BF0F3FF78400700DFF89825DFF88C15DFF894056BF0E9FF78400700DFF8B2
S32508009AA07825DFF87815DFF884056BF0EEFF78400700DFF87025DFF86415DFF874056BF0C9
S32508009AC0E4FF78400700DFF85425DFF86815DFF868056BF0E9FF78400700DFF84825DFF8D1
S32508009AE03C15DFF858056BF0DFFF7840070000208046B8F1020F24D2684618F1010111F08B
S32508009B00010150F82120684650F82810684650F828006BF0D8FF78400700684618F10101B6
S32508009B2011F0010150F82120684650F82810684650F828006BF0D6FF7840070018F101083E
S32508009B40D7E7DFF8D824DFF8EC14DFF8F4046BF0BAFF78400700DFF8CC24DFF8C014DFF8A4
S32508009B60E4046BF0B0FF78400700DFF8AC24DFF8AC14DFF8AC046BF0B5FF78400700DFF8BC
S32508009B80A424DFF89814DFF8A0046BF0ABFF7840070000208046B8F1020F24D2684618F1E0
S32508009BA0010111F0010150F82120684650F82810684650F828006BF0A4FF78400700684652
S32508009BC018F1010111F0010150F82120684650F82810684650F828006BF0A2FF78400700D9
S32508009BE018F10108D7E7DFF83024DFF83014DFF83C046BF086FF78400700DFF82824DFF891
S32508009C001C14DFF82C046BF07CFF78400700DFF80C24DFF82014DFF820046BF081FF7840CA
S32508009C200700DFF80024DFF8F413DFF810046BF077FF7840070000208046B8F1050F09D23D
S32508009C404EA850F828006BF07AFF7840070018F10108F2E700208046B8F1030F0FD243A8A5
S32508009C605FEA480110EB8100416843A850F838006BF072FF7840070018F10108ECE7002024
S32508009C808046B8F1030F0FD23DA85FEA480110EB810041683DA850F838006BF05DFF7840E4
S32508009CA0070018F10108ECE756F4400630006BF084FE16F0F860474000208046B8F1050F85
S32508009CC009D249A850F828006BF055FF7840070018F10108F2E7029830F0F8600600300099
S32508009CE06BF06BFE16F0F860474000208046B8F1050F09D249A850F828006BF03CFF784080
S32508009D00070018F10108F2E75FF055325FF0AA3138006CF0A9F8070000208046B8F1040F65
S32508009D200FD239A850F828300DA850F8282011A850F8281038006BF02BFF070018F101085F
S32508009D40ECE700208046B8F1030F0FD235A850F828300DA850F8282011A850F8281038006D
S32508009D606BF02DFF070018F10108ECE740200C9000200B900DF194090B9A0C99484602F046
S32508009D8041FA25A938006BF031FF070040200A90002009900DF19409099A0A99484602F0CE
S32508009DA031FA25A938006BF0B9FF070040200890002007900DF19409079A0899484602F03E
S32508009DC021FA25A938006BF0CBFF07005FF040095FF0000A0DF1940B52464946584602F0E3
S32508009DE011FA25A938006CF016F8070056F0806630006BF0E2FD16F0F86047400020804672
S32508009E00B8F1040F13D203A818F101010422B1FBF2F303FB121350F8231003A850F828006D
S32508009E206BF0CEFD7840070018F10108E8E700208046B8F1040F0FD21DA85FEA480110EB79
S32508009E40810041681DA850F838006BF0B9FD7840070018F10108ECE700208046B8F1020F30
S32508009E6009D2684650F828006BF0B9FD7840070018F10108F2E700208046B8F1040F13D299
S32508009E8003A818F101010422B1FBF2F303FB121350F8231003A850F828006BF0ADFD7840D1
S32508009EA0070018F10108E8E700208046B8F1040F0FD215A85FEA480110EB8100416815A8F8
S32508009EC050F838006BF098FD7840070018F10108ECE700208046B8F1020F35D2684618F102
S32508009EE0010111F0010150F82120684650F82810684650F828006BF0B9FD784007006846FC
S32508009F0018F1010111F0010150F82120684650F82810684650F828006BF0B7FD7840070082
S32508009F20684618F1010111F0010150F82120684650F82810684650F828006BF0B5FD7840BD
S32508009F40070018F10108C6E7334A344934486BF08DFD78400700334A304933486BF086FDC4
S32508009F60784007002C4A2D4930486BF08EFD784007002C4A29492E486BF087FD784007000F
S32508009F80264A2C492C486BF08FFD78400700254A22492A486BF088FD7840070002986BF0D4
S32508009FA00CFD68F029FC206841F61F61884202D0254805000AE0276020682449884205D0BB
S32508009FC04DF22D30050001E01F480500280065B0BDE8F08FBB81390010890708208907084F
S32508009FE028890708688907087C89070890890708A8890708C0890708D0890708E0890708DF
S3250800A000F0890708008A0708208A0708DA365000555555D5AAAAAA2AC02083BF30621555DE
S3250800A0207C32715420E94A946CDEE5AA7C3271D46CDEE52A7E08BB3FC0409E52D1ED5E2ADD
S3250800A040C0409ED2D1ED5EAA76A90100CE52C4552DE9F04798B004000D0041F6E176444F9C
S3250800A06068464449602269F0ADF94348854278D1002C76D00120814601208246BAF1210F5D
S3250800A08018D2FF1D48466CF0BBF8814507D087F4634797F0DC074DF22D3006000AE03748D8
S3250800A0A047405FEA49095FEA59095FEA49091AF1010AE3E741F6E17086421ED17FF001009B
S3250800A0C0814601208246BAF1210F16D2FF1D48466CF096F8814507D087F4634797F0DC073F
S3250800A0E04DF22D30060008E0244847405FEA490959F001091AF1010AE5E741F6E1708642B5
S3250800A10018D11F48474000208046B8F10C0F11D2684650F838008047012803D04DF22D3040
S3250800A120060007E0684610EBC8004068474018F10108EAE7206841F61F61884202D011486D
S3250800A140060010E027604DF22D30864203D020680D49884207D04DF22D3006000B48206049
S3250800A16001E008480600300018B0BDE8F08700BF24A95400A08A0708027B0C000F31120092
S3250800A180BDC8340076A9010021D90400599593F02DE9F047A0B004000D00DFF8A08641F687
S3250800A1A0E17904A8DFF89816102269F00BF96846DFF890160CC90CC00839083802A8DFF8A9
S3250800A1C088160CC90CC008390838DFF880A618A8DFF87C16202269F0F5F814A8DFF87416E6
S3250800A1E0102269F0EFF80EA8DFF86C160CC90CC0083908380CA8DFF864160CC90CC00839C7
S3250800A200083810A8DFF85816102269F0DBF80AA8DFF850160CC90CC00839083808A8DFF8FD
S3250800A22048160CC90CC008390838DFF84006854240F0FD82002C00F0FA8200200600042E0D
S3250800A24011D23700042F0CD204A850F8271004A850F826006CF0AAF890EA080080467F1C9F
S3250800A260F0E7761CEBE700200600042E0ED218A8710010EB8100416818A850F836006CF06D
S3250800A28095F890EA08008046761CEEE700200600042E29D204A850F826006CF08FF890EAAA
S3250800A2A00800804604A850F826006CF08FF890EA0800804604A850F826006CF08FF890EA06
S3250800A2C00800804604A850F826006CF08FF890EA0800804614A850F826006CF08FF890EAD6
S3250800A2E008008046761CD3E700200600042E11D23700042F0CD204A850F8271004A850F894
S3250800A30026006CF083F890EA080080467F1CF0E7761CEBE700200600042E0AD204A850F8EC
S3250800A320261005986CF072F890EA08008046761CF2E700200600022E19D2684650F8260066
S3250800A3406CF06CF890EA08008046684650F826006CF06CF890EA080080460EA850F826009F
S3250800A3606CF06CF890EA08008046761CE3E700200600022E11D2684650F826006CF066F85C
S3250800A38090EA080080460CA850F826006CF067F890EA08008046761CEBE700200600022E88
S3250800A3A011D23700022F0CD2684650F82710684650F826006CF05CF890EA080080467F1C8A
S3250800A3C0F0E7761CEBE700200600022E0ED210A8710010EB8100416810A850F836006CF01E
S3250800A3E047F890EA08008046761CEEE700200600022E11D23700022F0CD2684650F82710B5
S3250800A400684650F826006CF03BF890EA080080467F1CF0E7761CEBE700200600022E0AD233
S3250800A42001210AA850F826006CF02AF890EA08008046761CF2E700200600022E11D26846B4
S3250800A44050F826006CF024F890EA08008046684650F826006CF025F890EA08008046761C51
S3250800A460EBE700206CF014F890EA0800804600206CF017F890EA0800804600200600022E03
S3250800A48011D23700022F0CD2684650F82710684650F826006CF00EF890EA080080467F1CF7
S3250800A4A0F0E7761CEBE700200600022E0BD2684650F826105FF0FF306BF0FCFF90EA08009E
S3250800A4C08046761CF1E700200600022E09D2684650F826006BF0F6FF90EA08008046761CC7
S3250800A4E0F3E700200600022E11D23700022F0CD2684650F82710684650F826006BF0EBFF67
S3250800A50090EA080080467F1CF0E7761CEBE700200600022E0AD2684650F8261000206BF036
S3250800A520DAFF90EA08008046761CF2E700200600022E09D2684650F826006BF0D4FF90EA8C
S3250800A54008008046761CF3E700200600022E11D23700022F0CD2684650F82710684650F811
S3250800A56026006BF0C9FF90EA080080467F1CF0E7761CEBE700200600022E0AD20021684665
S3250800A58050F826006BF0B8FF90EA08008046761CF2E700200600022E11D2684650F8260025
S3250800A5A06BF0B2FF90EA08008046684650F826006BF0B3FF90EA08008046761CEBE7002044
S3250800A5C00600022E09D2684650F826006BF0AEFF90EA08008046761CF3E76BF0AFFF90EA01
S3250800A5E0080080466BF0B3FF90EA08008046514650466BF0B5FF90EA080080460020060080
S3250800A600022E09D202A850F826006BF0B5FF90EA08008046761CF3E700200600022E09D215
S3250800A62002A850F826006BF0AFFF90EA08008046761CF3E700200600022E09D202A850F814
S3250800A64026006BF0A9FF90EA08008046761CF3E700200600022E09D202A850F826006BF06B
S3250800A660A3FF90EA08008046761CF3E700200600022E11D2684650F826006BF09DFF90EAB0
S3250800A68008008046684650F826006BF09EFF90EA08008046761CEBE708986BF08DFF90EA1D
S3250800A6A00800804609986BF090FF90EA080080466BF094FF90EA0800804600200600022E5F
S3250800A6C031D2684650F826006BF097FF90EA08008046684650F826006BF098FF90EA080084
S3250800A6E08046684650F826006BF099FF90EA08008046684650F826006BF09AFF90EA08009D
S3250800A7008046684650F826006BF09BFF90EA08008046684650F826006BF09CFF90EA080078
S3250800A7208046761CCBE700206BF08BFF90EA0800804600206BF08EFF90EA08008046002044
S3250800A7400600022E0FD26846711C11F0010150F82110684650F826006BF085FF90EA0800A0
S3250800A7608046761CEDE700200600022E11D202A850F826006BF080FF90EA0800804602A882
S3250800A78050F826006BF085FF90EA08008046761CEBE700200600022E19D2684650F8260055
S3250800A7A06BF084FF90EA08008046684650F826006BF085FF90EA08008046684650F8260006
S3250800A7C06BF086FF90EA08008046761CE3E700200600022E19D2684650F826006BF081FFAF
S3250800A7E090EA08008046684650F826006BF082FF90EA08008046684650F826006BF083FFCA
S3250800A80090EA08008046761CE3E7206841F61F61884202D0164881460BE0C4F800802068D7
S3250800A8201449884205D04DF22D30814601E010488146484620B0BDE8F08700BFAFA303001D
S3250800A840008B0708108B0708188B07083712DEBC208B0708408B0708508B0708588B0708A1
S3250800A860608B0708708B0708788B0708621E560076A901005841FC7F2DE9F047D4B00400D5
S3250800A8800D0041F6E176DFF8A48214A8A8494FF4807268F097FD02A8A6490CC90CC00839C9
S3250800A8A008386846A4490CC90CC00839083804A8A249402268F086FDA148854240F02F8129
S3250800A8C0002C00F02C8100200700082F1DD214A850F83700814614A8790010EB81004068F9
S3250800A8E082464246514648466BF064FF80464246514648466BF010FF8046424651464846C7
S3250800A9006BF036FF80467F1CDFE700200700082F1FD214A8790010EB8100006C814614A883
S3250800A920790010EB8100406C82464246514648466BF04FFF80464246514648466BF0FBFE83
S3250800A94080464246514648466BF012FF80467F1CDDE700200700082F21D214A8790010EB64
S3250800A9608100D0F88000814614A8790010EB8100D0F8840082464246514648466BF03DFF30
S3250800A98080464246514648466BF0E4FE80464246514648466BF0ECFE80467F1CDBE70020FE
S3250800A9A00700082F1BD214A8790010EB8100D0F8C000814614A8790010EB8100D0F8C40021
S3250800A9C082464246514648466BF02AFF80464246514648466BF0CCFE80467F1CE1E700208F
S3250800A9E00700002F0ED16846790010EB81004168684650F837006BF0BFFE90EA080080465B
S3250800AA007F1CEEE700200700002F23D102A850F83700814602A8790010EB8100406882466F
S3250800AA204246514648466BF0AAFE80464246514648466BF0A9FE80464246514648466BF015
S3250800AA40A8FE80464246514648466BF0A7FE80467F1CD9E742465FF0AA3101206BF08FFEF3
S3250800AA608046424637497FF000406BF088FE804642465FF0553101206BF081FE80464246FE
S3250800AA8031497FF000406BF07AFE804642462F4901206BF07EFE804642462B4901206BF0B0
S3250800AAA078FE804642462A4901206BF072FE804642465FF0553101206BF06BFE8046002077
S3250800AAC00700082F19D204A850F83700814604A8790010EB810040688246514648466BF0BC
S3250800AAE062FE90EA08008046514648466BF05EFE90EA080080467F1CE3E7206841F61F61D8
S3250800AB00884202D0134806000BE0C4F8008020681149884205D04DF22D30060001E00D48AA
S3250800AB200600300054B0BDE8F08700BF2BF90700808B0708808C0708888C0708908C070844
S3250800AB40AD2F560056555555ABAAAAAAA9AAAAAA5455555576A90100A7D698C02DE9F24F71
S3250800AB6098B0040041F6E175744F14A87449102268F028FC10A87349102268F023FC0CA833
S3250800AB807149102268F01EFC08A87049102268F019FC04A86E49102268F014FC68466D49E0
S3250800ABA0102268F00FFCDFF8B081DFF8B091DFF8B0A1DFF8B0B118986B49884240F0B880DC
S3250800ABC0002C00F0B58000200600042E0ED20CA850F8263010A850F8262014A850F826100C
S3250800ABE038006BF031FE0700761CEEE700200600042E0ED2684650F8263004A850F8262059
S3250800AC0008A850F8261038006BF02EFE0700761CEEE738006BF038FE0700424649463800AC
S3250800AC206BF07CFE07004246494638006CF00FF907004246494638006CF012F9070042462B
S3250800AC40494638006CF01BF907005246594638006CF026F907005246594638006CF02CF9C7
S3250800AC60070042484249401A40084249487042483F49401A40083F49887040483C49401A2A
S3250800AC8040083C49C8703E483949401A4008394908713C483649401A4008364948710020FF
S3250800ACA00600062E08D25B465246310038006CF00FF90700761CF4E733483449401A40085E
S3250800ACC03349488033483149401A40083049888031482E49401A40082D49C8802F482B49CF
S3250800ACE0401A40082A4908812D482849401A40082749488100200600062E08D25B4652467A
S3250800AD00310038006CF007F90700761CF4E7206841F61F61884202D0224805000AE0276031
S3250800AD2020682149884205D04DF22D30050001E01C480500280019B0BDE8F08F61520700BA
S3250800AD40D08C0708E08C0708F08C0708008D0708108D0708208D070811525A008D7D3B006E
S3250800AD60563C3E004F620A00C7515600E56E0708DD6E0708C0160020ED6E0708F56E07083E
S3250800AD80FD6E0708056F07082B6F0708236F0708C8160020336F07083B6F0708436F070835
S3250800ADA04B6F070876A901004C2807702DE9F24FA0B0040041F6E1755D4E10A8402168F05D
S3250800ADC003FB20985B49884240F0AB80002C00F0A88040200F9000200E9010AF0E9A0F99D6
S3250800ADE0380001F00FFA10A930006CF0BBF8060040200D9000200C9010AF0C9A0D99380019
S3250800AE0001F000FA10A930006CF0EEF8060040200B9000200A9010AF0A9A0B99380001F023
S3250800AE20F1F910A930006CF061F90600402009900020089010AF089A0999380001F0E2F9BD
S3250800AE4010A930006CF074F90600402007900020069010AF069A0799380001F0D3F910A9D2
S3250800AE6030006CF075F90600402005900020049010AF049A0599380001F0C4F910A9300051
S3250800AE806CF076F90600402003900020029010AF029A0399380001F0B5F910A930006CF01B
S3250800AEA077F90600402001900020009010AF009A0199380001F0A6F910A930006CF078F9FC
S3250800AEC0060040275FF000080DF1400942463900484601F097F910A930006CF08BF90600BA
S3250800AEE05FF040095FF0000A0DF1400B52464946584601F087F910A930006CF0ADF90600E3
S3250800AF00206841F61F61884202D00B4805000AE0266020680949884205D04DF22D30050066
S3250800AF2001E005480500280021B0BDE8F08F00BF59ED05002198570076A901000449FAFF33
S3250800AF402DE9F24F92B0040041F6E175DFF854820DA89549102268F035FA09A89349102201
S3250800AF6068F030FA07A892490CC90CC0083908380920049068468F490CC90CC00839083830
S3250800AF80DFF834928D4803908D480290DFF834A2DFF834B205A88D490CC90CC00839083828
S3250800AFA012988B49884240F0F780002C00F0F48000200600022E12D200200700042F0CD292
S3250800AFC00DA850F82710684650F826006CF054F990EA080080467F1CF0E7761CEAE700202D
S3250800AFE00600022E12D200200700042F0CD209A850F82710684650F826006CF03FF990EA97
S3250800B000080080467F1CF0E7761CEAE700200600022E12D200200700022F0CD207A850F818
S3250800B0202710684650F826006CF02AF990EA080080467F1CF0E7761CEAE748466CF022F90E
S3250800B04090EA08008046049948466CF01DF990EA0800804648466CF019F990EA0800804671
S3250800B06048466CF015F990EA0800804600200600022E09D2684650F826006CF00BF990EA5B
S3250800B08008008046761CF3E703986CF003F990EA0800804602986CF0FFF890EA08008046F8
S3250800B0A050466CF0FBF890EA0800804640466CF0F7F8804658466CF025FA90EA080080465D
S3250800B0C000200600022E21D2684650F826006CF01CFA90EA08008046684650F826006CF0CB
S3250800B0E017FA90EA08008046684650F826006CF012FA90EA08008046684650F826006CF0A5
S3250800B1000DFA90EA08008046761CDBE700200600022E21D2684650F826006CF002FA90EA47
S3250800B12008008046684650F826006CF0FDF990EA08008046684650F826006CF0F8F990EA9A
S3250800B14008008046684650F826006CF0F3F990EA08008046761CDBE700200600022E09D2E2
S3250800B16005A850F826006CF0E8F990EA08008046761CF3E7206841F61F61884202D015487D
S3250800B18005000BE0C4F8008020681349884205D04DF22D30050001E00E480500280013B02A
S3250800B1A0BDE8F08F7A3D0400808D0708908D0708A08D0708A88D07083712DEBCF67EC3FAC6
S3250800B1C0F17EC3FAF37EC3FAF17EC3AAB08D07081AF2570076A9010012CCFF9FF8B504002F
S3250800B1E00D0041F6E176104F1048854217D1002C15D038006CF0A4F90700206841F61F61B8
S3250800B200884202D00A4806000BE02760206841F23621884205D04DF22D30060001E004483A
S3250800B22006003000F2BD00BFF6620300BC38580076A90100F8B504000D0041F6E1762F4FCB
S3250800B2402F48854256D1002C54D038006CF088F9070038006CF0C7F9070038006CF02AFAFC
S3250800B260070038006CF055FA070038006CF07CFA070038006CF0ADFA070038006CF0CDFA21
S3250800B280070038006CF0F7FA070038006CF017FB070038006CF046FB070038006CF066FB8F
S3250800B2A0070038006CF084FB070038006CF0A6FB070038006CF0C8FB070038006CF0F3FB43
S3250800B2C0070038006CF01EFC070038006CF053FC0700206841F61F61884202D00948060088
S3250800B2E00AE0276020680849884205D04DF22D30060001E0034806003000F2BDA47B010084
S3250800B30074E7580076A901001CE9324B2DE9F043E1B004000D0041F6E177DFF8B88868468B
S3250800B320DFF8B4184FF4C07268F04CF8DFF8AC08854240F04984002C00F0468400200600F0
S3250800B340062E59D20F2000FB06F08146684610EB89008268684610EB89004168684650F8AC
S3250800B36029006CF05BFC90EA08008046684610EB89004269684610EB89000169684610EB79
S3250800B3808900C0686CF04DFC90EA08008046684610EB8900026A684610EB8900C169684659
S3250800B3A010EB890080696CF044FC90EA08008046684610EB8900C26A684610EB8900816AB3
S3250800B3C0684610EB8900406A6CF03DFC90EA08008046684610EB8900826B684610EB890055
S3250800B3E0416B684610EB8900006B6CF036FC90EA08008046761CA3E75A208146684610EB1A
S3250800B40089008268684610EB89004168684650F829006CF003FC90EA08008046684610EB65
S3250800B42089004269684610EB89000169684610EB8900C0686CF0F5FB90EA08008046002020
S3250800B4400600202E15D2032000FB06F08146684610EB89008268684610EB89004168684623
S3250800B46050F829006CF001FC90EA08008046761CE7E700200600022E4DD2DFF8640750F84D
S3250800B4802620DFF85C07711C11F0010150F82110DFF84C0750F826006CF0E7FB90EA0800BD
S3250800B4A08046DFF83C0750F82620DFF83407711C11F0010150F82110DFF8240750F8260085
S3250800B4C06CF0D6FB90EA08008046DFF8140750F82620DFF80C07711C11F0010150F8211076
S3250800B4E0DFF8FC0650F826006CF0C5FB90EA08008046DFF8EC06711C11F0010150F82110C1
S3250800B500DFF8DC0650F826006CF0B8FB90EA08008046761CAFE7DFF8CC265FF055310120B8
S3250800B5206CF0A3FB90EA08008046DFF8BC265FF0553101206CF099FB90EA080080465FF085
S3250800B540AA32002100206CF093FB90EA080080465FF05532002100206CF08AFB90EA080014
S3250800B56080465FF055317FF000406CF087FB90EA080080465FF0AA317FF000406CF07EFB9F
S3250800B58090EA0800804640466CF07BFB804640466CF0A5FB804600200600022E80F0C480E5
S3250800B5A0DFF83C0650F82620DFF83406711C11F0010150F82110DFF8280650F826006CF0ED
S3250800B5C0BEFB90EA08008046DFF8140650F82620DFF80C06711C11F0010150F82110DFF814
S3250800B5E0000650F826006CF0ADFB90EA08008046DFF8EC05711C11F0010150F82110DFF8D5
S3250800B600E00550F826006CF0A0FB90EA08008046DFF8CC05711C11F0010150F82110DFF802
S3250800B620C00550F826006CF093FB90EA08008046DFF8AC05711C11F0010150F82110DFF82F
S3250800B640A00550F826006CF086FB90EA08008046DFF88C05711C11F0010150F82110DFF85C
S3250800B660800550F826006CF079FB90EA08008046DFF86C0550F82620DFF86405711C11F00D
S3250800B680010150F82110DFF8580550F826006CF068FB90EA08008046DFF84405711C11F0CA
S3250800B6A0010150F82110DFF8380550F826006CF05BFB90EA08008046DFF8240550F8260017
S3250800B6C06CF066FB90EA08008046DFF8140550F826006CF060FB90EA08008046DFF800051E
S3250800B6E050F826006CF05AFB90EA08008046DFF8F00450F826006CF054FB90EA08008046A9
S3250800B700DFF8DC0450F826006CF04EFB90EA08008046DFF8CC0450F826006CF048FB90EADB
S3250800B72008008046761C38E740466CF020FB8046DFF8B8244AF6AA2101206CF000FB90EA09
S3250800B74008008046DFF8A82445F2555101206CF0F6FA90EA08008046DFF89024DFF89414CE
S3250800B76001206CF0EFFA90EA08008046DFF88024DFF87C1401206CF0E5FA90EA0800804687
S3250800B78048F201014AF6AA206CF0DFFA90EA0800804648F2010145F255506CF0D6FA90EA1A
S3250800B7A008008046DFF85014DFF848046CF0D0FA90EA08008046DFF84014DFF834046CF04B
S3250800B7C0C7FA90EA080080465FF480315FF0AA306CF0C1FA90EA080080465FF480315FF073
S3250800B7E055306CF0B8FA90EA0800804601215FF0AA306CF0B3FA90EA0800804601215FF053
S3250800B80055306CF0ABFA90EA08008046DFF8DC23DFF8E0135FF480306CF0A3FA90EA08002E
S3250800B8208046DFF8CC23DFF8C8135FF480306CF098FA90EA080080465FF080215FF0AA306A
S3250800B8406CF092FA90EA080080465FF080215FF055306CF089FA90EA08008046DFF89C0349
S3250800B8606CF096FA90EA080080465FF055306CF08FFA90EA08008046E1486CF092FA90EAFA
S3250800B880080080465FF055306CF08BFA90EA0800804600200600022E68D2D148711C11F098
S3250800B8A0010150F82110CE4850F826006CF082FA90EA08008046CA48711C11F0010150F871
S3250800B8C02110C74850F826006CF077FA90EA08008046C348711C11F0010150F82110C0487B
S3250800B8E050F826006CF06CFA90EA08008046BC4850F826006CF067FA90EA08008046B8484B
S3250800B90050F826006CF061FA90EA08008046B448711C11F0010150F82110B14850F8260040
S3250800B9206CF055FA90EA08008046AD48711C11F0010150F82110AA4850F826006CF04AFA08
S3250800B94090EA08008046A64850F82620A448711C11F0010150F82110A14850F826006CF06D
S3250800B9603CFA90EA08008046761C94E700215FF0AA306CF01FFA90EA0800804600215FF0B7
S3250800B98055306CF017FA90EA0800804600215FF0AA306CF012FA90EA0800804600215FF0F5
S3250800B9A055306CF00AFA90EA080080464AF6AA2190486CF005FA90EA0800804645F25551E9
S3250800B9C08B486CF0FDF990EA080080465FF0AA306CF0F9F990EA080080465FF055306CF0FD
S3250800B9E0F2F990EA080080465FF0AA306CF0EDF990EA080080465FF055306CF0E6F990EACA
S3250800BA000800804600215FF0AA306CF0E0F990EA0800804600215FF055306CF0D8F990EAE7
S3250800BA200800804600215FF055306CF0D3F990EA080080466F494AF6AA206CF0CBF990EA69
S3250800BA40080080466F4A0021AA206CF0C6F990EA080080466C4A002155206CF0BEF990EA2A
S3250800BA600800804600200600022E47D25C48711C11F0010150F82110594850F826006CF063
S3250800BA80AFF990EA080080465548711C11F0010150F82110524850F826006CF0A4F990EA87
S3250800BAA0080080464E48711C11F0010150F821104B4850F826006CF099F990EA08008046D4
S3250800BAC04748711C11F0010150F82110444850F826006CF08EF990EA080080464048711C86
S3250800BAE011F0010150F821103D4850F826006CF083F990EA08008046761CB5E700215FF00B
S3250800BB00AA306CF06DF990EA0800804600215FF055306CF065F990EA0800804600215FF0CC
S3250800BB20AA306CF060F990EA0800804600215FF055306CF058F990EA0800804600215FF0C6
S3250800BB40AA306CF053F990EA0800804600215FF055306CF04BF990EA0800804600215FF0C0
S3250800BB60AA306CF046F990EA0800804600215FF055306CF03EF990EA0800804600215FF0BA
S3250800BB8055306CF039F990EA0800804600215FF0AA306CF031F990EA0800804640466CF042
S3250800BBA033F98046206841F61F61884202D0174807000BE0C4F8008020681549884205D098
S3250800BBC04DF22D30070001E010480700380061B0BDE8F08318153900108E07089F04350028
S3250800BBE090900708ABAAAAAA565555550000ABAA000055550000AAAA00000180AAAAAA0A2E
S3250800BC00AA2AAA2A00AAAAAA0055555576A9010086CF4DC70020B54908600020B34948609E
S3250800BC200020B24988600020B04908730120AF494873AF4870470020AC4908600020AB494C
S3250800BC4048600020A94988600020A84908730020A6494873A648704730B40100A448A34B7A
S3250800BC605B7B012B02D0A34B180042E0002902D00B68002B02D19F4B18003AE00B681A00A5
S3250800BC8013689D4C24681B1B4FF48064B3FBF4F505FB1435002D01D0964B1800136854683B
S3250800BCA0A34201D3934B180053685B1C14681B1B0424B3FBF4F505FB1435002D01D08D4B05
S3250800BCC018009268002A02D08A4B9842D8D1884B98420ED1854B19600B68844C63600B68A2
S3250800BCE01B68824CA3600023804C237302237F4C637330BC70477E487C49497B022902D0A8
S3250800BD007C49080019E079490968002904D0774909680968002902D1764908000DE0734911
S3250800BD2009680968714A516070490968096809686E4A916000216D4A1173704710B56C4C62
S3250800BD406A48407B022802D06A4804001BE067480068002807D065488068002803D063486A
S3250800BD604068002802D1634804000CE003205F4948735E48007B002802D100F006F80400E3
S3250800BD8002205A494873200010BD2DE9F84300245648006840684FF4807101FB00F566F08A
S3250800BDA089FC5648006855490968491C524A1268891A8900B0EB9120401C07004B4880680A
S3250800BDC04D490968401A4FF48061B0FBF1F202FB1102002A02D04748060065E04348406829
S3250800BDE04068401C41498968401AB0F5806F09D23E4840684068401C3C498968401A800863
S3250800BE00814602E04FF480708146B9F1000F02D13848060048E03548806837490968401A87
S3250800BE20800A57F820008046424649462F48806800F049F806003248864235D119EB040434
S3250800BE402A48806810EB8900284949684968491C884206D22548806810EB890023498860EF
S3250800BE6022E02248806810EB8900204949684968491C884216D11D484068806800280AD004
S3250800BE801A4840688068194948601848406800681649886008E001201449087341F6E17078
S3250800BEA0060001E0134806001048007B002805D1AC4203D2124886423FF480AF66F01AFCA8
S3250800BEC03000BDE8F283F8B504000D0016002900200066F031FC864203D04DF22D3007002C
S3250800BEE001E0074807003800F2BD0000D8160020FFFF010076A901005C15002058150020CB
S3250800BF00554B01000020DFF8E41208600020B74948600020B54988600020B4490873012096
S3250800BF20B2494873B24870470020B04908600020AE4948600020AD4988600020AB490873BF
S3250800BF400020AA494873AA48704730B40100A848A64B5B7B012B02D0A64B180050E0002960
S3250800BF6002D00B68002B02D1A24B180048E00B681A0053685B1C14681B1B2024B3FBF4F5F7
S3250800BF8005FB1435002D01D09A4B180013685468A34201D3974B1800974B1B68002B17D0EE
S3250800BFA0954B1B681468A34204D35368924C2468A3420BD2904B1B681F331468A34207D306
S3250800BFC053688D4C24681F34A34201D3894B18009268002A02D0874B9842CAD1844B984255
S3250800BFE00ED1824B19600B68804C63600B681B687E4CA36000237D4C237302237B4C637305
S3250800C00030BC70477A487949497B022902D07949080019E075490968002904D0734909680E
S3250800C0200968002902D1734908000DE06F49096809686E4A51606D490968096809686B4A13
S3250800C04091600021694A1173704710B5684C6748407B022802D0674804001BE06348006832
S3250800C060002807D061488068002803D05F484068002802D15F4804000CE003205B494873C4
S3250800C0805A48007B002802D100F006F80400022056494873200010BD2DE9F0410024574E0F
S3250800C0A0524800684068470166F07AFB5FF05531514800686CF0EFF8050066F079FB012D9F
S3250800C0C002D14F48804602E04DF22D3080464C48804540F082800B36444880684349496861
S3250800C0E0096888420DD166F05BFB5FF05532424801683E4880686CF030F8050066F058FB04
S3250800C10023E03A4880681030384949684968491C88420DD166F044FB5FF055323648016822
S3250800C120324880686CF068F8050066F041FB0CE066F036FB5FF055322F4801682B488068B8
S3250800C1406BF0BAFF050066F033FB012D02D12C48804602E04DF22D3080462948804531D17D
S3250800C160241D224880681030204949684968491C884205D21D48806810301C49886021E032
S3250800C1801A4880681030194949684968491C884216D116484068806800280AD0134840683A
S3250800C1A08068124948601148406800680F49886008E001200D49087341F6E170804601E0D4
S3250800C1C00C4880460B3E0948007B002805D1BC4203D20B4880453FF47EAF0848864201D0F0
S3250800C1E0044880464046BDE8F0810000E8160020FFFF010076A9010054150020D241290081
S3250800C200554B010070B4840746D04C1E002941D0D5B2034602E0611EE4B30C4603F8015B95
S3250800C2209907F8D1032C2ED9D5B245EA05250F2C45EA054519D9264603F11001103E0F2ECF
S3250800C24041F8105C41F80C5C41F8085C41F8045C01F11001F2D8A4F1100121F00F0104F0CC
S3250800C2600F041031032C0B440DD91E4621460439032946F8045BFAD8211F21F003010431CB
S3250800C2800B4404F003042CB1D2B21C4403F8012BA342FBD170BC70470C460346C2E703463D
S3250800C2A013F8012B002AFBD1181A01387047000001F0FF01102A2BDB10F0070F08D010F8FA
S3250800C2C0013B013A8B422DD010F0070F42B3F6D1F0B441EA012141EA014122F007047FF053
S3250800C2E000070023F0E80256083C85EA010586EA010685FA47F5A3FA87F586FA47F6A5FA76
S3250800C30087F68EB9EED1F0BC01F0FF0102F0070232B110F8013B013A83EA010313B1F8D194
S3250800C3200020704701387047002D06BF35460338073815F0010F07D1013015F4807F02BF5A
S3250800C340013015F4C03F0130F0BC0138704700BF81F0004102E000BF83F0004330B54FEAE3
S3250800C36041044FEA430594EA050F08BF90EA020F1FBF54EA000C55EA020C7FEA645C7FEAFE
S3250800C380655C00F0E2804FEA5454D4EB5555B8BF6D420CDD2C4480EA020281EA030382EA68
S3250800C3A0000083EA010180EA020281EA0303362D88BF30BD11F0004F4FEA01314FF4801CF0
S3250800C3C04CEA113102D0404261EB410113F0004F4FEA03334CEA133302D0524263EB4303BE
S3250800C3E094EA050F00F0A780A4F10104D5F1200E0DDB02FA0EFC22FA05F2801841F100012C
S3250800C40003FA0EF2801843FA05F359410EE0A5F120050EF1200E012A03FA0EFC28BF4CF07F
S3250800C420020C43FA05F3C01851EBE37101F0004507D54FF0000EDCF1000C7EEB00006EEB49
S3250800C4400101B1F5801F1BD3B1F5001F0CD349085FEA30004FEA3C0C04F101044FEA4452E1
S3250800C46012F5800F80F09A80BCF1004F08BF5FEA500C50F1000041EB045141EA050130BD46
S3250800C4805FEA4C0C404141EB0101013C28BFB1F5801FE9D291F0000F04BF01460020B1FAB5
S3250800C4A081F308BF2033A3F10B03B3F120020CDA0C3208DD02F1140CC2F10C0201FA0CF0A4
S3250800C4C021FA02F10CE002F11402D8BFC2F1200C01FA02F120FA0CFCDCBF41EA0C01904022
S3250800C4E0E41AA2BF01EB0451294330BD6FEA04041F3C1CDA0C340EDC04F11404C4F1200275
S3250800C50020FA04F001FA02F340EA030021FA04F345EA030130BDC4F10C04C4F1200220FAFA
S3250800C52002F001FA04F340EA0300294630BD21FA04F0294630BD94F0000F83F4801306BFB3
S3250800C54081F480110134013D4EE77FEA645C18BF7FEA655C29D094EA050F08BF90EA020F18
S3250800C56005D054EA000C04BF1946104630BD91EA030F1EBF0021002030BD5FEA545C05D1C2
S3250800C5804000494128BF41F0004130BD14F580043CBF01F5801130BD01F0004545F0FE41D7
S3250800C5A041F470014FF0000030BD7FEA645C1ABF194610467FEA655C1CBF0B46024650EA0C
S3250800C5C0013406BF52EA033591EA030F41F4002130BD00BF90F0000F04BF0021704730B541
S3250800C5E04FF4806404F132044FF000054FF0000150E700BF90F0000F04BF0021704730B552
S3250800C6004FF4806404F1320410F0004548BF40424FF000013EE700BF42004FEAE2014FEA31
S3250800C62031014FEA02701FBF12F07F4393F07F4F81F06051704732F07F4208BF704793F05F
S3250800C6407F4F04BF41F40021704730B54FF4607401F0004521F000411CE700BF50EA0102AB
S3250800C66008BF704730B54FF000050AE050EA010208BF704730B511F0004502D5404261EB90
S3250800C68041014FF4806404F132045FEA915C3FF4D8AE4FF003025FEADC0C18BF03325FEA3F
S3250800C6A0DC0C18BF033202EBDC02C2F1200300FA03FC20FA02F001FA03FE40EA0E0021FA83
S3250800C6C002F11444BDE600BF70B54FF0FF0C4CF4E06C1CEA11541DBF1CEA135594EA0C0F56
S3250800C6E095EA0C0F00F0DEF82C4481EA030621EA4C5123EA4C5350EA013518BF52EA0335D9
S3250800C70041F4801143F4801338D0A0FB02CE4FF00005E1FB02E506F00042E0FB03E54FF0C7
S3250800C7200006E1FB03569CF0000F18BF4EF0010EA4F1FF04B6F5007F64F5407404D25FEA03
S3250800C7404E0E6D4146EB060642EAC62141EA55514FEAC52040EA5E504FEACE2EB4F1FD0CC7
S3250800C76088BFBCF5E06F1ED8BEF1004F08BF5FEA500E50F1000041EB045170BD06F00046D7
S3250800C78046EA010140EA020081EA0301B4EB5C04C2BFD4EB0C0541EA045170BD41F48011FB
S3250800C7A04FF0000E013C00F3AB8014F1360FDEBF002001F0004170BDC4F10004203C35DA39
S3250800C7C00C341BDC04F11404C4F1200500FA05F320FA04F001FA05F240EA020001F00042DC
S3250800C7E021F0004110EBD37021FA04F642EB06015EEA430E08BF20EAD37070BDC4F10C04B3
S3250800C800C4F1200500FA04F320FA05F001FA04F240EA020001F0004110EBD37041F1000170
S3250800C8205EEA430E08BF20EAD37070BDC4F1200500FA05F24EEA020E20FA04F301FA05F2FA
S3250800C84043EA020321FA04F001F0004121FA04F220EA020000EBD3705EEA430E08BF20EAA2
S3250800C860D37070BD94F0000F0FD101F00046400041EB010111F4801F08BF013CF7D041EA88
S3250800C880060195F0000F18BF704703F00046520043EB030313F4801F08BF013DF7D043EA03
S3250800C8A00603704794EA0C0F0CEA135518BF95EA0C0F0CD050EA410618BF52EA4306D1D1E7
S3250800C8C081EA030101F000414FF0000070BD50EA410606BF1046194652EA430619D094EA56
S3250800C8E00C0F02D150EA013613D195EA0C0F05D152EA03361CBF104619460AD181EA030128
S3250800C90001F0004141F0FE4141F470014FF0000070BD41F0FE4141F4780170BD70B54FF0A6
S3250800C920FF0C4CF4E06C1CEA11541DBF1CEA135594EA0C0F95EA0C0F00F0A7F8A4EB050443
S3250800C94081EA030E52EA03354FEA013100F088804FEA03334FF0805545EA131343EA1263FC
S3250800C9604FEA022245EA111545EA10654FEA00260EF000419D4208BF964244F1FD0404F508
S3250800C980407402D25B084FEA3202B61A65EB03055B084FEA32024FF480104FF4002CB6EB56
S3250800C9A0020E75EB030E22BFB61A754640EA0C005B084FEA3202B6EB020E75EB030E22BF73
S3250800C9C0B61A754640EA5C005B084FEA3202B6EB020E75EB030E22BFB61A754640EA9C0014
S3250800C9E05B084FEA3202B6EB020E75EB030E22BFB61A754640EADC0055EA060E18D04FEA51
S3250800CA00051545EA16754FEA06164FEAC30343EA52734FEAC2025FEA1C1CC0D111F4801F3B
S3250800CA200BD141EA00014FF000004FF0004CB6E711F4801F04BF01430020B4F1FD0C88BFB9
S3250800CA40BCF5E06F3FF6AFAEB5EB030C04BFB6EB020C5FEA500C50F1000041EB045170BD81
S3250800CA600EF0004E4EEA113114EB5C04C2BFD4EB0C0541EA045170BD41F480114FF0000E72
S3250800CA80013C90E645EA060E8DE60CEA135594EA0C0F08BF95EA0C0F3FF43BAF94EA0C0F11
S3250800CAA00AD150EA01347FF434AF95EA0C0F7FF425AF104619462CE795EA0C0F06D152EA72
S3250800CAC003353FF4FDAE1046194622E750EA410618BF52EA43067FF4C5AE50EA41047FF4BF
S3250800CAE00DAF52EA43057FF4EBAE12E74FF0FF3C06E000BF4FF0010C02E000BF4FF0010C8B
S3250800CB004DF804CD4FEA410C7FEA6C5C4FEA430C18BF7FEA6C5C1BD001B050EA410C0CBFBC
S3250800CB2052EA430C91EA030F02BF90EA020F0020704710F1000F91EA030F58BF994208BF56
S3250800CB4090422CBFD8176FEAE37040F0010070474FEA410C7FEA6C5C02D150EA013C07D1AE
S3250800CB604FEA430C7FEA6C5CD6D152EA033CD3D05DF8040B704700BF8446104662468C46B5
S3250800CB801946634600E000BF01B5FFF7B7FF002848BF10F1000F01BD4DF808EDFFF7F4FF5E
S3250800CBA00CBF012000205DF808FB00BF4DF808EDFFF7EAFF34BF012000205DF808FB00BFE0
S3250800CBC04DF808EDFFF7E0FF94BF012000205DF808FB00BF4DF808EDFFF7CEFF94BF01201C
S3250800CBE000205DF808FB00BF4DF808EDFFF7C4FF34BF012000205DF808FB00BF4FEA410C2C
S3250800CC007FEA6C5C02D150EA013C0AD14FEA430C7FEA6C5C02D152EA033C02D14FF0000097
S3250800CC2070474FF0010070474FEA410212F5001215D211D56FF47873B3EB625212D94FEA12
S3250800CC40C12343F0004343EA505311F0004F23FA02F018BF404270474FF00000704750EAFD
S3250800CC60013005D111F0004008BF6FF0004070474FF00000704700BF4A0011D212F5001246
S3250800CC8011D20DD56FF47873B3EB62520ED44FEAC12343F0004343EA505323FA02F0704716
S3250800CCA04FF00000704750EA013002D14FF0FF3070474FF0000070474FEA4102B2F1E043D5
S3250800CCC024BFB3F5001CDCF1FE5C0DD901F0004C4FEAC0024CEA5070B2F1004F40EB8300C4
S3250800CCE008BF20F00100704711F0804F21D113F13872BCBF01F00040704741F480114FEAC5
S3250800CD005252C2F11802C2F1200C10FA0CF320FA02F018BF40F001004FEAC1234FEAD3234C
S3250800CD2003FA0CFC40EA0C0023FA02F34FEA4303CCE77FEA625307D150EA01331EBF4FF0E6
S3250800CD40FE4040F44000704701F0004040F0FE4040F40000704700BF80F0004002E000BFC2
S3250800CD6081F0004142001FBF5FEA410392EA030F7FEA226C7FEA236C6AD04FEA1262D2EB25
S3250800CD801363C1BFD218414048404140B8BF5B42192B88BF704710F0004F40F4000020F032
S3250800CDA07F4018BF404211F0004F41F4000121F07F4118BF494292EA030F3FD0A2F1010261
S3250800CDC041FA03FC10EB0C00C3F1200301FA03F100F0004302D5494260EB4000B0F5000F6A
S3250800CDE013D3B0F1807F06D340084FEA310102F10102FE2A51D2B1F1004F40EBC25008BFDD
S3250800CE0020F0010040EA03007047490040EB0000013A28BFB0F5000FEDD2B0FA80FCACF143
S3250800CE20080CB2EB0C0200FA0CF0AABF00EBC25052421843BCBFD0401843704792F0000FAC
S3250800CE4081F4000106BF80F400000132013BB5E74FEA41037FEA226C18BF7FEA236C21D0D6
S3250800CE6092EA030F04D092F0000F08BF0846704790EA010F1CBF0020704712F07F4F04D104
S3250800CE80400028BF40F00040704712F100723CBF00F50000704700F0004343F0FE4040F442
S3250800CEA0000070477FEA226216BF08467FEA23630146420206BF5FEA412390EA010F40F4F3
S3250800CEC0800070474FF0000304E000BF10F0004348BF40425FEA000C08BF704743F096437D
S3250800CEE001464FF000001CE050EA010208BF70474FF000030AE000BF50EA010208BF704741
S3250800CF0011F0004302D5404261EB41015FEA010C02BF84460146002043F0B64308BFA3F109
S3250800CF208053A3F50003BCFA8CF2083AA3EBC25310DB01FA02FC634400FA02FCC2F1200204
S3250800CF40BCF1004F20FA02F243EB020008BF20F00100704702F1200201FA02FCC2F1200217
S3250800CF6050EA4C0021FA02F243EB020008BF20EADC7070477BB972B90029BEBF00204FF0A6
S3250800CF80004106E008BF00281CBF6FF000414FF0FF3000F009BAADF1080C6DE904CE0029CE
S3250800CFA009DB002B1ADB00F083F8DDF804E0DDE9022304B07047404261EB4101002B1BDBB4
S3250800CFC000F076F8DDF804E0DDE9022304B0404261EB4101524263EB43037047524263EBBC
S3250800CFE0430300F065F8DDF804E0DDE9022304B0404261EB41017047524263EB430300F059
S3250800D00057F8DDF804E0DDE9022304B0524263EB4303704753B94AB9002908BF00281CBF7A
S3250800D0204FF0FF314FF0FF3000F0BEB9ADF1080C6DE904CE00F03CF8DDF804E0DDE90223FC
S3250800D04004B0704738B50022002304460D46FFF7ADFD28B920462946BDE8384000F00AB863
S3250800D060204605F1004100F005F8404261EB410138BD00BFD0B50C4B002206460F46FFF7BF
S3250800D08023FBFFF7F9FD0446FFF7A4FA074B0022FFF71AFB02460B4630463946FFF75CF942
S3250800D0A0FFF7EAFD2146D0BD0000F03D0000F0412DE9F047089D8E4604468846002B4AD10F
S3250800D0C08A42174662D9B2FA82F64EB1C6F1200301FA06F820FA03F3B74043EA0808B440B0
S3250800D0E04FEA174E1FFA87FCB8FBFEF1230C0EFB118843EA084301FB0CF29A4209D9FB1832
S3250800D10001F1FF3080F0EA809A4240F2E78002393B449A1AA3B2B2FBFEF00EFB102243EACB
S3250800D120024300FB0CFC9C4509D9FB1800F1FF3280F0D6809C4540F2D3803B44023840EA92
S3250800D1400140A3EB0C0300211DB1F3400022C5E90032BDE8F0878B4205D90DB1C5E900018B
S3250800D16000210846F5E7B3FA83F1002946D1734502D3824200F20581841A6EEB030201200F
S3250800D1809046002DE5D0C5E90048E2E7002A00F09080B2FA82F6002E40F0A4808A1A030C87
S3250800D1A04FEA174E80B2BCB20121B2FBFEFC0EFB1C2243EA024304FB0CF29A4207D9FB18D5
S3250800D1C00CF1FF3802D29A4200F2E080C4469B1AB3FBFEF20EFB123340EA034302FB04F4FB
S3250800D1E09C4207D9FB1802F1FF3002D29C4200F2CA8002461B1B42EA0C40A5E7C1F12006E6
S3250800D2008B4022FA06F71F430EFA01F420FA06F32EFA06FE4FEA1749234300FA01F81FFA73
S3250800D22087FCBEFBF9F01C0C09FB10EE44EA0E4400FB0CFEA64502FA01F209D93C1900F10A
S3250800D240FF3A80F09C80A64540F2998002383C44A4EB0E041FFA83FEB4FBF9F309FB1344DA
S3250800D2604EEA044403FB0CFCA44508D93C1903F1FF3E80F08280A4457FD9023B3C4443EA2D
S3250800D2800040A4EB0C04A0FB02EC64457346E14662D35FD05DB1B8EB030264EB090404FA1B
S3250800D2A006F622FA01F31E43CC40C5E9006400214FE7B1FBF2FC010C41EA0E4180B240EA01
S3250800D2C001423B4638463C46B846BE462026B1FBF7F1A2EB080241EA0C4166E7014618E7FE
S3250800D2E010462CE7C6F120022EFA02F3B740B14020FA02F24FEA174E0A43B3FBFEF8BCB2CE
S3250800D3000EFB1833110C41EA034108FB04F9B04089454FEA104380B23ED9791808F1FF3CC7
S3250800D32001D289451FD8A1EB0901B1FBFEF909FB04F80EFB191192B242EA0142424529D2A6
S3250800D340BA1809F1FF31C4D24245C2D2A9F102013A44BEE7F0459DD2BEEB02036CEB070C96
S3250800D3600138E14696E7A7EB09094944A8F1020CB1FBFEF909FB04F8DBE773467FE75046D0
S3250800D38066E70846FDE63B44023A33E7ACF1020C3B441CE749469CE7A1EB0901C446B1FBA1
S3250800D3A0FEF909FB04F8C4E7704700BF07B5064B01221A7100230093114602202CF03CF80D
S3250800D3C003B05DF804FB00BFF8160020044B1B78032B04D1034B1B790BB9FFF7E7BF70476D
S3250800D3E068720020F816002010B50E4C0E4B2478012140F201121A808C424FF000029A72C7
S3250800D4001A7142714281997059739A7309D0FF2480F8DC104FF6FF719C83A0F8DA109A7457
S3250800D420DA7110BD64920120F8160020F7B5584D584C95F81E39012B40F0A880026856491B
S3250800D44002F5005292F8C420013A062A0BD8DFE802F0044C547D4985870091F83E20012A78
S3250800D46047D10222A270026802F5805292F8E02D012A03D1E37C003B18BF012391F83F200A
S3250800D480012A75D1454AD27C002A71D1012B6FD1A378022B06D0E37A022B69D1404B9B78D8
S3250800D4A0012B65D102236370002300931A460121EC202BF0C1FF95F8F638022B5FD1637FEB
S3250800D4C0012B5CD1374B1B78013B012B57D8022323700121002300931A4608462BF0ACFF35
S3250800D4E003B0F0BDE27A022ABAE7E27C1AB9012262730122B6E7627BF5E782790AB9012212
S3250800D500827191F83E20012A15D102894FF6FF76B24201D0013202818679012EA3D1A77891
S3250800D52095F8F628012F0BD017F0FD0F00D1A670002A98D008E0002202810122827192E77F
S3250800D540012AF5D10222A2700222F7E795F8F628002ACED0013A012ACBD882E7E27BC2E7A9
S3250800D560114A567C16B901261674C2E7127CBAE701236370002300931A46022198E7002346
S3250800D580012020701A4600930221A7E7637C94E77C670020F816002000370020CC710020E9
S3250800D5A054820020687200206476002007B50A4A92F8F638032B0CD108494B794BB992F8FD
S3250800D5C01E29012A05D14A71ED20009311462BF033FF03B05DF804FB7C670020F8160020BE
S3250800D5E02DE9F0470646A84D56F8103B2A7BDFF8A88203F50053012A93F8C670044679D185
S3250800D60090F80490B9F1000F74D1FFF7CFFFFFF7DDFE85F80C9084F80E90CA224946304629
S3250800D62065F0B0FD98F83E3063712B7B2371A37BBB4240F20781226802F5005292F8C520B7
S3250800D640911E4A424A41EA70002032464FF6FF7CC1B28B4200F2F880218A48F6A0429142FC
S3250800D66002D9BB4240F209812B79012B00F00781236803F5005393F8C530022B40F0FF808E
S3250800D680A37BBB4200F2FB80804B1B78032B40F0F6807F4B1B78012B40F0F18063894FF667
S3250800D6A0FF72934201D0013363816B79012B00F0E880236803F5005393F8C530022B40F012
S3250800D6C0E080744B93F80B29012A40F0DA8093F8F628032A40F0D58093F8F038012B40F03F
S3250800D6E0D080A3894FF6FF72934201D00133A381BDE8F087AA79012A09D12046FFF756FFF7
S3250800D700FFF764FE0021A971A173CA2287E72A7A012A07D12046FFF749FFFFF757FE002341
S3250800D7202B727FE75B4991F81E99B9F1000F12D195F812A0BAF1010F0DD1FFF747FE84F8C9
S3250800D7400E90CA224946304665F01CFD85F81EA085F8129066E7AA7A012A04D1FFF736FEC9
S3250800D7600023AB725EE793F8C420013A052A3FF659AF01A050F822F091D70008B9D70008FD
S3250800D780EBD70008FFD7000825D60008D1D7000898F83E20002A7FF445AF6279012A7FF428
S3250800D7A041AF93F863320A2B3FF43CAF2046FFF7FDFEFFF70BFE35E7AB7B012B7FF432AFE0
S3250800D7C02046FFF7F3FEFFF701FE0023AB7329E72B7C012B4FF0000904D12046FFF7E6FE78
S3250800D7E0FFF7F4FD85F810901CE798F83E30012B7FF418AF6379002B7FF414AFD6E7A2898B
S3250800D800DC2A07D993F8C520022A03D12046FFF7CDFE07E76289642A7FF604AF93F8C5306E
S3250800D820022B7FF4FFAE91F80B39022B02D12046FFF7BCFEFFF7CAFDA37BFF2B1CBF013396
S3250800D840A373EFE60022FEE6BB4204D8118861451CBF0131118001300232F9E6718826F8B8
S3250800D860021B0132D1B28F42F8D807F108020021013B24F81210A373F6E60022F2E7002379
S3250800D88012E7002333E700BFF816002068720020DC7000207C6700200037002010B51A4B6D
S3250800D8A01A495A7D0B78022B27D042BB90F8DC30012B18D1036803F5005393F8C73080F823
S3250800D8C0DC20C3EB431403EB8403DB00A0F8DA30B0F8DA004FF47A73B0FBF3F30B7700B9C9
S3250800D8E001224A7710BDB0F8DA30642B86BF643BA0F8DA30A0F8DA20EAE7002AF0D0012331
S3250800D90080F8DC30ECE700BF74720020F816002010B50446FFF7C2FF2046FFF787FD2046A3
S3250800D920BDE81040FFF75CBE4FF6FF730380012383707047012907B50FD103884FF6FF72C5
S3250800D94093420DD001339BB21D2B038008D8002383701A460093022107E000230380F6E745
S3250800D9600023012181701A46009321202BF064FD03B05DF804FB000070B4154B0C4693F84B
S3250800D9802D10012922D1134B1B78022B1ED0124A958D138D5B1BA34204DBD38D568E9B1BC1
S3250800D9A09C4210DD538D5B1B002BB8BF5B429C420CDC138E528E9B1A002BB8BF5B429C42E0
S3250800D9C0CCBF0021012170BCFFF7B4BF0021FAE7941B002068720020E0710020FFF7CCBF19
S3250800D9E0012380F8C03600224FF6FF73A0F8C23680F8C426A0F8CC367047012911D1B0F8B7
S3250800DA00CC364FF6FF72934202D00133A0F8CC36B0F8CC36092B94BF0023012380F8C036E5
S3250800DA2070470023F2E70000F8B50D4604465BF057FA234B93F82D1001293AD1D4F8C8360A
S3250800DA40204AC31A934202D294F8C43673B91E4AC4F8C806A31E04F2BE6032F8026B23F89D
S3250800DA60026F8342F9D1012384F8C436174B16481E78002200F55B5730F802CB34F812307C
S3250800DA80A3EB0C03002BB8BF5B429BB2AB420AD3BB5C33B9A4F8C2262046BDE8F840FFF7C5
S3250800DAA0ACBF032EF6D10132B2F5587FE4D10021F2E7002384F8C436C4F8C806F7E700BFD5
S3250800DAC0941B002080EE3600C0A3002068720020FFF7AABF012383704FF6FF7303807047E1
S3250800DAE001290DD103884FF6FF72934201D0013303800388312B94BF002301238370704747
S3250800DB000023F5E7034B5B8D8B4294BF00210121FFF7E6BF18170020FFF7F4BF4FF6FF7315
S3250800DB2040F20222038043808280C380038142818381C381028243828382C28203767047A5
S3250800DB4038B505460846EB7A022B13D101F5805393F81E3E73B1EC88B4FBF3F4E4B2EB7DDF
S3250800DB60022B09D1698A01F00CFA844228BF04462C7638BDFF24F2E7FF20F6E7F0B5002556
S3250800DB802E46AC462C46AFB2BA420AD8DBB29C42A0F800C019D8003C18BF01240471867207
S3250800DBA0F0BD91F802E0BEF1000F02D00134A4B2BC4691F803E0BEF1010F01D11EB102262E
S3250800DBC001350431DFE7C780F9E70224E6E737B50579022D044627D143884FF6FF729342BB
S3250800DBE001D001336380A37A022B1FD123894FF6FF72934201D0013323812388628801334C
S3250800DC00092A88B2009313D900231A4601212BF013FC022523896571F92B94BF00230123D4
S3250800DC205B00E37203B030BD0023DBE70023E3E735B100231A4603212BF0FEFB0125E9E71D
S3250800DC402B462A4602212BF0F7FBE3E72DE9F04101F58056DFF84480B6F81A2E0D4600F1F3
S3250800DC600C0741460023FFF789FF044696F8283EB6F8182E08F540713846FFF77FFF204623
S3250800DC801E21FFF7A4FF38461F21FFF7A0FF29462046BDE8F041FFF753BF00BFC0BE00203B
S3250800DCA0054BC0F8C036002180F8C416182200F2CC6065F067BA00BF0101FFFFF8B5044661
S3250800DCC00D465BF00DF9D4F8C8361D49C31AB3F57A7F02D294F8C4366BB9C4F8C8060023B9
S3250800DCE051F8232044F823200133B3F5D87FF7D1012384F8C4366423114915FB03F500226B
S3250800DD00A61C16F8220034F92230B1F9007080B9887870B9DB1B002BB8BF5B421BB2AB4219
S3250800DD2005DB012384F8C136A4F8C226F8BD84F8C1060132B2F5D87F01F10401E1D1F5E72C
S3250800DD40C0C10020F0B53C4BB3F90E2002F5FA639BB244F268218B421DD8B0F8CE36A0F8A8
S3250800DD60CC36B0F8D036A0F8CE36B0F8D236A0F8D036B0F8D436A0F8D236B0F8D636A0F85D
S3250800DD80D436B0F8D836A0F8D636B0F8DA36A0F8D836A0F8DA26B0F9CC16002949D0B0F9A5
S3250800DDA0CE36002B42D0B0F9D036002B3ED0B0F9D236002B3AD0B0F9D436BBB3B0F9D63670
S3250800DDC0A3B3B0F9D8368BB3B0F9DA3673B390F8DD2690F8DEE690F8DFC690F8E07680F8B1
S3250800DDE0DC26724490F8E16690F8E25690F8E34680F8DDE662443A445B1A3244B3F5FA7FB2
S3250800DE002A44B4BF00230123224480F8E3361344042B80F8DEC680F8DF7680F8E06680F830
S3250800DE20E15680F8E246D4BF0023012380F8C036F0BD0B46FAE700BF5873002010B504461D
S3250800DE40FFF73CFF2046BDE81040FFF77BBF10B50446FFF725FF04F2E460FFF7C1FD04F6E7
S3250800DE60D250FFF761FD04F6B450FFF733FE04F6B850BDE81040FFF751BE38B50C46054673
S3250800DE80097FFFF7DBFFE18B05F2E460FFF720FE218C05F6D250FFF7A1FD618C05F6B45017
S3250800DEA0FFF73AFE214605F6B850BDE83840FFF7CDBE0000012370B580F87730144B03F55F
S3250800DEC0405203F5804300244FF6FF764FF0FF35C0E90A55C68482F8A44F83F8CA4583F8D2
S3250800DEE0CE457C3040F8044C00F8074CFFF7AFFF084B094AA3F80841A3F80E51A3F802417C
S3250800DF00C3F8F840C3F8FC2083F8006170BD00BFC0A30020181700200000FFFF164B5B884D
S3250800DF2042F2273293420AD990F82230FF2B02D0013380F82230002380F8233018E042F2A0
S3250800DF4033129342F7D80022B3F57A7F80F822200AD290F82320FF2A02D0013280F82320BD
S3250800DF60B3F5FA7F04D8704740F2DC529342E2D8002380F824307047E071002013B590F889
S3250800DF802230312B4FF05A03044600934FF000038CBF032102211A4637202BF04DFA94F8D3
S3250800DFA02330312B4FF00A0300934FF000038CBF032102211A4623202BF03EFA94F824301B
S3250800DFC0312B4FF0000300931A468CBF0321022124202BF031FA02B010BD08B5FFF79EFFB7
S3250800DFE0BDE80840FFF7CABF044B187020B9044A1278013A012A00D8587070471817002013
S3250800E00068720020012803D1054B83F86C007047044B1B7813B9024A82F86C30704700BF87
S3250800E0201817002068720020002270B513461446861C95B2A94204D86BB194FBF3F420B27B
S3250800E04070BD16F8225025B930F9225001332C449BB20132EDE71846F2E70000F0B5002494
S3250800E0600C4D2346264601F1020E9FB2BA4204D806808470C4708580F0BD1EF823C0BCF133
S3250800E080000F05D131F923C0AC45C4BF65463E460133EAE70080FFFFF0B50024234647F6EB
S3250800E0A0FF75264601F1020E9FB2BA4204D806808470C4708580F0BD1EF823C0BCF1000F32
S3250800E0C005D131F923C0AC45BCBF65463E460133EAE710B500221346023094B2A14203D839
S3250800E0E0181E18BF012010BD10F822400CB901339BB20132F1E70000F0B5026802F5005105
S3250800E100034691F8631208294DD902F58052D2F82C2E1279013A022A45D8244C94F8D82360
S3250800E120002A40D1428D4FF6FF718A4220D1012284F8CA2583F8792000225A8594F8CA1547
S3250800E140F9B91B4E0A464FF6FF77186800F580508DB290F8140EA84216D812B3012000227D
S3250800E16084F8CA0583F879005A8583F87800F0BD013292B2172A4285D9D890F87920002A58
S3250800E180DCD193F87800F0E716F8010F38B122B9A4F8C855013292B201E0BA42FAD10131FE
S3250800E1A0D3E783F879200020DFE700BFC0E3002043E10020F0B5026802F50051034691F8AE
S3250800E1C0631208294DD902F58052D2F82C2E1279032A46D1244C94F8D823002A41D1828D67
S3250800E1E04FF6FF718A4220D1012284F8CE2583F87B2000229A8594F8CE1501BB1B4E0A46D2
S3250800E2004FF6FF77186800F580508DB290F8140EA84217D81AB30120002284F8CE0583F854
S3250800E2207B009A8583F87A00F0BD013292B2B2F5877F8285D8D890F87B20002ADBD193F835
S3250800E2407A00EFE716F8010F38B122B9A4F8CC55013292B201E0BA42FAD10131D2E783F83C
S3250800E2607B200020DEE700BFC0E3002073E10020034B93F8CF050A2894BF002001207047F0
S3250800E280C0E30020F0B5036803F5005393F86322062A01D80020F0BD93F86832002BF9D152
S3250800E2A03D4D6A7B012A12D16A68C48C4FF47A714A436421B2FBF1F24FF6FF710E1B96422B
S3250800E2C086BFA418A2B20A46C28400226A73C28C4FF6FF718A42314917D1012281F8A02FAA
S3250800E2E00022C28491F8A02F2D4C012A15D180F8742094F8FF30FF2B0DD191F8A02F9AB154
S3250800E300038B022BC6D90D20C5E7013292B2462AC284E7D9E1E70133DBB284F8FF3090F813
S3250800E3207430002BECD0E8E703681E4D03F580534FF6FF7CB3F8167E134696B2B7421ED845
S3250800E3402BB1038B4FF6FF72934201D001330383B4F8FA304FF6FF7293421ABF01339BB274
S3250800E3600323A4F8FA30028B92B1022A01D9022B0ED8012380F8743081F8A03FC0E715F86E
S3250800E380016F1EB163451CBF01339BB20132D4E7002380F87430B3E7CC710020C0D3002055
S3250800E3A0181700207FDA002030B50368094A03F5805393F8144E002398B2844201D8002000
S3250800E3C005E012F8015F581C15B10B70142030BD0346F1E7D6E6002030B50368094A03F572
S3250800E3E0805393F8144E002398B2844201D8002005E012F8015F581C15B10B70152030BDFD
S3250800E4000346F1E706E70020F0B5024603682348234E01F6787501F6A87400EB840400EB37
S3250800E420850064684068B6F8647F84424FF6FF758CBF201A001B854228BF0546AF4238BF44
S3250800E440A6F8645F42F20F75AC4223D9126802F58052D2F82C2E1479042C06D140F2DC534F
S3250800E460984294BF00200120F0BD052C02D1B0F5FA6FF6E703F58053062404FB013191F8D5
S3250800E4803C1F03EB411393F85A1E5378994203D1FA28E6E70120E7E70020E5E7C0A3002007
S3250800E4A0C0D300202DE9F0410026044688463546236803F58053F7B293F8143EBB420ED8DC
S3250800E4C0EDB163685A1C18D0013364226360534340F6C412934210D80020BDE8F0813946D6
S3250800E4E02046FFF791FF012805D10135EDB2012D08BF88F800700136DAE71120EDE76560A7
S3250800E500EAE7000070B5134B134E586807EE900AF8EE677A17EE900AFEF77EF80F4B00229C
