S00B000077424D532D524D5877
S325080080000080012069640608D55B0608E15B0608E95B0608F15B0608F95B06080000000040
S3250800802000000000000000000000000041350608015C060800000000E1350608ED670608BD
S32508008040B9640608B9640608B9640608155C0608B9640608B9640608B9640608B964060866
S32508008060295C0608375C0608B9640608455C0608595C06086D5C0608815C0608955C060860
S32508008080A95C0608BD5C0608B9640608B9640608D15C0608E55C0608F95C06080D5D0608DD
S325080080A0B9640608315D0608455D0608B9640608B9640608595D0608B9640608B9640608CB
S325080080C0B9640608B9640608B96406086D5D0608815D0608955D0608A95D0608B96406080E
S325080080E0BD5D0608B9640608B9640608B9640608B9640608B9640608B9640608B96406081D
S32508008100B9640608D55D0608B9640608E95D0608B9640608B9640608FD5D0608B96406087E
S32508008120115E0608255E0608B9640608395E0608B9640608B9640608B9640608B9640608A7
S325080081404D5E0608615E0608B964060800000000755E0608895E0608B9640608B964060834
S32508008160B9640608B9640608B9640608B9640608B9640608B96406080000000000000000EF
S325080081809D5E0608B96406080000000000000000000000000000000000000000000000009D
S325080081A00000000000000000000000000000000000000000000000000000000000000000B1
S325080081C0000000000000000000000000000000000000000000000000000000000000000091
S325080081E0000000000000000000000000000000000000000000000000000000000000000071
S325080082000000000000000000000000000000000010B5054C237833B9044B13B10448AFF3B2
S3250800822000800123237010BD58130020000000003C1A070808B5034B1BB103490348AFF32C
S32508008240008008BD000000005C1300203C1A0708C0B2002820D0C0B201281DD0C0B2022829
S325080082601AD0C0B2032817D0C0B2042814D0C0B2052811D0C0B206280ED0C0B207280BD086
S32508008280C0B2082808D0C0B2092805D0C0B20A2802D0C0B20B2801D1012000E00020C0B25E
S325080082A0704738B546F2796401F028F8002848D00020DFF8001C0870002005000C2D20D2CB
S325080082C0DFF8F00BDFF8501A695C10EB8100DFF84C1AC163DFF8DC0BDFF83C1A695C10EB30
S325080082E08100DFF8D41B8167DFF8C80BDFF8281A695C10EB810041F61F61C0F8A8106D1C8D
S32508008300DCE7DFF8180ADFF8AC1BC866DFF8A80BDFF8A01BC1F8D800DFF8000ADFF8941BB3
S325080083200867DFF8940BDFF88C1BC1F8DC006821DFF8880B67F0B6FCDFF8781BC1F8E00038
S3250800834008E05FF0FF30DFF86C1BC1F8E0004AF6B5200400200080B232BD10B5040000216E
S32508008360200000F07BFF10BD10B504000121200000F074FF10BD10B504000221200000F061
S325080083806DFF10BD10B504000321200000F066FF10BD10B504000421200000F05FFF10BD3E
S325080083A010B504000521200000F058FF10BD10B504000621200000F051FF10BD10B50400A6
S325080083C00721200000F04AFF10BD10B504000821200000F043FF10BD10B50400092120001D
S325080083E000F03CFF10BD10B504000A21200000F035FF10BD10B504000B21200000F02EFF40
S3250800840010BD38B5040046F27965002C03D14AF6B520050033E0DFF89C0AD0F8E02068217F
S32508008420DFF8980A67F026FCDFF8941A884203D04AF6B520050022E0DFF8880ADFF8741A30
S32508008440C86603F0D7FBDFF86C1AC1F8D800DFF8640A0078002805D1DFF8580AD0F8D80099
S32508008460206003E0DFF84C0A406B20606821DFF84C0A67F017FCDFF83C1AC1F8E000280025
S3250800848080B232BD70B504000D0046F27966002C01D0002D03D14AF6B52006002FE0DFF861
S325080084A0140AD0F8E0206821DFF8100A67F0E2FBDFF80C1A884203D04AF6B52006001EE067
S325080084C0280003F0B9FBDFF8EC19C1F8D800DFF8E4090078002805D1DFF8D809D0F8D800C0
S325080084E0206003E0DFF8CC09406B20606821DFF8CC0967F0D7FBDFF8BC19C1F8E000300061
S3250800850080B270BD38B5040046F27965002C03D14AF6B52005002EE0DFF89809D0F8E0207F
S325080085206821DFF8980967F0A5FBDFF89419884203D04AF6B52005001DE003F0EFFBDFF849
S325080085407419C1F8D800DFF86C090078002805D1DFF86009D0F8D800206003E0DFF85409B6
S32508008560406B20606821DFF8540967F09BFBDFF84419C1F8E000280080B232BD38B5040011
S3250800858046F27965002C03D14AF6B52005002EE0DFF82009D0F8E0206821DFF8200967F0E7
S325080085A069FBDFF81C19884203D04AF6B52005001DE003F090FBDFF8FC18C1F8D800DFF8B8
S325080085C0F4080078002805D1DFF8E808D0F8D800206003E0DFF8DC08406B20606821DFF80B
S325080085E0DC0867F05FFBDFF8CC18C1F8E000280080B232BD38B5040046F27965002C03D134
S325080086004AF6B520050033E0DFF8A808D0F8E0206821DFF8A80867F02DFBDFF8A4188842E4
S3250800862003D04AF6B520050022E0DFF8F006DFF88418C86603F0EFFADFF87818C1F8D800FB
S32508008640DFF870080078002805D1DFF86808D0F8D800206003E0DFF85C08406B206068210E
S32508008660DFF8580867F01EFBDFF84818C1F8E000280080B232BD38B5040046F27965002CF9
S3250800868003D14AF6B520050033E0DFF82808D0F8E0206821DFF8240867F0ECFADFF8201824
S325080086A0884203D04AF6B520050022E0DFF81408DFF80018086703F015FCDFF8F817C1F8FF
S325080086C0DC00DFF8F0070078002805D1DFF8E407D0F8DC00206003E0DFF8D807806B206082
S325080086E06821DFF8D80767F0DDFADFF8C817C1F8E000280080B232BD70B504000D0046F2F9
S325080087007966002C01D0002D03D14AF6B52006002FE0DFF8A007D0F8E0206821DFF89C07FB
S3250800872067F0A8FADFF89817884203D04AF6B52006001EE0280003F0F8FBDFF87817C1F8C9
S32508008740DC00DFF870070078002805D1DFF86407D0F8DC00206003E0DFF85807806B206081
S325080087606821DFF8580767F09DFADFF84817C1F8E000300080B270BD38B5040046F27965D9
S32508008780002C03D14AF6B52005002EE0DFF82407D0F8E0206821DFF8240767F06BFADFF8BB
S325080087A02017884203D04AF6B52005001DE003F03CFCDFF80017C1F8DC00DFF8F8060078C5
S325080087C0002805D1DFF8EC06D0F8DC00206003E0DFF8E006806B20606821DFF8E00667F0F8
S325080087E061FADFF8D016C1F8E000280080B232BD38B5040046F27965002C03D14AF6B52055
S3250800880005002EE0DFF8AC06D0F8E0206821DFF8AC0667F02FFADFF8A816884203D04AF6E2
S32508008820B52005001DE003F0DDFBDFF88816C1F8DC00DFF880060078002805D1DFF874065A
S32508008840D0F8DC00206003E0DFF86806806B20606821DFF8680667F025FADFF85816C1F811
S32508008860E000280080B232BD38B5040046F27965002C03D14AF6B520050033E0DFF834067C
S32508008880D0F8E0206821DFF8340667F0F3F9DFF83016884203D04AF6B520050022E0DFF878
S325080088A07C04DFF81016086703F02EFBDFF80416C1F8DC00DFF8FC050078002805D1DFF8F7
S325080088C0F405D0F8DC00206003E0DFF8E805806B20606821DFF8E40567F0E4F9DFF8D4151E
S325080088E0C1F8E000280080B232BDF8B504000D0046F27966002C01D0002D03D14AF6B520A0
S32508008900060039E1686BDFF8BC15884205D0686BDFF80814884240F07F80286BDFF8A4152D
S32508008920884204D0286BDFF8F413884274D12868DFF89015884204D02868DFF8E01388423D
S325080089406AD16868DFF87C15884204D06868DFF8CC13884260D1A868DFF86815884204D075
S32508008960A868DFF8B813884256D1E868DFF85415884204D0E868DFF8A41388424CD12869C2
S32508008980DFF84015884204D02869DFF89013884242D16869DFF82C15884204D06869DFF8E8
S325080089A07C13884238D1A869DFF81815884204D0A869DFF8681388422ED1E869DFF8041527
S325080089C0884204D0E869DFF85413884224D1286ADFF8F014884204D0286ADFF8401388420C
S325080089E01AD1686ADFF8DC14884203D0686ACB49884211D1A86ADFF8CC14884203D0A86A3E
S32508008A00C649884208D1E86ADFF8B814884207D0E86AC249884203D04AF6B5200600ABE060
S32508008A20DFF89004D0F8E0206821DFF8900467F021F9DFF88C14884203D04AF6B520060061
S32508008A409AE0002007000C2F3BD2DFF86804B249795C10EB8100B049795C55F82110C16320
S32508008A60DFF85004AC49795C10EB8100DFF848148167DFF84004007800280BD1DFF83404B6
S32508008A80A549795C10EB8100806FA349795C44F821000AE0DFF81C049F49795C10EB810062
S32508008AA040689D49795C44F82100DFF808049A49795C10EB810041F61F61C0F8A8107F1C0F
S32508008AC0C1E7286BDFF8EC13C866DFF8E803C06EDFF8F013884206D103F08CF8DFF8D413A9
S32508008AE0C1F8D80005E003F096F8DFF8C813C1F8D800DFF8C0030078002805D1DFF8B40390
S32508008B00D0F8D800206303E0DFF8A803406B2063686BDFF8A0130867DFF89803006FDFF80D
S32508008B20A413884206D103F0DDF9DFF88813C1F8DC0005E003F0E8F9DFF87813C1F8DC004F
S32508008B40DFF870030078002805D1DFF86803D0F8DC00606303E0DFF85C03806B60630020B7
S32508008B60DFF8501348676821DFF8500367F09AF8DFF84013C1F8E000300080B2F2BD2DE978
S32508008B80F84F04000D0016001F0046F27968002C10D0002D06D1DFF81C03C06EDFF82413DF
S32508008BA0884207D0002E09D1C248006FDFF81413884203D14AF6B5208046A9E0BA46A06B7A
S32508008BC08346BAF1000F14D01FFA88F84AF6B52080450ED0DAF80400002802D0BBF1000F44
S32508008BE002D14AF6B5208046DAF80CA0DBF808B0E7E71FFA88F84AF6B520804500F0888077
S32508008C00AC48D0F8E0206821AC4867F033F8AC49884203D04AF6B520804679E000208146DE
S32508008C20B9F10C0F1FD2A348007800280CD1A148394919F8011010EB8100806F364919F880
S32508008C40011044F821000BE09A48334919F8011010EB81004068304919F8011044F8210011
S32508008C6019F10109DCE79348C06E9649884206D1280002F0E1FF8F49C1F8D80003E08E486A
S32508008C808C49C1F8D8008B480078002804D18948D0F8D800206302E08648406B2063854879
S32508008CA0006F8849884206D1300003F03EF98149C1F8DC0003E080487E49C1F8DC007D4840
S32508008CC00078002804D17B48D0F8DC00606302E07848806B6063774847677648406F8246F5
S32508008CE0A06B8346BAF1000F0BD0DAF80000CBF800007148CBF80400DAF80CA0DBF808B0DF
S32508008D00F0E768216D4866F0CDFF6A49C1F8E000404680B2BDE8F28FD0580708F9D50600D9
S32508008D202DE9F04182B0040046F27965002C03D14AF6B5200500B9E05E48406F0700A06B78
S32508008D408046002F0ED0ADB24AF6B520854209D0B8F1000F02D14AF6B5200500FF68D8F842
S32508008D600880EEE7ADB24AF6B520854200F09E805048D0F8E0206821504866F07BFF504955
S32508008D80884203D04AF6B52005008FE0002006000C2E3BD2474810EB8600C06B494988429B
S32508008DA019D141F61F600090DFF8E405315C684600F02EFA3F49DFF8D825B25C11EB820179
S32508008DC088673C48DFF8C815715C10EB81000099C0F8A81007E03748DFF8B415715C10EB3E
S32508008DE081003549816733480078002806D1314810EB8600806F44F8260005E02D4810EBEC
S32508008E008600406844F82600761CC1E72948C06E2C49884205D102F081FF2649C1F8D80054
S32508008E2003E025482349C1F8D80022480078002804D12048D0F8D800206302E01D48406B7B
S32508008E4020631C48006F1F49884205D103F0EDF81849C1F8DC0003E017481649C1F8DC00A2
S32508008E6014480078002804D11248D0F8DC00606302E01048806B60630E48406F0700A06B53
S32508008E808046002F0BD0B86879688847C8F804003868C8F80000FF68D8F80880F1E76821E0
S32508008EA0064866F0FFFE0349C1F8E000280080B2BDE8F68174130020FFFF0100EC130020E3
S32508008EC05D445100A2D7030070B5040046F27965002C03D14AF6B52005007EE1606B41F65C
S32508008EE0E171884214D0606BDFF8A81488420FD0606B4DF22D3188420AD0606BDFF8981403
S32508008F00884205D0606BDFF89414884240F03A81206B41F6E171884214D0206BDFF87414F9
S32508008F2088420FD0206B4DF22D3188420AD0206BDFF86414884205D0206BDFF86014884295
S32508008F4040F02081206841F6E171884214D02068DFF8401488420FD020684DF22D31884228
S32508008F600AD02068DFF83014884205D02068DFF82C14884240F00681606841F6E17188428C
S32508008F8014D06068DFF80C1488420FD060684DF22D3188420AD06068DFF8FC13884205D021
S32508008FA06068DFF8F813884240F0EC80A06841F6E171884214D0A068DFF8D81388420FD0E1
S32508008FC0A0684DF22D3188420AD0A068DFF8C813884205D0A068DFF8C413884240F0D280DF
S32508008FE0E06841F6E171884214D0E068DFF8A41388420FD0E0684DF22D3188420AD0E06894
S32508009000DFF89413884205D0E068DFF89013884240F0B880206941F6E171884214D02069E8
S32508009020DFF8701388420FD020694DF22D3188420AD02069DFF86013884205D02069DFF883
S325080090405C13884240F09E80606941F6E171884214D06069DFF83C1388420FD060694DF2DB
S325080090602D3188420AD06069DFF82C13884205D06069DFF82813884240F08480A06941F649
S32508009080E171884210D0A069C24988420CD0A0694DF22D31884207D0A069BF49884203D017
S325080090A0A069BE4988426DD1E06941F6E171884210D0E069B74988420CD0E0694DF22D3139
S325080090C0884207D0E069B449884203D0E069B349884257D1206A41F6E171884210D0206A80
S325080090E0AC4988420CD0206A4DF22D31884207D0206AA949884203D0206AA849884241D18F
S32508009100606A41F6E171884210D0606AA14988420CD0606A4DF22D31884207D0606A9E4931
S32508009120884203D0606A9D4988422BD1A06A41F6E171884210D0A06A964988420CD0A06A38
S325080091404DF22D31884207D0A06A9349884203D0A06A9249884215D1E06A41F6E17188420E
S3250800916014D0E06A8B49884210D0E06A4DF22D3188420BD0E06A8849884207D0E06A8749D3
S32508009180884203D04AF6B520050026E08448D0F8E0206821834866F06DFD8349884203D0F3
S325080091A04AF6B520050018E001207D490870002006000C2E0BD27A487549715C10EB81002A
S325080091C07349715C54F821104160761CF1E7206B73494863606B72498863280080B270BD86
S325080091E010B56F48D0F8E02068216E4866F042FD6D49884203D04AF6B520040005E00020D8
S325080092006749087046F279600400200080B210BD70B58CB004000D0068466449302267F06E
S3250800922061FB6846EDB250F825102000604AEDB212EBC50252689047060041F6E1708642E6
S3250800924009D120685A49EDB251F83510884202D04DF22D30060030000CB070BD70B504004E
S325080092600D0046F27966002C05D02800C0B2FEF7EFFF002803D14AF6B52006003BE048487C
S32508009280D0F8E0206821474866F0F4FC4649884203D04AF6B52006002DE041F61F60404907
S325080092A0EDB211EB8501C1F8A8002900C9B23C48EDB210EB8500A830FFF7AAFF3849EDB240
S325080092C011EB8501886736480078002806D13448EDB210EB8500806F206005E03048EDB214
S325080092E010EB85004068206068212E4866F0DAFC2B49C1F8E000300080B270BDF8B501241F
S32508009300002541F288362B48006810F4805007002848006850F48050264908605FF0FF3032
S32508009320254908600020254908600020244908605FF0FF3023490860234824490860204864
S32508009340006850F001001E4908606D1CAE4202D20020040003E000F03DF80028F5D0E4B28B
S32508009360002C08D01A481449086000F03EF8002801D100200400B7F5805F05D00D48006853
S3250800938030F480500B4908602000C0B2F2BD0000D0580708554B0100FFFF010076A90100D7
S325080093A074130020EC1300205D445100A0580708DC5807084810024000300240043002401B
S325080093C00830024010300240B71DC10414300240C2A507F40B490968C90702D5002108006D
S325080093E001E001210800C0B2704707490968074A914202D00021080001E001210800C0B2CE
S32508009400704700000830024000300240CDB5E8B52DE9F0479AB004000D0041F6E176DFF86F
S32508009420088168464149682267F05CFA4048854274D1002C72D0002007000D2F56D2012078
S32508009440814601208246BAF1210F1CD218F107084846694651F837108847814507D088F4B8
S32508009460F04898F067084DF22D3006000BE0314890EA08085FEA49095FEA59095FEA49093E
S325080094801AF1010ADFE741F6E170864222D17FF00100814601208246BAF1210F1AD218F1AF
S325080094A007084846694651F837108847814507D088F4F04898F067084DF22D30060009E020
S325080094C01C4890EA08085FEA490959F001091AF1010AE1E741F6E170864207D1684610EBF3
S325080094E0C700406890EA08087F1CA6E7206841F61F61884202D01048060011E0C4F80080D7
S325080095004DF22D30864203D020680C49884207D04DF22D3006000A48206001E006480600DF
S3250800952030001AB0BDE8F087D32C01003C5D07081E1456004B55010076A901008CA80E00D4
S325080095408CA8FEF02DE9F04182B004000D0041F6E1768C4800908C48854240F00E81002CD9
S3250800956000F00B810120070001208046B8F1210F19D20098C01D0090380068F0B1FA874285
S3250800958007D000988149484000904DF22D30060009E000987E49484000907F007F087F00E5
S325080095A018F10108E2E741F6E170864221D17FF00100070001208046B8F1210F19D20098C6
S325080095C0C01D0090380068F08BFA874207D000986E49484000904DF22D30060009E00098D1
S325080095E06B49484000907F0057F0010718F10108E2E741F6E170864203D1009865494840F6
S32508009600009041F6E170864240F08F80684668F0FBFB012803D04DF22D30060085E0684670
S3250800962068F07AFC012803D04DF22D3006007CE0684668F0F9FC012803D04DF22D300600BB
S3250800964073E0684668F07EFD012803D04DF22D3006006AE0684668F0FDFD012803D04DF205
S325080096602D30060061E0684668F07CFE012803D04DF22D30060058E0684668F001FF0128B3
S3250800968003D04DF22D3006004FE0684668F080FF012803D04DF22D30060046E0684668F0C9
S325080096A0FFFF012803D04DF22D3006003DE0684669F084F8012803D04DF22D30060034E0AE
S325080096C0684669F003F9012803D04DF22D3006002BE0684669F082F9012803D04DF22D30B6
S325080096E0060022E0684669F007FA012803D04DF22D30060019E0684669F086FA012803D032
S325080097004DF22D30060010E0684669F005FB012803D04DF22D30060007E0684669F084FB97
S32508009720012802D04DF22D30060041F6E17086420BD168F0E0F9012804D1009815494840A5
S32508009740009002E04DF22D300600206841F61F61884202D01048060011E0009820604DF266
S325080097602D30864203D020680C49884207D04DF22D3006000A48206001E00748060030008B
S32508009780BDE8F68162693400F3443000AD163000D90B30000DB2370076A9010031060600DF
S325080097A0310606FF2DE9F24FE4B0040041F6E175DFF8007803A8DFF80018102267F092F8E7
S325080097C06846DFF8F8170CC90CC00839083853A8DFF8EC17402267F085F84EA8DFF8E417F2
S325080097E0142267F07FF849A8DFF8DC17142267F079F843A8DFF8D417182267F073F83DA810
S32508009800DFF8CC17182267F06DF811A8DFF8C417102267F067F80DA8DFF8BC17102267F04F
S3250800982061F839A8DFF8B417102267F05BF835A8DFF8AC17102267F055F825A8402167F090
S3250800984053F81DA8DFF89C17202267F04BF815A8DFF89417202267F045F86498DFF88C17F9
S32508009860884240F0A183002C00F09E8366F038FA69F030FB0290029830F0F8600600300099
S3250800988069F02BFB16F0F860474000208046B8F1040F13D203A818F101010422B1FBF2F362
S325080098A003FB121350F8231003A850F8280069F017FB7840070018F10108E8E700208046F0
S325080098C0B8F1040F0FD21DA85FEA480110EB810041681DA850F8380069F002FB7840070007
S325080098E018F10108ECE700208046B8F1020F09D2684650F8280069F002FB7840070018F1BE
S325080099000108F2E700208046B8F1040F13D203A818F101010422B1FBF2F303FB121350F8F8
S32508009920231003A850F8280069F0F6FA7840070018F10108E8E700208046B8F1040F0FD25F
S3250800994015A85FEA480110EB8100416815A850F8380069F0E1FA7840070018F10108ECE770
S3250800996000208046B8F1020F09D2684650F8280069F0E1FA7840070018F10108F2E7DFF88B
S32508009980700669F0D8FA78400700DFF8680669F0D2FA7840070000208046B8F1080F1FD299
S325080099A053A85FEA480110EB8100416853A850F8380069F0CDFA7840070053A85FEA480100
S325080099C010EB8100426853A850F8381053A850F8380069F0CCFA7840070018F10108DCE79A
S325080099E000208046B8F1020F35D2684618F1010111F0010150F82120684650F82810684691
S32508009A0050F8280069F0C2FA78400700684618F1010111F0010150F82120684650F8281081
S32508009A20684650F8280069F0C0FA78400700684618F1010111F0010150F82120684650F8ED
S32508009A402810684650F8280069F0BEFA7840070018F10108C6E7DFF8A025DFF8A015DFF814
S32508009A60A00569F093FA78400700DFF89825DFF88C15DFF8940569F089FA78400700DFF8A0
S32508009A807825DFF87815DFF8840569F08EFA78400700DFF87025DFF86415DFF8740569F052
S32508009AA084FA78400700DFF85425DFF86815DFF8680569F089FA78400700DFF84825DFF8BD
S32508009AC03C15DFF8580569F07FFA7840070000208046B8F1020F24D2684618F1010111F012
S32508009AE0010150F82120684650F82810684650F8280069F078FA78400700684618F101013E
S32508009B0011F0010150F82120684650F82810684650F8280069F076FA7840070018F10108C5
S32508009B20D7E7DFF8D824DFF8EC14DFF8F40469F05AFA78400700DFF8CC24DFF8C014DFF82B
S32508009B40E40469F050FA78400700DFF8AC24DFF8AC14DFF8AC0469F055FA78400700DFF8AA
S32508009B60A424DFF89814DFF8A00469F04BFA7840070000208046B8F1020F24D2684618F167
S32508009B80010111F0010150F82120684650F82810684650F8280069F044FA784007006846D9
S32508009BA018F1010111F0010150F82120684650F82810684650F8280069F042FA7840070060
S32508009BC018F10108D7E7DFF83024DFF83014DFF83C0469F026FA78400700DFF82824DFF818
S32508009BE01C14DFF82C0469F01CFA78400700DFF80C24DFF82014DFF8200469F021FA7840B9
S32508009C000700DFF80024DFF8F413DFF8100469F017FA7840070000208046B8F1050F09D2C4
S32508009C204EA850F8280069F01AFA7840070018F10108F2E700208046B8F1030F0FD243A82C
S32508009C405FEA480110EB8100416843A850F8380069F012FA7840070018F10108ECE70020AB
S32508009C608046B8F1030F0FD23DA85FEA480110EB810041683DA850F8380069F0FDF978406C
S32508009C80070018F10108ECE756F44006300069F024F916F0F860474000208046B8F1050F0C
S32508009CA009D249A850F8280069F0F5F97840070018F10108F2E7029830F0F8600600300021
S32508009CC069F00BF916F0F860474000208046B8F1050F09D249A850F8280069F0DCF978406F
S32508009CE0070018F10108F2E75FF055325FF0AA31380069F049FB070000208046B8F1040FE6
S32508009D000FD239A850F828300DA850F8282011A850F82810380069F0CBF9070018F10108E7
S32508009D20ECE700208046B8F1030F0FD235A850F828300DA850F8282011A850F8281038008D
S32508009D4069F0CDF9070018F10108ECE740200C9000200B900DF194090B9A0C99484602F0CE
S32508009D6041FA25A9380069F0D1F9070040200A90002009900DF19409099A0A99484602F056
S32508009D8031FA25A9380069F059FA070040200890002007900DF19409079A0899484602F0C5
S32508009DA021FA25A9380069F06BFA07005FF040095FF0000A0DF1940B52464946584602F06A
S32508009DC011FA25A9380069F0B6FA070056F08066300069F082F816F0F8604740002080465A
S32508009DE0B8F1040F13D203A818F101010422B1FBF2F303FB121350F8231003A850F828008E
S32508009E0069F06EF87840070018F10108E8E700208046B8F1040F0FD21DA85FEA480110EB00
S32508009E20810041681DA850F8380069F059F87840070018F10108ECE700208046B8F1020FB7
S32508009E4009D2684650F8280069F059F87840070018F10108F2E700208046B8F1040F13D220
S32508009E6003A818F101010422B1FBF2F303FB121350F8231003A850F8280069F04DF8784058
S32508009E80070018F10108E8E700208046B8F1040F0FD215A85FEA480110EB8100416815A818
S32508009EA050F8380069F038F87840070018F10108ECE700208046B8F1020F35D2684618F189
S32508009EC0010111F0010150F82120684650F82810684650F8280069F059F878400700684683
S32508009EE018F1010111F0010150F82120684650F82810684650F8280069F057F8784007000A
S32508009F00684618F1010111F0010150F82120684650F82810684650F8280069F055F8784044
S32508009F20070018F10108C6E7334A3449344869F02DF878400700334A3049334869F026F8B2
S32508009F40784007002C4A2D49304869F02EF8784007002C4A29492E4869F027F878400700FD
S32508009F60264A2C492C4869F02FF878400700254A22492A4869F028F878400700029868F0C5
S32508009F80ACFF65F0C9FE206841F61F61884202D0254805000AE0276020682449884205D09A
S32508009FA04DF22D30050001E01F480500280065B0BDE8F08FBB8139002C5E07083C5E07088D
S32508009FC0445E0708845E0708985E0708AC5E0708C45E0708DC5E0708EC5E0708FC5E070877
S32508009FE00C5F07081C5F07083C5F0708DA365000555555D5AAAAAA2AC02083BF306215552B
S3250800A0007C32715420E94A946CDEE5AA7C3271D46CDEE52A7E08BB3FC0409E52D1ED5E2AFD
S3250800A020C0409ED2D1ED5EAA76A90100CE52C4552DE9F04798B004000D0041F6E176444FBC
S3250800A04068464449602266F04DFC4348854278D1002C76D00120814601208246BAF1210FDD
S3250800A06018D2FF1D484669F05BFB814507D087F4634797F0DC074DF22D3006000AE0374858
S3250800A08047405FEA49095FEA59095FEA49091AF1010AE3E741F6E17086421ED17FF00100BB
S3250800A0A0814601208246BAF1210F16D2FF1D484669F036FB814507D087F4634797F0DC07BF
S3250800A0C04DF22D30060008E0244847405FEA490959F001091AF1010AE5E741F6E1708642D5
S3250800A0E018D11F48474000208046B8F10C0F11D2684650F838008047012803D04DF22D3061
S3250800A100060007E0684610EBC8004068474018F10108EAE7206841F61F61884202D011488D
S3250800A120060010E027604DF22D30864203D020680D49884207D04DF22D3006000B48206069
S3250800A14001E008480600300018B0BDE8F08700BF24A95400BC5F0708027B0C000F311200C1
S3250800A160BDC8340076A9010021D90400599593F02DE9F047A0B004000D00DFF8A08641F6A7
S3250800A180E17904A8DFF89816102266F0ABFB6846DFF890160CC90CC00839083802A8DFF82A
S3250800A1A088160CC90CC008390838DFF880A618A8DFF87C16202266F095FB14A8DFF8741666
S3250800A1C0102266F08FFB0EA8DFF86C160CC90CC0083908380CA8DFF864160CC90CC0083947
S3250800A1E0083810A8DFF85816102266F07BFB0AA8DFF850160CC90CC00839083808A8DFF87E
S3250800A20048160CC90CC008390838DFF84006854240F0FD82002C00F0FA8200200600042E2D
S3250800A22011D23700042F0CD204A850F8271004A850F8260069F04AFB90EA080080467F1C1F
S3250800A240F0E7761CEBE700200600042E0ED218A8710010EB8100416818A850F8360069F090
S3250800A26035FB90EA08008046761CEEE700200600042E29D204A850F8260069F02FFB90EA87
S3250800A2800800804604A850F8260069F02FFB90EA0800804604A850F8260069F02FFB90EAE6
S3250800A2A00800804604A850F8260069F02FFB90EA0800804614A850F8260069F02FFB90EAB6
S3250800A2C008008046761CD3E700200600042E11D23700042F0CD204A850F8271004A850F8B4
S3250800A2E0260069F023FB90EA080080467F1CF0E7761CEBE700200600042E0AD204A850F86D
S3250800A3002610059869F012FB90EA08008046761CF2E700200600022E19D2684650F82600E6
S3250800A32069F00CFB90EA08008046684650F8260069F00CFB90EA080080460EA850F826007F
S3250800A34069F00CFB90EA08008046761CE3E700200600022E11D2684650F8260069F006FB3C
S3250800A36090EA080080460CA850F8260069F007FB90EA08008046761CEBE700200600022E08
S3250800A38011D23700022F0CD2684650F82710684650F8260069F0FCFA90EA080080467F1C0B
S3250800A3A0F0E7761CEBE700200600022E0ED210A8710010EB8100416810A850F8360069F041
S3250800A3C0E7FA90EA08008046761CEEE700200600022E11D23700022F0CD2684650F8271033
S3250800A3E0684650F8260069F0DBFA90EA080080467F1CF0E7761CEBE700200600022E0AD2B5
S3250800A40001210AA850F8260069F0CAFA90EA08008046761CF2E700200600022E11D2684635
S3250800A42050F8260069F0C4FA90EA08008046684650F8260069F0C5FA90EA08008046761C33
S3250800A440EBE7002069F0B4FA90EA08008046002069F0B7FA90EA0800804600200600022EE5
S3250800A46011D23700022F0CD2684650F82710684650F8260069F0AEFA90EA080080467F1C78
S3250800A480F0E7761CEBE700200600022E0BD2684650F826105FF0FF3069F09CFA90EA080025
S3250800A4A08046761CF1E700200600022E09D2684650F8260069F096FA90EA08008046761C4E
S3250800A4C0F3E700200600022E11D23700022F0CD2684650F82710684650F8260069F08BFAEE
S3250800A4E090EA080080467F1CF0E7761CEBE700200600022E0AD2684650F82610002069F059
S3250800A5007AFA90EA08008046761CF2E700200600022E09D2684650F8260069F074FA90EA78
S3250800A52008008046761CF3E700200600022E11D23700022F0CD2684650F82710684650F831
S3250800A540260069F069FA90EA080080467F1CF0E7761CEBE700200600022E0AD200216846EC
S3250800A56050F8260069F058FA90EA08008046761CF2E700200600022E11D2684650F82600AC
S3250800A58069F052FA90EA08008046684650F8260069F053FA90EA08008046761CEBE7002032
S3250800A5A00600022E09D2684650F8260069F04EFA90EA08008046761CF3E769F04FFA90EAEF
S3250800A5C00800804669F053FA90EA080080465146504669F055FA90EA08008046002006006E
S3250800A5E0022E09D202A850F8260069F055FA90EA08008046761CF3E700200600022E09D29D
S3250800A60002A850F8260069F04FFA90EA08008046761CF3E700200600022E09D202A850F89B
S3250800A620260069F049FA90EA08008046761CF3E700200600022E09D202A850F8260069F0F4
S3250800A64043FA90EA08008046761CF3E700200600022E11D2684650F8260069F03DFA90EA9C
S3250800A66008008046684650F8260069F03EFA90EA08008046761CEBE7089869F02DFA90EA0B
S3250800A68008008046099869F030FA90EA0800804669F034FA90EA0800804600200600022E4D
S3250800A6A031D2684650F8260069F037FA90EA08008046684650F8260069F038FA90EA080072
S3250800A6C08046684650F8260069F039FA90EA08008046684650F8260069F03AFA90EA08008B
S3250800A6E08046684650F8260069F03BFA90EA08008046684650F8260069F03CFA90EA080067
S3250800A7008046761CCBE7002069F02BFA90EA08008046002069F02EFA90EA08008046002032
S3250800A7200600022E0FD26846711C11F0010150F82110684650F8260069F025FA90EA080027
S3250800A7408046761CEDE700200600022E11D202A850F8260069F020FA90EA0800804602A809
S3250800A76050F8260069F025FA90EA08008046761CEBE700200600022E19D2684650F82600DC
S3250800A78069F024FA90EA08008046684650F8260069F025FA90EA08008046684650F82600F4
S3250800A7A069F026FA90EA08008046761CE3E700200600022E19D2684650F8260069F021FA9D
S3250800A7C090EA08008046684650F8260069F022FA90EA08008046684650F8260069F023FAB8
S3250800A7E090EA08008046761CE3E7206841F61F61884202D0164881460BE0C4F800802068F8
S3250800A8001449884205D04DF22D30814601E010488146484620B0BDE8F08700BFAFA303003D
S3250800A8201C6007082C600708346007083712DEBC3C6007085C6007086C600708746007082A
S3250800A8407C6007088C60070894600708621E560076A901005841FC7F2DE9F047D4B0040022
S3250800A8600D0041F6E176DFF8A48214A8A8494FF4807266F037F802A8A6490CC90CC0083950
S3250800A88008386846A4490CC90CC00839083804A8A249402266F026F8A148854240F02F81B0
S3250800A8A0002C00F02C8100200700082F1DD214A850F83700814614A8790010EB8100406819
S3250800A8C0824642465146484669F004FA804642465146484669F0B0F98046424651464846B6
S3250800A8E069F0D6F980467F1CDFE700200700082F1FD214A8790010EB8100006C814614A80C
S3250800A900790010EB8100406C824642465146484669F0EFF9804642465146484669F09BF972
S3250800A920804642465146484669F0B2F980467F1CDDE700200700082F21D214A8790010EBEC
S3250800A9408100D0F88000814614A8790010EB8100D0F88400824642465146484669F0DDF9B8
S3250800A960804642465146484669F084F9804642465146484669F08CF980467F1CDBE70020EC
S3250800A9800700082F1BD214A8790010EB8100D0F8C000814614A8790010EB8100D0F8C40041
S3250800A9A0824642465146484669F0CAF9804642465146484669F06CF980467F1CE1E700207E
S3250800A9C00700002F0ED16846790010EB81004168684650F8370069F05FF990EA08008046E2
S3250800A9E07F1CEEE700200700002F23D102A850F83700814602A8790010EB81004068824690
S3250800AA0042465146484669F04AF9804642465146484669F049F9804642465146484669F005
S3250800AA2048F9804642465146484669F047F980467F1CD9E742465FF0AA31012069F02FF946
S3250800AA408046424637497FF0004069F028F9804642465FF05531012069F021F980464246EC
S3250800AA6031497FF0004069F01AF9804642462F49012069F01EF9804642462B49012069F0A0
S3250800AA8018F9804642462A49012069F012F9804642465FF05531012069F00BF980460020CA
S3250800AAA00700082F19D204A850F83700814604A8790010EB8100406882465146484669F0DE
S3250800AAC002F990EA080080465146484669F0FEF890EA080080467F1CE3E7206841F61F61C5
S3250800AAE0884202D0134806000BE0C4F8008020681149884205D04DF22D30060001E00D48CB
S3250800AB000600300054B0BDE8F08700BF2BF907009C6007089C610708A4610708AC610708A0
S3250800AB20AD2F560056555555ABAAAAAAA9AAAAAA5455555576A90100A7D698C02DE9F24F91
S3250800AB4098B0040041F6E175744F14A87449102265F0C8FE10A87349102265F0C3FE0CA815
S3250800AB607149102265F0BEFE08A87049102265F0B9FE04A86E49102265F0B4FE68466D4923
S3250800AB80102265F0AFFEDFF8B081DFF8B091DFF8B0A1DFF8B0B118986B49884240F0B8805D
S3250800ABA0002C00F0B58000200600042E0ED20CA850F8263010A850F8262014A850F826102C
S3250800ABC0380069F0D1F80700761CEEE700200600042E0ED2684650F8263004A850F82620E1
S3250800ABE008A850F82610380069F0CEF80700761CEEE7380069F0D8F807004246494638009D
S3250800AC0069F01CF9070042464946380069F0AFFB070042464946380069F0B2FB0700424674
S3250800AC204946380069F0BBFB070052465946380069F0C6FB070052465946380069F0CCFB0A
S3250800AC40070042484249401A40084249487042483F49401A40083F49887040483C49401A4A
S3250800AC6040083C49C8703E483949401A4008394908713C483649401A40083649487100201F
S3250800AC800600062E08D25B4652463100380069F0AFFB0700761CF4E733483449401A4008DF
S3250800ACA03349488033483149401A40083049888031482E49401A40082D49C8802F482B49EF
S3250800ACC0401A40082A4908812D482849401A40082749488100200600062E08D25B4652469A
S3250800ACE03100380069F0A7FB0700761CF4E7206841F61F61884202D0224805000AE02760B3
S3250800AD0020682149884205D04DF22D30050001E01C480500280019B0BDE8F08F61520700DA
S3250800AD20EC610708FC6107080C6207081C6207082C6207083C62070811525A008D7D3B00E7
S3250800AD40563C3E004F620A00C751560005440708FD430708581400200D44070815440708F1
S3250800AD601D440708254407084B4407084344070860140020534407085B440708634407080B
S3250800AD806B44070876A901004C2807702DE9F24FA0B0040041F6E1755D4E10A8402165F08B
S3250800ADA0A3FD20985B49884240F0AB80002C00F0A88040200F9000200E9010AF0E9A0F9954
S3250800ADC0380001F00FFA10A9300069F05BFB060040200D9000200C9010AF0C9A0D99380099
S3250800ADE001F000FA10A9300069F08EFB060040200B9000200A9010AF0A9A0B99380001F0A4
S3250800AE00F1F910A9300069F001FC0600402009900020089010AF089A0999380001F0E2F93D
S3250800AE2010A9300069F014FC0600402007900020069010AF069A0799380001F0D3F910A952
S3250800AE40300069F015FC0600402005900020049010AF049A0599380001F0C4F910A93000D1
S3250800AE6069F016FC0600402003900020029010AF029A0399380001F0B5F910A9300069F09E
S3250800AE8017FC0600402001900020009010AF009A0199380001F0A6F910A9300069F018FCD9
S3250800AEA0060040275FF000080DF1400942463900484601F097F910A9300069F02BFC06003A
S3250800AEC05FF040095FF0000A0DF1400B52464946584601F087F910A9300069F04DFC060063
S3250800AEE0206841F61F61884202D00B4805000AE0266020680949884205D04DF22D30050087
S3250800AF0001E005480500280021B0BDE8F08F00BF59ED05002198570076A901000449FAFF53
S3250800AF202DE9F24F92B0040041F6E175DFF854820DA89549102265F0D5FC09A89349102282
S3250800AF4065F0D0FC07A892490CC90CC0083908380920049068468F490CC90CC008390838B1
S3250800AF60DFF834928D4803908D480290DFF834A2DFF834B205A88D490CC90CC00839083848
S3250800AF8012988B49884240F0F780002C00F0F48000200600022E12D200200700042F0CD2B2
S3250800AFA00DA850F82710684650F8260069F0F4FB90EA080080467F1CF0E7761CEAE70020AE
S3250800AFC00600022E12D200200700042F0CD209A850F82710684650F8260069F0DFFB90EA18
S3250800AFE0080080467F1CF0E7761CEAE700200600022E12D200200700022F0CD207A850F839
S3250800B0002710684650F8260069F0CAFB90EA080080467F1CF0E7761CEAE7484669F0C2FBF0
S3250800B02090EA080080460499484669F0BDFB90EA08008046484669F0B9FB90EA0800804653
S3250800B040484669F0B5FB90EA0800804600200600022E09D2684650F8260069F0ABFB90EA3D
S3250800B06008008046761CF3E7039869F0A3FB90EA08008046029869F09FFB90EA08008046D9
S3250800B080504669F09BFB90EA08008046404669F097FB8046584669F0C5FC90EA080080469E
S3250800B0A000200600022E21D2684650F8260069F0BCFC90EA08008046684650F8260069F04F
S3250800B0C0B7FC90EA08008046684650F8260069F0B2FC90EA08008046684650F8260069F087
S3250800B0E0ADFC90EA08008046761CDBE700200600022E21D2684650F8260069F0A2FC90EA27
S3250800B10008008046684650F8260069F09DFC90EA08008046684650F8260069F098FC90EA7A
S3250800B12008008046684650F8260069F093FC90EA08008046761CDBE700200600022E09D262
S3250800B14005A850F8260069F088FC90EA08008046761CF3E7206841F61F61884202D01548FD
S3250800B16005000BE0C4F8008020681349884205D04DF22D30050001E00E480500280013B04A
S3250800B180BDE8F08F7A3D04009C620708AC620708BC620708C46207083712DEBCF67EC3FA22
S3250800B1A0F17EC3FAF37EC3FAF17EC3AACC6207081AF2570076A9010012CCFF9FF8B504005E
S3250800B1C00D0041F6E176104F1048854217D1002C15D0380069F044FC0700206841F61F6138
S3250800B1E0884202D00A4806000BE02760206841F23621884205D04DF22D30060001E004485B
S3250800B20006003000F2BD00BFF6620300BC38580076A90100F8B504000D0041F6E1762F4FEB
S3250800B2202F48854256D1002C54D0380069F028FC0700380069F067FC0700380069F0CAFC3D
S3250800B2400700380069F0F5FC0700380069F01CFD0700380069F04DFD0700380069F06DFDC2
S3250800B2600700380069F097FD0700380069F0B7FD0700380069F0E6FD0700380069F006FE31
S3250800B2800700380069F024FE0700380069F046FE0700380069F068FE0700380069F093FEE3
S3250800B2A00700380069F0BEFE0700380069F0F3FE0700206841F61F61884202D0094806006A
S3250800B2C00AE0276020680849884205D04DF22D30060001E0034806003000F2BDA47B0100A4
S3250800B2E074E7580076A901001CE9324B2DE9F043E1B004000D0041F6E177DFF8B8886846AC
S3250800B300DFF8B4184FF4C07265F0ECFADFF8AC08854240F04984002C00F046840020060071
S3250800B320062E59D20F2000FB06F08146684610EB89008268684610EB89004168684650F8CC
S3250800B340290069F0FBFE90EA08008046684610EB89004269684610EB89000169684610EBFA
S3250800B3608900C06869F0EDFE90EA08008046684610EB8900026A684610EB8900C1696846DA
S3250800B38010EB8900806969F0E4FE90EA08008046684610EB8900C26A684610EB8900816A34
S3250800B3A0684610EB8900406A69F0DDFE90EA08008046684610EB8900826B684610EB8900D6
S3250800B3C0416B684610EB8900006B69F0D6FE90EA08008046761CA3E75A208146684610EB9B
S3250800B3E089008268684610EB89004168684650F8290069F0A3FE90EA08008046684610EBE7
S3250800B40089004269684610EB89000169684610EB8900C06869F095FE90EA080080460020A0
S3250800B4200600202E15D2032000FB06F08146684610EB89008268684610EB89004168684643
S3250800B44050F8290069F0A1FE90EA08008046761CE7E700200600022E4DD2DFF8640750F8CE
S3250800B4602620DFF85C07711C11F0010150F82110DFF84C0750F8260069F087FE90EA08003D
S3250800B4808046DFF83C0750F82620DFF83407711C11F0010150F82110DFF8240750F82600A5
S3250800B4A069F076FE90EA08008046DFF8140750F82620DFF80C07711C11F0010150F82110F6
S3250800B4C0DFF8FC0650F8260069F065FE90EA08008046DFF8EC06711C11F0010150F8211041
S3250800B4E0DFF8DC0650F8260069F058FE90EA08008046761CAFE7DFF8CC265FF05531012039
S3250800B50069F043FE90EA08008046DFF8BC265FF05531012069F039FE90EA080080465FF065
S3250800B520AA320021002069F033FE90EA080080465FF055320021002069F02AFE90EA0800F4
S3250800B54080465FF055317FF0004069F027FE90EA080080465FF0AA317FF0004069F01EFE7F
S3250800B56090EA08008046404669F01BFE8046404669F045FE804600200600022E80F0C480C5
S3250800B580DFF83C0650F82620DFF83406711C11F0010150F82110DFF8280650F8260069F010
S3250800B5A05EFE90EA08008046DFF8140650F82620DFF80C06711C11F0010150F82110DFF891
S3250800B5C0000650F8260069F04DFE90EA08008046DFF8EC05711C11F0010150F82110DFF855
S3250800B5E0E00550F8260069F040FE90EA08008046DFF8CC05711C11F0010150F82110DFF883
S3250800B600C00550F8260069F033FE90EA08008046DFF8AC05711C11F0010150F82110DFF8AF
S3250800B620A00550F8260069F026FE90EA08008046DFF88C05711C11F0010150F82110DFF8DC
S3250800B640800550F8260069F019FE90EA08008046DFF86C0550F82620DFF86405711C11F08D
S3250800B660010150F82110DFF8580550F8260069F008FE90EA08008046DFF84405711C11F04A
S3250800B680010150F82110DFF8380550F8260069F0FBFD90EA08008046DFF8240550F8260098
S3250800B6A069F006FE90EA08008046DFF8140550F8260069F000FE90EA08008046DFF80005FE
S3250800B6C050F8260069F0FAFD90EA08008046DFF8F00450F8260069F0F4FD90EA080080468B
S3250800B6E0DFF8DC0450F8260069F0EEFD90EA08008046DFF8CC0450F8260069F0E8FD90EABE
S3250800B70008008046761C38E7404669F0C0FD8046DFF8B8244AF6AA21012069F0A0FD90EAEB
S3250800B72008008046DFF8A82445F25551012069F096FD90EA08008046DFF89024DFF894144E
S3250800B740012069F08FFD90EA08008046DFF88024DFF87C14012069F085FD90EA0800804667
S3250800B76048F201014AF6AA2069F07FFD90EA0800804648F2010145F2555069F076FD90EAFA
S3250800B78008008046DFF85014DFF8480469F070FD90EA08008046DFF84014DFF8340469F0CE
S3250800B7A067FD90EA080080465FF480315FF0AA3069F061FD90EA080080465FF480315FF050
S3250800B7C0553069F058FD90EA0800804601215FF0AA3069F053FD90EA0800804601215FF033
S3250800B7E0553069F04BFD90EA08008046DFF8DC23DFF8E0135FF4803069F043FD90EA08000F
S3250800B8008046DFF8CC23DFF8C8135FF4803069F038FD90EA080080465FF080215FF0AA30EA
S3250800B82069F032FD90EA080080465FF080215FF0553069F029FD90EA08008046DFF89C0329
S3250800B84069F036FD90EA080080465FF0553069F02FFD90EA08008046E14869F032FD90EA3A
S3250800B860080080465FF0553069F02BFD90EA0800804600200600022E68D2D148711C11F018
S3250800B880010150F82110CE4850F8260069F022FD90EA08008046CA48711C11F0010150F8F1
S3250800B8A02110C74850F8260069F017FD90EA08008046C348711C11F0010150F82110C048FB
S3250800B8C050F8260069F00CFD90EA08008046BC4850F8260069F007FD90EA08008046B8482B
S3250800B8E050F8260069F001FD90EA08008046B448711C11F0010150F82110B14850F82600C1
S3250800B90069F0F5FC90EA08008046AD48711C11F0010150F82110AA4850F8260069F0EAFCEA
S3250800B92090EA08008046A64850F82620A448711C11F0010150F82110A14850F8260069F090
S3250800B940DCFC90EA08008046761C94E700215FF0AA3069F0BFFC90EA0800804600215FF096
S3250800B960553069F0B7FC90EA0800804600215FF0AA3069F0B2FC90EA0800804600215FF0D7
S3250800B980553069F0AAFC90EA080080464AF6AA21904869F0A5FC90EA0800804645F25551CB
S3250800B9A08B4869F09DFC90EA080080465FF0AA3069F099FC90EA080080465FF0553069F0E0
S3250800B9C092FC90EA080080465FF0AA3069F08DFC90EA080080465FF0553069F086FC90EA07
S3250800B9E00800804600215FF0AA3069F080FC90EA0800804600215FF0553069F078FC90EAC8
S3250800BA000800804600215FF0553069F073FC90EA080080466F494AF6AA2069F06BFC90EA49
S3250800BA20080080466F4A0021AA2069F066FC90EA080080466C4A0021552069F05EFC90EA0A
S3250800BA400800804600200600022E47D25C48711C11F0010150F82110594850F8260069F086
S3250800BA604FFC90EA080080465548711C11F0010150F82110524850F8260069F044FC90EA64
S3250800BA80080080464E48711C11F0010150F821104B4850F8260069F039FC90EA0800804654
S3250800BAA04748711C11F0010150F82110444850F8260069F02EFC90EA080080464048711C06
S3250800BAC011F0010150F821103D4850F8260069F023FC90EA08008046761CB5E700215FF08B
S3250800BAE0AA3069F00DFC90EA0800804600215FF0553069F005FC90EA0800804600215FF0AD
S3250800BB00AA3069F000FC90EA0800804600215FF0553069F0F8FB90EA0800804600215FF0A7
S3250800BB20AA3069F0F3FB90EA0800804600215FF0553069F0EBFB90EA0800804600215FF0A2
S3250800BB40AA3069F0E6FB90EA0800804600215FF0553069F0DEFB90EA0800804600215FF09C
S3250800BB60553069F0D9FB90EA0800804600215FF0AA3069F0D1FB90EA08008046404669F027
S3250800BB80D3FB8046206841F61F61884202D0174807000BE0C4F8008020681549884205D016
S3250800BBA04DF22D30070001E010480700380061B0BDE8F083181539002C6307089F04350057
S3250800BBC0AC650708ABAAAAAA565555550000ABAA000055550000AAAA00000180AAAAAA0A5D
S3250800BBE0AA2AAA2A00AAAAAA0055555576A9010086CF4DC70020B54908600020B3494860BF
S3250800BC000020B24988600020B04908730120AF494873AF4870470020AC4908600020AB496C
S3250800BC2048600020A94988600020A84908730020A6494873A648704730B40100A448A34B9A
S3250800BC405B7B012B02D0A34B180042E0002902D00B68002B02D19F4B18003AE00B681A00C5
S3250800BC6013689D4C24681B1B4FF48064B3FBF4F505FB1435002D01D0964B1800136854685B
S3250800BC80A34201D3934B180053685B1C14681B1B0424B3FBF4F505FB1435002D01D08D4B25
S3250800BCA018009268002A02D08A4B9842D8D1884B98420ED1854B19600B68844C63600B68C2
S3250800BCC01B68824CA3600023804C237302237F4C637330BC70477E487C49497B022902D0C8
S3250800BCE07C49080019E079490968002904D0774909680968002902D1764908000DE0734932
S3250800BD0009680968714A516070490968096809686E4A916000216D4A1173704710B56C4C82
S3250800BD206A48407B022802D06A4804001BE067480068002807D065488068002803D063488A
S3250800BD404068002802D1634804000CE003205F4948735E48007B002802D100F006F8040003
S3250800BD6002205A494873200010BD2DE9F84300245648006840684FF4807101FB00F563F0AD
S3250800BD8029FF5648006855490968491C524A1268891A8900B0EB9120401C07004B48806887
S3250800BDA04D490968401A4FF48061B0FBF1F202FB1102002A02D04748060065E04348406849
S3250800BDC04068401C41498968401AB0F5806F09D23E4840684068401C3C498968401A800883
S3250800BDE0814602E04FF480708146B9F1000F02D13848060048E03548806837490968401AA8
S3250800BE00800A57F820008046424649462F48806800F049F806003248864235D119EB040454
S3250800BE202A48806810EB8900284949684968491C884206D22548806810EB8900234988600F
S3250800BE4022E02248806810EB8900204949684968491C884216D11D484068806800280AD024
S3250800BE601A4840688068194948601848406800681649886008E001201449087341F6E17098
S3250800BE80060001E0134806001048007B002805D1AC4203D2124886423FF480AF63F0BAFE29
S3250800BEA03000BDE8F283F8B504000D0016002900200063F0D1FE864203D04DF22D300700AD
S3250800BEC001E0074807003800F2BD000070140020FFFF010076A90100F4120020F01200202B
S3250800BEE0554B01000020DFF8E41208600020B74948600020B54988600020B44908730120B7
S3250800BF00B2494873B24870470020B04908600020AE4948600020AD4988600020AB490873DF
S3250800BF200020AA494873AA48704730B40100A848A64B5B7B012B02D0A64B180050E0002980
S3250800BF4002D00B68002B02D1A24B180048E00B681A0053685B1C14681B1B2024B3FBF4F517
S3250800BF6005FB1435002D01D09A4B180013685468A34201D3974B1800974B1B68002B17D00E
S3250800BF80954B1B681468A34204D35368924C2468A3420BD2904B1B681F331468A34207D326
S3250800BFA053688D4C24681F34A34201D3894B18009268002A02D0874B9842CAD1844B984275
S3250800BFC00ED1824B19600B68804C63600B681B687E4CA36000237D4C237302237B4C637325
S3250800BFE030BC70477A487949497B022902D07949080019E075490968002904D0734909682F
S3250800C0000968002902D1734908000DE06F49096809686E4A51606D490968096809686B4A33
S3250800C02091600021694A1173704710B5684C6748407B022802D0674804001BE06348006852
S3250800C040002807D061488068002803D05F484068002802D15F4804000CE003205B494873E4
S3250800C0605A48007B002802D100F006F80400022056494873200010BD2DE9F0410024574E2F
S3250800C080524800684068470163F01AFE5FF055315148006869F08FFB050063F019FE012DDF
S3250800C0A002D14F48804602E04DF22D3080464C48804540F082800B36444880684349496881
S3250800C0C0096888420DD163F0FBFD5FF05532424801683E48806869F0D0FA050063F0F8FD47
S3250800C0E023E03A4880681030384949684968491C88420DD163F0E4FD5FF0553236480168A4
S3250800C1003248806869F008FB050063F0E1FD0CE063F0D6FD5FF055322F4801682B488068FA
S3250800C12069F05AFA050063F0D3FD012D02D12C48804602E04DF22D3080462948804531D165
S3250800C140241D224880681030204949684968491C884205D21D48806810301C49886021E052
S3250800C1601A4880681030194949684968491C884216D116484068806800280AD0134840685A
S3250800C1808068124948601148406800680F49886008E001200D49087341F6E170804601E0F4
S3250800C1A00C4880460B3E0948007B002805D1BC4203D20B4880453FF47EAF0848864201D010
S3250800C1C0044880464046BDE8F081000080140020FFFF010076A90100EC120020D241290076
S3250800C1E0554B010070B4840746D04C1E002941D0D5B2034602E0611EE4B30C4603F8015BB6
S3250800C2009907F8D1032C2ED9D5B245EA05250F2C45EA054519D9264603F11001103E0F2EEF
S3250800C22041F8105C41F80C5C41F8085C41F8045C01F11001F2D8A4F1100121F00F0104F0EC
S3250800C2400F041031032C0B440DD91E4621460439032946F8045BFAD8211F21F003010431EB
S3250800C2600B4404F003042CB1D2B21C4403F8012BA342FBD170BC70470C460346C2E703465D
S3250800C28013F8012B002AFBD1181A01387047000001F0FF01102A2BDB10F0070F08D010F81A
S3250800C2A0013B013A8B422DD010F0070F42B3F6D1F0B441EA012141EA014122F007047FF073
S3250800C2C000070023F0E80256083C85EA010586EA010685FA47F5A3FA87F586FA47F6A5FA96
S3250800C2E087F68EB9EED1F0BC01F0FF0102F0070232B110F8013B013A83EA010313B1F8D1B5
S3250800C3000020704701387047002D06BF35460338073815F0010F07D1013015F4807F02BF7A
S3250800C320013015F4C03F0130F0BC0138704700BF81F0004102E000BF83F0004330B54FEA03
S3250800C34041044FEA430594EA050F08BF90EA020F1FBF54EA000C55EA020C7FEA645C7FEA1E
S3250800C360655C00F0E2804FEA5454D4EB5555B8BF6D420CDD2C4480EA020281EA030382EA88
S3250800C380000083EA010180EA020281EA0303362D88BF30BD11F0004F4FEA01314FF4801C10
S3250800C3A04CEA113102D0404261EB410113F0004F4FEA03334CEA133302D0524263EB4303DE
S3250800C3C094EA050F00F0A780A4F10104D5F1200E0DDB02FA0EFC22FA05F2801841F100014C
S3250800C3E003FA0EF2801843FA05F359410EE0A5F120050EF1200E012A03FA0EFC28BF4CF0A0
S3250800C400020C43FA05F3C01851EBE37101F0004507D54FF0000EDCF1000C7EEB00006EEB69
S3250800C4200101B1F5801F1BD3B1F5001F0CD349085FEA30004FEA3C0C04F101044FEA445201
S3250800C44012F5800F80F09A80BCF1004F08BF5FEA500C50F1000041EB045141EA050130BD66
S3250800C4605FEA4C0C404141EB0101013C28BFB1F5801FE9D291F0000F04BF01460020B1FAD5
S3250800C48081F308BF2033A3F10B03B3F120020CDA0C3208DD02F1140CC2F10C0201FA0CF0C4
S3250800C4A021FA02F10CE002F11402D8BFC2F1200C01FA02F120FA0CFCDCBF41EA0C01904042
S3250800C4C0E41AA2BF01EB0451294330BD6FEA04041F3C1CDA0C340EDC04F11404C4F1200295
S3250800C4E020FA04F001FA02F340EA030021FA04F345EA030130BDC4F10C04C4F1200220FA1B
S3250800C50002F001FA04F340EA0300294630BD21FA04F0294630BD94F0000F83F4801306BFD3
S3250800C52081F480110134013D4EE77FEA645C18BF7FEA655C29D094EA050F08BF90EA020F38
S3250800C54005D054EA000C04BF1946104630BD91EA030F1EBF0021002030BD5FEA545C05D1E2
S3250800C5604000494128BF41F0004130BD14F580043CBF01F5801130BD01F0004545F0FE41F7
S3250800C58041F470014FF0000030BD7FEA645C1ABF194610467FEA655C1CBF0B46024650EA2C
S3250800C5A0013406BF52EA033591EA030F41F4002130BD00BF90F0000F04BF0021704730B561
S3250800C5C04FF4806404F132044FF000054FF0000150E700BF90F0000F04BF0021704730B572
S3250800C5E04FF4806404F1320410F0004548BF40424FF000013EE700BF42004FEAE2014FEA52
S3250800C60031014FEA02701FBF12F07F4393F07F4F81F06051704732F07F4208BF704793F07F
S3250800C6207F4F04BF41F40021704730B54FF4607401F0004521F000411CE700BF50EA0102CB
S3250800C64008BF704730B54FF000050AE050EA010208BF704730B511F0004502D5404261EBB0
S3250800C66041014FF4806404F132045FEA915C3FF4D8AE4FF003025FEADC0C18BF03325FEA5F
S3250800C680DC0C18BF033202EBDC02C2F1200300FA03FC20FA02F001FA03FE40EA0E0021FAA3
S3250800C6A002F11444BDE600BF70B54FF0FF0C4CF4E06C1CEA11541DBF1CEA135594EA0C0F76
S3250800C6C095EA0C0F00F0DEF82C4481EA030621EA4C5123EA4C5350EA013518BF52EA0335F9
S3250800C6E041F4801143F4801338D0A0FB02CE4FF00005E1FB02E506F00042E0FB03E54FF0E8
S3250800C7000006E1FB03569CF0000F18BF4EF0010EA4F1FF04B6F5007F64F5407404D25FEA23
S3250800C7204E0E6D4146EB060642EAC62141EA55514FEAC52040EA5E504FEACE2EB4F1FD0CE7
S3250800C74088BFBCF5E06F1ED8BEF1004F08BF5FEA500E50F1000041EB045170BD06F00046F7
S3250800C76046EA010140EA020081EA0301B4EB5C04C2BFD4EB0C0541EA045170BD41F480111B
S3250800C7804FF0000E013C00F3AB8014F1360FDEBF002001F0004170BDC4F10004203C35DA59
S3250800C7A00C341BDC04F11404C4F1200500FA05F320FA04F001FA05F240EA020001F00042FC
S3250800C7C021F0004110EBD37021FA04F642EB06015EEA430E08BF20EAD37070BDC4F10C04D3
S3250800C7E0C4F1200500FA04F320FA05F001FA04F240EA020001F0004110EBD37041F1000191
S3250800C8005EEA430E08BF20EAD37070BDC4F1200500FA05F24EEA020E20FA04F301FA05F21A
S3250800C82043EA020321FA04F001F0004121FA04F220EA020000EBD3705EEA430E08BF20EAC2
S3250800C840D37070BD94F0000F0FD101F00046400041EB010111F4801F08BF013CF7D041EAA8
S3250800C860060195F0000F18BF704703F00046520043EB030313F4801F08BF013DF7D043EA23
S3250800C8800603704794EA0C0F0CEA135518BF95EA0C0F0CD050EA410618BF52EA4306D1D107
S3250800C8A081EA030101F000414FF0000070BD50EA410606BF1046194652EA430619D094EA76
S3250800C8C00C0F02D150EA013613D195EA0C0F05D152EA03361CBF104619460AD181EA030148
S3250800C8E001F0004141F0FE4141F470014FF0000070BD41F0FE4141F4780170BD70B54FF0C7
S3250800C900FF0C4CF4E06C1CEA11541DBF1CEA135594EA0C0F95EA0C0F00F0A7F8A4EB050463
S3250800C92081EA030E52EA03354FEA013100F088804FEA03334FF0805545EA131343EA12631C
S3250800C9404FEA022245EA111545EA10654FEA00260EF000419D4208BF964244F1FD0404F528
S3250800C960407402D25B084FEA3202B61A65EB03055B084FEA32024FF480104FF4002CB6EB76
S3250800C980020E75EB030E22BFB61A754640EA0C005B084FEA3202B6EB020E75EB030E22BF93
S3250800C9A0B61A754640EA5C005B084FEA3202B6EB020E75EB030E22BFB61A754640EA9C0034
S3250800C9C05B084FEA3202B6EB020E75EB030E22BFB61A754640EADC0055EA060E18D04FEA71
S3250800C9E0051545EA16754FEA06164FEAC30343EA52734FEAC2025FEA1C1CC0D111F4801F5C
S3250800CA000BD141EA00014FF000004FF0004CB6E711F4801F04BF01430020B4F1FD0C88BFD9
S3250800CA20BCF5E06F3FF6AFAEB5EB030C04BFB6EB020C5FEA500C50F1000041EB045170BDA1
S3250800CA400EF0004E4EEA113114EB5C04C2BFD4EB0C0541EA045170BD41F480114FF0000E92
S3250800CA60013C90E645EA060E8DE60CEA135594EA0C0F08BF95EA0C0F3FF43BAF94EA0C0F31
S3250800CA800AD150EA01347FF434AF95EA0C0F7FF425AF104619462CE795EA0C0F06D152EA92
S3250800CAA003353FF4FDAE1046194622E750EA410618BF52EA43067FF4C5AE50EA41047FF4DF
S3250800CAC00DAF52EA43057FF4EBAE12E74FF0FF3C06E000BF4FF0010C02E000BF4FF0010CAB
S3250800CAE04DF804CD4FEA410C7FEA6C5C4FEA430C18BF7FEA6C5C1BD001B050EA410C0CBFDD
S3250800CB0052EA430C91EA030F02BF90EA020F0020704710F1000F91EA030F58BF994208BF76
S3250800CB2090422CBFD8176FEAE37040F0010070474FEA410C7FEA6C5C02D150EA013C07D1CE
S3250800CB404FEA430C7FEA6C5CD6D152EA033CD3D05DF8040B704700BF8446104662468C46D5
S3250800CB601946634600E000BF01B5FFF7B7FF002848BF10F1000F01BD4DF808EDFFF7F4FF7E
S3250800CB800CBF012000205DF808FB00BF4DF808EDFFF7EAFF34BF012000205DF808FB00BF00
S3250800CBA04DF808EDFFF7E0FF94BF012000205DF808FB00BF4DF808EDFFF7CEFF94BF01203C
S3250800CBC000205DF808FB00BF4DF808EDFFF7C4FF34BF012000205DF808FB00BF4FEA410C4C
S3250800CBE07FEA6C5C02D150EA013C0AD14FEA430C7FEA6C5C02D152EA033C02D14FF00000B8
S3250800CC0070474FF0010070474FEA410212F5001215D211D56FF47873B3EB625212D94FEA32
S3250800CC20C12343F0004343EA505311F0004F23FA02F018BF404270474FF00000704750EA1D
S3250800CC40013005D111F0004008BF6FF0004070474FF00000704700BF4A0011D212F5001266
S3250800CC6011D20DD56FF47873B3EB62520ED44FEAC12343F0004343EA505323FA02F0704736
S3250800CC804FF00000704750EA013002D14FF0FF3070474FF0000070474FEA4102B2F1E043F5
S3250800CCA024BFB3F5001CDCF1FE5C0DD901F0004C4FEAC0024CEA5070B2F1004F40EB8300E4
S3250800CCC008BF20F00100704711F0804F21D113F13872BCBF01F00040704741F480114FEAE5
S3250800CCE05252C2F11802C2F1200C10FA0CF320FA02F018BF40F001004FEAC1234FEAD3236D
S3250800CD0003FA0CFC40EA0C0023FA02F34FEA4303CCE77FEA625307D150EA01331EBF4FF006
S3250800CD20FE4040F44000704701F0004040F0FE4040F40000704700BF80F0004002E000BFE2
S3250800CD4081F0004142001FBF5FEA410392EA030F7FEA226C7FEA236C6AD04FEA1262D2EB45
S3250800CD601363C1BFD218414048404140B8BF5B42192B88BF704710F0004F40F4000020F052
S3250800CD807F4018BF404211F0004F41F4000121F07F4118BF494292EA030F3FD0A2F1010281
S3250800CDA041FA03FC10EB0C00C3F1200301FA03F100F0004302D5494260EB4000B0F5000F8A
S3250800CDC013D3B0F1807F06D340084FEA310102F10102FE2A51D2B1F1004F40EBC25008BFFD
S3250800CDE020F0010040EA03007047490040EB0000013A28BFB0F5000FEDD2B0FA80FCACF164
S3250800CE00080CB2EB0C0200FA0CF0AABF00EBC25052421843BCBFD0401843704792F0000FCC
S3250800CE2081F4000106BF80F400000132013BB5E74FEA41037FEA226C18BF7FEA236C21D0F6
S3250800CE4092EA030F04D092F0000F08BF0846704790EA010F1CBF0020704712F07F4F04D124
S3250800CE60400028BF40F00040704712F100723CBF00F50000704700F0004343F0FE4040F462
S3250800CE80000070477FEA226216BF08467FEA23630146420206BF5FEA412390EA010F40F413
S3250800CEA0800070474FF0000304E000BF10F0004348BF40425FEA000C08BF704743F096439D
S3250800CEC001464FF000001CE050EA010208BF70474FF000030AE000BF50EA010208BF704761
S3250800CEE011F0004302D5404261EB41015FEA010C02BF84460146002043F0B64308BFA3F12A
S3250800CF008053A3F50003BCFA8CF2083AA3EBC25310DB01FA02FC634400FA02FCC2F1200224
S3250800CF20BCF1004F20FA02F243EB020008BF20F00100704702F1200201FA02FCC2F1200237
S3250800CF4050EA4C0021FA02F243EB020008BF20EADC7070477BB972B90029BEBF00204FF0C6
S3250800CF60004106E008BF00281CBF6FF000414FF0FF3000F009BAADF1080C6DE904CE0029EE
S3250800CF8009DB002B1ADB00F083F8DDF804E0DDE9022304B07047404261EB4101002B1BDBD4
S3250800CFA000F076F8DDF804E0DDE9022304B0404261EB4101524263EB43037047524263EBDC
S3250800CFC0430300F065F8DDF804E0DDE9022304B0404261EB41017047524263EB430300F079
S3250800CFE057F8DDF804E0DDE9022304B0524263EB4303704753B94AB9002908BF00281CBF9B
S3250800D0004FF0FF314FF0FF3000F0BEB9ADF1080C6DE904CE00F03CF8DDF804E0DDE902231C
S3250800D02004B0704738B50022002304460D46FFF7ADFD28B920462946BDE8384000F00AB883
S3250800D040204605F1004100F005F8404261EB410138BD00BFD0B50C4B002206460F46FFF7DF
S3250800D06023FBFFF7F9FD0446FFF7A4FA074B0022FFF71AFB02460B4630463946FFF75CF962
S3250800D080FFF7EAFD2146D0BD0000F03D0000F0412DE9F047089D8E4604468846002B4AD12F
S3250800D0A08A42174662D9B2FA82F64EB1C6F1200301FA06F820FA03F3B74043EA0808B440D0
S3250800D0C04FEA174E1FFA87FCB8FBFEF1230C0EFB118843EA084301FB0CF29A4209D9FB1852
S3250800D0E001F1FF3080F0EA809A4240F2E78002393B449A1AA3B2B2FBFEF00EFB102243EAEC
S3250800D100024300FB0CFC9C4509D9FB1800F1FF3280F0D6809C4540F2D3803B44023840EAB2
S3250800D1200140A3EB0C0300211DB1F3400022C5E90032BDE8F0878B4205D90DB1C5E90001AB
S3250800D14000210846F5E7B3FA83F1002946D1734502D3824200F20581841A6EEB030201202F
S3250800D1609046002DE5D0C5E90048E2E7002A00F09080B2FA82F6002E40F0A4808A1A030CA7
S3250800D1804FEA174E80B2BCB20121B2FBFEFC0EFB1C2243EA024304FB0CF29A4207D9FB18F5
S3250800D1A00CF1FF3802D29A4200F2E080C4469B1AB3FBFEF20EFB123340EA034302FB04F41B
S3250800D1C09C4207D9FB1802F1FF3002D29C4200F2CA8002461B1B42EA0C40A5E7C1F1200606
S3250800D1E08B4022FA06F71F430EFA01F420FA06F32EFA06FE4FEA1749234300FA01F81FFA94
S3250800D20087FCBEFBF9F01C0C09FB10EE44EA0E4400FB0CFEA64502FA01F209D93C1900F12A
S3250800D220FF3A80F09C80A64540F2998002383C44A4EB0E041FFA83FEB4FBF9F309FB1344FA
S3250800D2404EEA044403FB0CFCA44508D93C1903F1FF3E80F08280A4457FD9023B3C4443EA4D
S3250800D2600040A4EB0C04A0FB02EC64457346E14662D35FD05DB1B8EB030264EB090404FA3B
S3250800D28006F622FA01F31E43CC40C5E9006400214FE7B1FBF2FC010C41EA0E4180B240EA21
S3250800D2A001423B4638463C46B846BE462026B1FBF7F1A2EB080241EA0C4166E7014618E71E
S3250800D2C010462CE7C6F120022EFA02F3B740B14020FA02F24FEA174E0A43B3FBFEF8BCB2EE
S3250800D2E00EFB1833110C41EA034108FB04F9B04089454FEA104380B23ED9791808F1FF3CE8
S3250800D30001D289451FD8A1EB0901B1FBFEF909FB04F80EFB191192B242EA0142424529D2C6
S3250800D320BA1809F1FF31C4D24245C2D2A9F102013A44BEE7F0459DD2BEEB02036CEB070CB6
S3250800D3400138E14696E7A7EB09094944A8F1020CB1FBFEF909FB04F8DBE773467FE75046F0
S3250800D36066E70846FDE63B44023A33E7ACF1020C3B441CE749469CE7A1EB0901C446B1FBC1
S3250800D380FEF909FB04F8C4E7704700BF07B5064B01221A7100230093114602202BF044FC22
S3250800D3A003B05DF804FB00BF90140020044B1B78032B04D1034B1B790BB9FFF7E7BF7047F7
S3250800D3C0B85500209014002010B50E4C0E4B2478012140F201121A808C424FF000029A721E
S3250800D3E01A7142714281997059739A7309D0FF2480F8DC104FF6FF719C83A0F8DA109A7478
S3250800D400DA7110BD74F6002090140020F7B5584D584C95F86635012B40F0A88002685649EE
S3250800D42002F5005292F8C420013A062A0BD8DFE802F0044C547D4985870091F82820012AAE
S3250800D44047D10222A270026802F5805292F8E02D012A03D1E37C003B18BF012391F8292040
S3250800D460012A75D1454AD27C002A71D1012B6FD1A378022B06D0E37A022B69D1404B9B78F8
S3250800D480012B65D102236370002300931A460121EC202BF0C9FB95F83E35022B5FD1637FC2
S3250800D4A0012B5CD1374B1B78013B012B57D8022323700121002300931A4608462BF0B4FB51
S3250800D4C003B0F0BDE27A022ABAE7E27C1AB9012262730122B6E7627BF5E782790AB9012232
S3250800D4E0827191F82820012A15D102894FF6FF76B24201D0013202818679012EA3D1A778C8
S3250800D50095F83E25012F0BD017F0FD0F00D1A670002A98D008E0002202810122827192E75A
S3250800D520012AF5D10222A2700222F7E795F83E25002ACED0013A012ACBD882E7E27BC2E784
S3250800D540114A567C16B901261674C2E7127CBAE701236370002300931A46022198E7002366
S3250800D560012020701A4600930221A7E7637C94E7844E002090140020281E00201C55002041
S3250800D58008650020B85500201859002007B50A4A92F83E35032B0CD108494B794BB992F877
S3250800D5A06625012A05D14A71ED20009311462BF03BFB03B05DF804FB844E00209014002011
S3250800D5C02DE9F0470646A84D56F8103B2A7BDFF8A88203F50053012A93F8C670044679D1A5
S3250800D5E090F80490B9F1000F74D1FFF7CFFFFFF7DDFE85F80C9084F80E90CA22494630464A
S3250800D60063F050F898F8283063712B7B2371A37BBB4240F20781226802F5005292F8C52054
S3250800D620911E4A424A41EA70002032464FF6FF7CC1B28B4200F2F880218A48F6A04291421C
S3250800D64002D9BB4240F209812B79012B00F00781236803F5005393F8C530022B40F0FF80AE
S3250800D660A37BBB4200F2FB80804B1B78032B40F0F6807F4B1B78012B40F0F18063894FF687
S3250800D680FF72934201D0013363816B79012B00F0E880236803F5005393F8C530022B40F032
S3250800D6A0E080744B93F85325012A40F0DA8093F83E25032A40F0D58093F83835012B40F091
S3250800D6C0D080A3894FF6FF72934201D00133A381BDE8F087AA79012A09D12046FFF756FF17
S3250800D6E0FFF764FE0021A971A173CA2287E72A7A012A07D12046FFF749FFFFF757FE002362
S3250800D7002B727FE75B4991F86695B9F1000F12D195F812A0BAF1010F0DD1FFF747FE84F8A5
S3250800D7200E90CA224946304662F0BCFF85F81EA085F8129066E7AA7A012A04D1FFF736FE4A
S3250800D7400023AB725EE793F8C420013A052A3FF659AF01A050F822F071D7000899D700085D
S3250800D760CBD70008DFD7000805D60008B1D7000898F82820002A7FF445AF6279012A7FF4DE
S3250800D78041AF93F863320A2B3FF43CAF2046FFF7FDFEFFF70BFE35E7AB7B012B7FF432AF00
S3250800D7A02046FFF7F3FEFFF701FE0023AB7329E72B7C012B4FF0000904D12046FFF7E6FE98
S3250800D7C0FFF7F4FD85F810901CE798F82830012B7FF418AF6379002B7FF414AFD6E7A289C1
S3250800D7E0DC2A07D993F8C520022A03D12046FFF7CDFE07E76289642A7FF604AF93F8C5308F
S3250800D800022B7FF4FFAE91F85335022B02D12046FFF7BCFEFFF7CAFDA37BFF2B1CBF013372
S3250800D820A373EFE60022FEE6BB4204D8118861451CBF0131118001300232F9E6718826F8D8
S3250800D840021B0132D1B28F42F8D807F108020021013B24F81210A373F6E60022F2E7002399
S3250800D86012E7002333E700BF90140020B85500202C540020844E0020281E002010B51A4B92
S3250800D8801A495A7D0B78022B27D042BB90F8DC30012B18D1036803F5005393F8C73080F843
S3250800D8A0DC20C3EB431403EB8403DB00A0F8DA30B0F8DA004FF47A73B0FBF3F30B7700B9E9
S3250800D8C001224A7710BDB0F8DA30642B86BF643BA0F8DA30A0F8DA20EAE7002AF0D0012351
S3250800D8E080F8DC30ECE700BFC45500209014002010B50446FFF7C2FF2046FFF787FD2046FB
S3250800D900BDE81040FFF75CBE4FF6FF730380012383707047012907B50FD103884FF6FF72E5
S3250800D92093420DD001339BB21D2B038008D8002383701A460093022107E000230380F6E765
S3250800D9400023012181701A46009321202BF06CF903B05DF804FB000070B4154B0C4693F867
S3250800D9602D10012922D1134B1B78022B1ED0124A958D138D5B1BA34204DBD38D568E9B1BE1
S3250800D9809C4210DD538D5B1B002BB8BF5B429C420CDC138E528E9B1A002BB8BF5B429C4200
S3250800D9A0CCBF0021012170BCFFF7B4BF0021FAE7BC160020B855002030550020FFF7CCBFAF
S3250800D9C0012380F8403200224FF6FF73A0F8423280F84422A0F84C327047012911D1B0F8E7
S3250800D9E04C324FF6FF72934202D00133A0F84C32B0F84C32092B94BF0023012380F8403216
S3250800DA0070470023F2E70000F8B50D46044659F001F9224B93F82D10012939D1D4F8483209
S3250800DA201F4AC31A934202D294F8443273B91D4AC4F84802A31E04F23E2032F8026B23F887
S3250800DA40026F8342F9D1012384F84432164B15481E78164F002230F802CB34F81230A3EBD6
S3250800DA600C03002BB8BF5B429BB2AB420AD3BB5C33B9A4F842222046BDE8F840FFF7ADBF8B
S3250800DA80032EF6D10132B2F5907FE4D10021F2E7002384F84432C4F84802F7E7BC160020FD
S3250800DAA080EE360088700020B8550020D8800020FFF7AABF012383704FF6FF730380704790
S3250800DAC001290DD103884FF6FF72934201D0013303800388312B94BF002301238370704767
S3250800DAE00023F5E7034B5B8D8B4294BF00210121FFF7E6BFB0140020FFF7F4BF4FF6FF73A1
S3250800DB0040F20222038043808280C380038142818381C381028243828382C28203767047C5
S3250800DB2038B505460846EB7A022B13D101F5805393F81E3E73B1EC88B4FBF3F4E4B2EB7DFF
S3250800DB40022B09D1698A01F0FAF9844228BF04462C7638BDFF24F2E7FF20F6E7F0B5002589
S3250800DB602E46AC462C46AFB2BA420AD8DBB29C42A0F800C019D8003C18BF01240471867227
S3250800DB80F0BD91F802E0BEF1000F02D00134A4B2BC4691F803E0BEF1010F01D11EB102264E
S3250800DBA001350431DFE7C780F9E70224E6E737B50579022D044627D143884FF6FF729342DB
S3250800DBC001D001336380A37A022B1FD123894FF6FF72934201D0013323812388628801336C
S3250800DBE0092A88B2009313D900231A4601212BF01BF8022523896571F92B94BF00230123F1
S3250800DC005B00E37203B030BD0023DBE70023E3E735B100231A4603212BF006F80125E9E738
S3250800DC202B462A4602212AF0FFFFE3E72DE9F04101F58056DFF84480B6F81A2E0D4600F108
S3250800DC400C0741460023FFF789FF044696F8283EB6F8182E08F590713846FFF77FFF2046F3
S3250800DC601E21FFF7A4FF38461F21FFF7A0FF29462046BDE8F041FFF753BF00BF88790020D8
S3250800DC80054BC0F82031002180F82411182200F5967062F007BD00BF0101FFFFF8B504464E
S3250800DCA00D4658F0B7FFD4F82831C31AB3F57A7F02D294F824316BB91949C4F8280100231F
S3250800DCC051F8232044F823200133482BF8D1012384F824316423134915FB03F50022A61CF7
S3250800DCE016F8220034F92230B1F9207A88B991F8220A70B9DB1B002BB8BF5B421BB2AB4215
S3250800DD0005DB012384F82131A4F82221F8BD84F821010132482A01F10401E1D1F6E700BF07
S3250800DD20A87A002088700020F0B53C4BB3F90E2002F5FA639BB244F268218B421DD8B0F8AB
S3250800DD402E31A0F82C31B0F83031A0F82E31B0F83231A0F83031B0F83431A0F83231B0F8AD
S3250800DD603631A0F83431B0F83831A0F83631B0F83A31A0F83831A0F83A21B0F92C1100290B
S3250800DD8049D0B0F92E31002B42D0B0F93031002B3ED0B0F93231002B3AD0B0F93431BBB317
S3250800DDA0B0F93631A3B3B0F938318BB3B0F93A3173B390F83D2190F83EE190F83FC190F8C8
S3250800DDC0407180F83C21724490F8416190F8425190F8434180F83DE162443A445B1A324403
S3250800DDE0B3F5FA7F2A44B4BF00230123224480F843311344042B80F83EC180F83F7180F8DD
S3250800DE00406180F8415180F84241D4BF0023012380F82031F0BD0B46FAE700BF485600204F
S3250800DE2010B50446FFF73AFF2046BDE81040FFF77BBF10B50446FFF723FF04F5A270FFF7E3
S3250800DE40BFFD04F2B230FFF75FFD04F56570FFF731FE04F56670BDE81040FFF74FBE38B527
S3250800DE600C460546097FFFF7DBFFE18B05F5A270FFF71EFE218C05F2B230FFF79FFD618C10
S3250800DE8005F56570FFF738FE214605F56670BDE83840FFF7CBBE0000012370B580F877303E
S3250800DEA0124B00244FF6FF764FF0FF35C0E90A55C68483F8AC4383F8D24683F8D6467C3014
S3250800DEC040F8044C00F8074CFFF7B3FF084B094AA3F8D840A3F8DE50A3F8D240C3F8C84027
S3250800DEE0C3F8CC2083F8D06070BD00BF88800020B01400200000FFFF164B5B8842F22732FB
S3250800DF0093420AD990F82230FF2B02D0013380F82230002380F8233018E042F23312934233
S3250800DF20F7D80022B3F57A7F80F822200AD290F82320FF2A02D0013280F82320B3F5FA7FD6
S3250800DF4004D8704740F2DC529342E2D8002380F8243070473055002013B590F82230312BE8
S3250800DF604FF05A03044600934FF000038CBF032102211A4637202AF057FE94F82330312BE5
S3250800DF804FF00A0300934FF000038CBF032102211A4623202AF048FE94F82430312B4FF042
S3250800DFA0000300931A468CBF0321022124202AF03BFE02B010BD08B5FFF79EFFBDE8084078
S3250800DFC0FFF7CABF044B187020B9044A1278013A012A00D858707047B0140020B85500205E
S3250800DFE0012803D1054B83F86C007047044B1B7813B9024A82F86C30704700BFB0140020BE
S3250800E000B8550020002270B513461446861C95B2A94204D86BB194FBF3F420B270BD16F87C
S3250800E020225025B930F9225001332C449BB20132EDE71846F2E70000F0B500240C4D23462D
S3250800E040264601F1020E9FB2BA4204D806808470C4708580F0BD1EF823C0BCF1000F05D130
S3250800E06031F923C0AC45C4BF65463E460133EAE70080FFFFF0B50024234647F6FF75264610
S3250800E08001F1020E9FB2BA4204D806808470C4708580F0BD1EF823C0BCF1000F05D131F932
S3250800E0A023C0AC45BCBF65463E460133EAE710B500221346023094B2A14203D8181E18BF4C
S3250800E0C0012010BD10F822400CB901339BB20132F1E70000F0B5026802F50051034691F860
S3250800E0E0631208294DD902F58052D2F82C2E1279013A022A45D8244C94F8D025002A40D11E
S3250800E100428D4FF6FF718A4220D1012284F8D22683F8792000225A8594F8D216F9B91B4E75
S3250800E1200A464FF6FF77186800F580508DB290F8140EA84216D812B30120002284F8D20664
S3250800E14083F879005A8583F87800F0BD013292B2172A4285D9D890F87920002ADCD193F88B
S3250800E1607800F0E716F8010F38B122B9A4F8D056013292B201E0BA42FAD10131D3E783F818
S3250800E18079200020DFE700BF888000201B830020F0B5026802F50051034691F8631208297E
S3250800E1A04DD902F58052D2F82C2E1279032A46D1244C94F8D025002A41D1828D4FF6FF717E
S3250800E1C08A4220D1012284F8D62683F87B2000229A8594F8D61601BB1B4E0A464FF6FF77DA
S3250800E1E0186800F580508DB290F8140EA84217D81AB30120002284F8D60683F87B009A858D
S3250800E20083F87A00F0BD013292B2B2F5877F8285D8D890F87B20002ADBD193F87A00EFE79F
S3250800E22016F8010F38B122B9A4F8D456013292B201E0BA42FAD10131D2E783F87B200020E8
S3250800E240DEE700BF8880002033830020034B93F8D7060A2894BF00200120704788800020D3
S3250800E260F0B5036803F5005393F86322062A01D80020F0BD93F86832002BF9D13D4D6A7BC6
S3250800E280012A12D16A68C48C4FF47A714A436421B2FBF1F24FF6FF710E1B964286BFA418B9
S3250800E2A0A2B20A46C28400226A73C28C4FF6FF718A42314917D1012281F8A8230022C28467
S3250800E2C091F8A8232D4C012A15D180F8742094F8CF30FF2B0DD191F8A8239AB1038B022B59
S3250800E2E0C6D90D20C5E7013292B2462AC284E7D9E1E70133DBB284F8CF3090F87430002B50
S3250800E300ECD0E8E703681E4D03F580534FF6FF7CB3F8167E134696B2B7421ED82BB1038BCA
S3250800E3204FF6FF72934201D001330383B4F8CA304FF6FF7293421ABF01339BB20323A4F86C
S3250800E340CA30028B92B1022A01D9022B0ED8012380F8743081F8A833C0E715F8016F1EB145
S3250800E36063451CBF01339BB20132D4E7002380F87430B3E71C55002088800020B014002027
S3250800E380D780002030B50368094A03F5805393F8144E002398B2844201D8002005E012F882
S3250800E3A0015F581C15B10B70142030BD0346F1E7F685002030B50368094A03F5805393F864
S3250800E3C0144E002398B2844201D8002005E012F8015F581C15B10B70152030BD0346F1E75A
S3250800E3E00E860020F0B5024603682348234E01F5966501F5996400EB840400EB8500646894
S3250800E4004068B6F8847384424FF6FF758CBF201A001B854228BF0546AF4238BFA6F884532C
S3250800E42042F20F75AC4223D9126802F58052D2F82C2E1479042C06D140F2DC53984294BFA3
S3250800E44000200120F0BD052C02D1B0F5FA6FF6E703F58053062404FB013191F83C1F03EBD9
S3250800E460411393F85A1E5378994203D1FA28E6E70120E7E70020E5E78870002088800020B3
S3250800E4802DE9F0410026044688463546236803F58053F7B293F8143EBB420ED8EDB1636846
S3250800E4A05A1C18D0013364226360534340F6C412934210D80020BDE8F08139462046FFF703
S3250800E4C091FF012805D10135EDB2012D08BF88F800700136DAE71120EDE76560EAE7000052
S3250800E4E070B5134B134E586807EE900AF8EE677A17EE900AFEF780F80F4B0022FEF7FEF9A0
S3250800E500D6ED027AF8EEE77A044617EE900A0D46FEF772F8084B0022FEF7F0F902460B46E0
