S00F000077424D532D48582D4D43553286
S325080800000000082409E20A080DDD0A0815DD0A081DDD0A0825DD0A082DDD0A080000000065
S32508080020000000000000000000000000C153080835DD0A08000000006154080825F20A0874
S325080800405DE20A085DE20A085DE20A085DE20A085DE20A085DE20A085DE20A085DE20A0802
S3250808006037DD0A085DE20A085DE20A085DE20A085DE20A085DE20A085DE20A085DE20A080D
S325080800805DE20A085DE20A0841DD0A085DE20A085DE20A085DE20A085DE20A085DE20A08E3
S325080800A05DE20A0851DD0A085DE20A085DE20A085DE20A085DE20A085DE20A0861DD0A08B4
S325080800C071DD0A085DE20A085DE20A085DE20A085DE20A085DE20A085DE20A085DE20A0873
S325080800E05DE20A085DE20A08000000005DE20A085DE20A085DE20A085DE20A085DE20A08B3
S325080801005DE20A0881DD0A085DE20A085DE20A085DE20A085DE20A0891DD0A085DE20A08F3
S32508080120A1DD0A085DE20A08B1DD0A085DE20A085DE20A08C1DD0A085DE20A085DE20A0834
S32508080140000000000000000000000000000000005DE20A085DE20A08D1DD0A085DE20A08D6
S325080801605DE20A085DE20A085DE20A085DE20A085DE20A085DE20A085DE20A080000000032
S325080801805DE20A085DE20A085DE20A08E1DD0A085DE20A085DE20A085DE20A085DE20A0842
S325080801A05DE20A085DE20A085DE20A085DE20A085DE20A085DE20A085DE20A085DE20A08A1
S325080801C05DE20A085DE20A085DE20A085DE20A085DE20A085DE20A08F1DD0A085DE20A08F2
S325080801E05DE20A085DE20A085DE20A085DE20A085DE20A085DE20A085DE20A085DE20A0861
S325080802005DE20A085DE20A085DE20A085DE20A085DE20A085DE20A085DE20A085DE20A0840
S325080802205DE20A085DE20A085DE20A08000000005DE20A085DE20A08000000005DE20A08C2
S325080802405DE20A085DE20A085DE20A085DE20A085DE20A085DE20A085DE20A085DE20A0800
S325080802605DE20A085DE20A085DE20A085DE20A085DE20A085DE20A085DE20A080000000031
S325080802805DE20A085DE20A085DE20A0800000000000000005DE20A08FFFFFFFFFFFFFFFF0C
S325080802A010B5054C237833B9044B13B10448AFF300800123237010BD403F002400000000E3
S325080802C004080C0808B5034B1BB103490348AFF3008008BD00000000443F002404080C08CC
S325080802E010F8012B11F8013B012A28BF9A42F7D0D01A7047034613F8012B002AFBD1181A71
S325080803000138704700000000000000000000000001F0FF01102A2BDB10F0070F08D010F8B0
S32508080320013B013A8B422DD010F0070F42B3F6D1F0B441EA012141EA014122F007047FF0AA
S3250808034000070023F0E80256083C85EA010586EA010685FA47F5A3FA87F586FA47F6A5FACD
S3250808036087F68EB9EED1F0BC01F0FF0102F0070232B110F8013B013A83EA010313B1F8D1EC
S325080803800020704701387047002D06BF35460338073815F0010F07D1013015F4807F02BFB2
S325080803A0013015F4C03F0130F0BC0138704700BF7BB972B90029BEBF00204FF0004106E0D7
S325080803C008BF00281CBF6FF000414FF0FF3000F0D3B9ADF1080C6DE904CE002909DB002BA1
S325080803E01ADB00F04DF8DDF804E0DDE9022304B07047404261EB4101002B1BDB00F040F855
S32508080400DDF804E0DDE9022304B0404261EB4101524263EB43037047524263EB430300F067
S325080804202FF8DDF804E0DDE9022304B0404261EB41017047524263EB430300F021F8DDF85A
S3250808044004E0DDE9022304B0524263EB4303704753B94AB9002908BF00281CBF4FF0FF31B3
S325080804604FF0FF3000F088B9ADF1080C6DE904CE00F006F8DDF804E0DDE9022304B07047F0
S325080804802DE9F047089D8E4604468846002B4AD18A42174662D9B2FA82F64EB1C6F12003C1
S325080804A001FA06F820FA03F3B74043EA0808B4404FEA174E1FFA87FCB8FBFEF1230C0EFBE1
S325080804C0118843EA084301FB0CF29A4209D9FB1801F1FF3080F0EA809A4240F2E78002397F
S325080804E03B449A1AA3B2B2FBFEF00EFB102243EA024300FB0CFC9C4509D9FB1800F1FF321B
S3250808050080F0D6809C4540F2D3803B44023840EA0140A3EB0C0300211DB1F3400022C5E9E6
S325080805200032BDE8F0878B4205D90DB1C5E9000100210846F5E7B3FA83F1002946D17345DB
S3250808054002D3824200F20581841A6EEB030201209046002DE5D0C5E90048E2E7002A00F0C6
S325080805609080B2FA82F6002E40F0A4808A1A030C4FEA174E80B2BCB20121B2FBFEFC0EFBEC
S325080805801C2243EA024304FB0CF29A4207D9FB180CF1FF3802D29A4200F2E080C4469B1AD4
S325080805A0B3FBFEF20EFB123340EA034302FB04F49C4207D9FB1802F1FF3002D29C4200F23D
S325080805C0CA8002461B1B42EA0C40A5E7C1F120068B4022FA06F71F430EFA01F420FA06F30B
S325080805E02EFA06FE4FEA1749234300FA01F81FFA87FCBEFBF9F01C0C09FB10EE44EA0E44DF
S3250808060000FB0CFEA64502FA01F209D93C1900F1FF3A80F09C80A64540F2998002383C4408
S32508080620A4EB0E041FFA83FEB4FBF9F309FB13444EEA044403FB0CFCA44508D93C1903F1DA
S32508080640FF3E80F08280A4457FD9023B3C4443EA0040A4EB0C04A0FB02EC64457346E146B9
S3250808066062D35FD05DB1B8EB030264EB090404FA06F622FA01F31E43CC40C5E90064002144
S325080806804FE7B1FBF2FC010C41EA0E4180B240EA01423B4638463C46B846BE462026B1FBD9
S325080806A0F7F1A2EB080241EA0C4166E7014618E710462CE7C6F120022EFA02F3B740B14053
S325080806C020FA02F24FEA174E0A43B3FBFEF8BCB20EFB1833110C41EA034108FB04F9B04029
S325080806E089454FEA104380B23ED9791808F1FF3C01D289451FD8A1EB0901B1FBFEF909FBA7
S3250808070004F80EFB191192B242EA0142424529D2BA1809F1FF31C4D24245C2D2A9F1020115
S325080807203A44BEE7F0459DD2BEEB02036CEB070C0138E14696E7A7EB09094944A8F1020C0F
S32508080740B1FBFEF909FB04F8DBE773467FE7504666E70846FDE63B44023A33E7ACF1020C6B
S325080807603B441CE749469CE7A1EB0901C446B1FBFEF909FB04F8C4E7704700BF08B5044B5F
S325080807801A1803EB80035B685B68107A984708BD64410024094B1B5C73B910B50446074BCB
S325080807A01A1803EB80035B681B68107A984710B9024B01221A5510BD0020704764410024BC
S325080807C010B5054C04EB000C04EB8004606884689CF80800A04710BD6441002410B5054C9C
S325080807E004EB000C04EB80046068C4689CF80800A04710BD6441002408B5054B03EB000C61
S3250808080003EB80035B681B699CF80800984708BD64410024C378827842EA0322437843EA93
S325080808200223007840EA0320704701700B0A43700B0C8370090EC1707047000000B586463E
S3250808084003681A4612F8010B10F0800F03D1CEF800205DF804FB00F0E001C0290BD000F07F
S32508080860F001E02931D000F0F801F02931D100F00700032102E000F01F000121013103EB15
S32508080880010C12F8013B03F0C001802924D103F03F0343EA80106245F3D1A0F55843B3F568
S325080808A0006F1CD3A0F180030E498B4217D8B0F5803FCCD3A0F580310B4B03EA8113C0F3CA
S325080808C00900034309481843C1E700F00F000221D4E74FF0FF30BCE74FF0FF30B9E74FF024
S325080808E0FF30B6E77FFF10000000FF0300DC00D87F2804D8002A58D0087001207047B0F508
S32508080900006F0ED2012A01D800207047830963F03F030B7000F03F0060F07F004870022023
S325080809207047B0F5803F18D2022A40D9A0F55843B3F5006F01D200207047030B63F01F03E3
S325080809400B70C0F3851363F07F034B7000F03F0060F07F00887003207047032A29D9174BCA
S32508080960034003F120539B0980B2A0F55C40B3F5801F20D2B0F5806F1DD2034303F5803303
S325080809809A0C62F00F020A70C3F3053262F07F024A70C3F3851262F07F028A7003F03F03F5
S325080809A063F07F03CB70042070471046704700207047002070470020704700BF0000FFFFE7
S325080809C00239C369023B8B4204D94389006B01FB0300704700207047024600F10B0C00207F
S325080809E0C30143EA500312F8011B51FA83F3D8B26245F5D1704700000146006810B302464E
S32508080A0012F8013B1F2B01D93A2BF9D13A2B02D00F4B187870470378A3F1300C5FFA8CFC23
S32508080A20BCF1090F11D80230824202D04FF0FF307047A3F13000002802DD4FF0FF30704715
S32508080A400A6070474FF0FF3070474FF0FF3070475C41002438B50D46044698B103689BB1CA
S32508080A601A78A2B18188DA88914203D0092000242C6038BD5878FFF781FE10F0010009D17C
S32508080A802468F5E70920F3E71C460920F0E709200024EDE709200024EAE770B505790DB9CB
S32508080AA0284670BD044600F138060123426B31464078FFF793FE054688B900232371616B76
S32508080AC0226AA36ACB1A9342EAD2E378022BE7D101230A4431466078FFF780FEE0E701258F
S32508080AE0DEE738B5436B8B4201D1002038BD04460D46FFF7D2FF0028F8D101232A4604F1EE
S32508080B0038016078FFF75CFE10B101204FF0FF356563EBE72DE9F04105460C46FFF7BDFFD9
S32508080B2010B10120BDE8F08121462846FFF748FF0646686305F138074FF4007200213846F5
S32508080B403AF039FB6B8993B100244FF001084346321939466878FFF741FE18B901346B891B
S32508080B60A342F4D86889001B18BF0120DAE70024F8E7000038B50446FFF78FFF50B9237887
S32508080B80032B08D0002211466078FFF735FE003818BF012038BD6379012BF3D104F138059C
S32508080BA04FF40072002128463AF005FB552384F83632AA2384F837320E492846FFF735FEB5
S32508080BC00D4904F50770FFF730FE616904F50870FFF72BFE216904F50970FFF726FE626AD9
S32508080BE001326263012329466078FFF7F7FD00236371C7E752526141727241612DE9F047D4
S32508080C00012940F2828006460C461546C3698B427FD90378022B49D0032B5BD0012B7AD185
S32508080C2001EB5108816A01EB5821FFF75AFF074600286BD106F1380908F1010AC8F3080802
S32508080C4014F0010F1AD019F8083003F00F0343EA051309F8083001233371B16A01EB5A216A
S32508080C603046FFF73EFF002857D1CAF308034B44C5F307121A700123337147E009F808506B
S32508080C8001233371B16A01EB5A213046FFF729FF002844D1CAF3080A09EB0A03C5F3032276
S32508080CA019F80A1021F00F010A43E3E7816A01EB1421FFF716FF074640BB06F138036400C6
S32508080CC004F4FF7419191D55C5F307224A70012333711BE0816A01EBD411FFF702FF074691
S32508080CE0A0B925F0704506F13803A40004F4FE741C442046FFF78EFD00F0704129432046C1
S32508080D00FFF793FD0123337100E002273846BDE8F0870227FAE70227F8E70746F6E7074643
S32508080D20F4E78A76C2F30723CB760378032B00D07047120C0A75120A4A75F9E72DE9F047CD
S32508080D40D0F8009000238B758369002B00F0AA8007460E46C36AB3F1FF3F2DD0D9F80C3017
S32508080D60188880B34FF0020800252C46AA4612E004F11601C4F1FF02314440EA0540FFF72C
S32508080D80B7FD90B104445546D9F80C3033F8080008F1020850B1002DEAD100F520539BB284
S32508080DA0B3F5006FE4D20546EEE70446002D18BF002434440023A3750024254640F25238C0
S32508080DC04FF02E0916E00024F3E7331983F809900134414602F06EF8002848D004F10901E0
S32508080DE0C4F10C023144FFF783FD00283FD004440B2D0CD0FA69505D01352028F8D0052819
S32508080E0008BFE520092DE4D10B2CDED9E1E7331900225A72B37D7BBB44B1737A23B106F102
S32508080E2009020820102412E0134602E03F23B3750123334400229A75FB691B7BE3B9727238
S32508080E401AE020465173511C53786BB10A4619462E2BF6D0413B9BB2192BF3D8FB691B7B64
S32508080E601842EFD02031EDE7931B083BE1E700237372B37D002BD9D0FB69DB7A03F03F036B
S32508080E803372F8691C30FFF7C5FC3060FB69DA7D9B7D43EA0223F380FB695A7E1B7E43EA09
S32508080EA00223B380BDE8F087012956D9F8B50C460568EB698B4252D92B78022B2AD0032B9F
S32508080EC039D0012B4DD101EB5106A96A01EB56212846FFF706FE10B14FF0FF3040E0771CA6
S32508080EE0C6F308062E4496F83860A96A01EB57212846FFF7F6FDB0BBC7F308072F4497F879
S32508080F00383046EA032014F0010F14BF0009C0F30B0025E0A96A01EB14212846FFF7E1FDD7
S32508080F2020BB3835640004F4FF742B195B78285D40EA032014E0A96A01EBD4112846FFF75F
S32508080F40D0FDB0B905F13800A40004F4FE742044FFF760FC20F0704002E0012070470120B8
S32508080F60F8BD0120FCE74FF0FF30F9E74FF0FF30F6E74FF0FF30F3E7B1F5001F45D22DE9CF
S32508080F80F04106460D4611F01F0F40D1D0F80080016184683CB998F80030022B1FD9D8F8EB
S32508080FA02C30E3B11C46B8F80A305F02B5EB432F10D321463046FFF777FF0446B0F1FF3F17
S32508080FC029D0012829D9D8F81C30834227D9ED1BAF42EED921464046FFF7F2FC06E0B8F8CF
S32508080FE00830B3EB551F14D9D8F82C00B0617461B8B100EB5520B06108F13808C5F30801EE
S325080810004144F1610020BDE8F081022070470220F9E70220F7E70120F5E70220F3E70220B7
S32508081020F1E70220EFE72DE9F041054606680F4659B93469002C74D0F369A34298BF012499
S325080810407369002B3DD0A0464FE0FFF72DFF0346012860D9B0F1FF3F33D0F269824230D87B
S32508081060736973B37C1CA24298BF022421462846FFF71AFF0346012823D0B0F1FF3F20D047
S3250808108038B13469012C4ED9F369A34298BF3C46D9E7CCB14FF0FF3221463046FFF7AEFD1B
S325080810A0034600B957BB83BB34617269F369023B9A4201D8013A7261737943F001037371F5
S325080810C023461846BDE8F081B8463C460DE021462846FFF7E9FE03460028DBD00128F0D0F9
S325080810E0B0F1FF3FEDD0444519D00134F369A342EDD8B8F1010F10D90224E8E72246394613
S325080811003046FFF77BFD0346CDE7012B14BF01234FF0FF33D5E70123D3E70023D1E70023AC
S32508081120CFE701248CE73C468DE72DE9F0410C460568012931D906461146EB69A3422FD937
S325080811400AB900270AE04FF0FF322846FFF756FD84460028F5D025E0A24223D9A046214695
S325080811603046FFF7A1FE0446F8B1012820D0B0F1FF3F20D03A4641462846FFF73FFD844602
S3250808118080B96B69EA69911E8B42E5D201336B616B7943F001036B71DEE74FF0020C01E0BC
S325080811A04FF0020C6046BDE8F0814FF0000CF9E74FF0020CF6E74FF0010CF3E72DE9F84344
S325080811C00446066805692035B5F5001F03D300238361042014E088468369002B45D0C5F30E
S325080811E008073FB901338361416979B93389B3EB551F07D9256106F138033B44E361002095
S32508081200BDE8F883002383610420F9E77389013B13EA5523EED1FFF747FE8146012826D9F7
S32508081220B0F1FF3F25D0F369834212D8B8F1000F17D061692046FFF7F6FE8146D8B1012887
S325080812401BD0B0F1FF3F1AD001463046FFF762FCB8B9C4F8149049463046FFF7B1FBA0613A
S32508081260C8E70023A3610420CAE70420C8E70220C6E70120C4E70720C2E70220C0E7012085
S32508081280BEE70120BCE72DE9F843044605680669C16AB1F1FF3F1CD14FF0E50801274FF0CD
S325080812A00009A1692846FFF71CFC034668B9E26982F800802F712269B2420FD249462046E5
S325080812C0FFF77CFF03460028EBD0042B08BF022304E0FFF751FE03460028DDD01846BDE8F6
S325080812E0F88300002DE9F04F87B0044606680021FFF742FE8246002840F0C6804FF0FF33EB
S32508081300E3624FF0FF08C1461F4604F1200B0AE0E7624FF0FF0900212046FFF74FFF824693
S32508081320002840F0B180A1693046FFF7DAFB8246002840F0A980E5692B78002B00F0A2804C
S32508081340EA7A02F03F01A171E52BE1D012F0080F15D00F29DCD194F82B2012F0400FDAD158
S3250808136013F0400F25D095F80D8003F0BF032269E2626A7B424521D04FF0FF09CBE70F29E4
S32508081380E9D0B9F1000F04D12846FFF725FB40457ED094F82BA01AF0010A06D10B2259468A
S325080813A0284639F0DEFE00286ED0E7624FF0FF09B1E79945DDD04FF0FF09ACE7E97EAA7E22
S325080813C052EA01225BD1F26800922A7802F03F02013A02EB420102EB8101DFF8BCA001207D
S325080813E0CDF804800296059388460394CDF810B0DDF800B006E04FF6FF739C4236D1254BFD
S325080814009A451AD01AF8013BEA185278EC5C44EA02240028EFD0B8F1FF0F27D8204601F043
S325080814205DFD064608F101093BF8180001F056FD86421BD12046C846E1E7029E059B4146A7
S32508081440DDF80480039CDDF810B02A7812F0400F00D018B9013B5FFA83F95CE7009A32F83D
S325080814601120002AF6D04FF0FF0954E7DDF80480029E039CDDF810B04FF0FF094BE74FF0CE
S32508081480FF0948E74FF0040A504607B0BDE8F08FCA46F9E761850C0854850C082DE9F04F15
S325080814A089B090F82BA01AF0A00F40F0288104460568EB681A88BAB14FF0000909F1010995
S325080814C033F8022F002AF9D105AB206A616AA26A07C31AF0010F00F03A81402384F82B30CC
S325080814E04FF00108A14E4DE04FF00009ECE7434605AF072203F00F0000F130019C461B09C7
S32508081500392988BF00F1370107F8011D013A02D0BCF10F0FEED87E2102F120036B4403F8C9
S32508081520141C82B104F11F01002311F8010F202803D001339A42F8D11A461F33234420278D
S325080815400BE04346D4E71346F7E73946581C59701E3B1B1B072B09D80346072AF5D802F177
S325080815602001694411F8141C0132EFE72046FFF7B9FE0746002840F0E68008F10108B8F17C
S32508081580640F21D0EF6805AB03CB206261621A889B78228584F82A30B8F1050FA7D93A8886
S325080815A0002ACED04346102102F0010000EB4303520813F4803F18BF73400139F4D137F897
S325080815C0022F002AEFD193E7072799E04FF00108D4F8009000212046FFF7CEFC0746D0B9F8
S325080815E000264FF0010A08E00136B04517D051462046FFF7E3FD074668B9A1694846FFF79B
S3250808160070FA074638B9E3691B78E52BECD0002BEAD00026EBE7042F76D0002F70D1B8F1F2
S32508081620010B1ED1A1692846FFF75BFA0746002866D120220021E06939F0BDFDE369216AC4
S32508081640626A19605A60218D94F82A2019819A72E26994F82B3003F01803137301232B71C5
S325080816604EE02169A1EB4B112046FFF785FC0746002845D104F12000FFF7AEF900900026E4
S3250808168019E060464AE0DDF804B04FF6FF72934202D038F810300BB94AF0400A81F800A0B4
S325080816A001232B7131462046FFF788FD074638BBBBF1010BB6D0A1692846FFF712FA0746B7
S325080816C0F0B9D5F80C80E1695FFA8BFA009B4B734FF00F03CB720E738E76CE760AF1FF30F0
S325080816E000EB400300EB8300214A02F10D0E33464FF6FF774FF0FF09CDF804B011E00627AD
S32508081700384609B0BDE8F08F0727F9E792F800C001EB0C0B01F80C908BF80190013272456A
S32508081720B1D0BB42F2D000F1010C38F81030107801EB000B0B54180A8BF80100002BA0D1C5
S3250808174060463B46EAE70428DAD184F82BA01AF0020F3FF43BAF09F10C08064BA3FB0838E8
S325080817604FEA980808F1010832E700BF2110010054850C084FECC44E38B504460023037166
S325080817804FF0FF334363FFF7ACF900286BD194F8373294F8360240EA032594F8382002F13B
S325080817A01803DBB2012B01D9EB2A36D14AF655239D420AD094F8442094F8433043EA022397
S325080817C05A1E1A4214D003202DE008222D4904F18A0039F0C6FC002847D094F8442094F846
S325080817E0433043EA02235A1E1A4242D002201AE094F84520DAB3B3F5007F38D1531E134298
S325080818000BD194F8472094F8463053EA022304D094F84830013B012B06D94AF655239D42C9
S3250808182014BF0320022038BD94F84A2094F8493053EA0223F1D094F84C2094F84B3043EA3B
S3250808184002237F2B06D804F15800FEF7E3FFB0F5803FE2D394F84F2094F84E3053EA022321
S32508081860DBD00020DFE70420DDE70020DBE70320D9E794F84520B3F5007F01D1002ABDD172
S325080818800220D0E738080C082DE9F04F85B00E46144600230B60FFF7AFF80028C0F2208127
S325080818A0BC4B53F82050002D00F01F81356004F0FE042B786BB16878FEF760FF10F0010F05
S325080818C007D1002C00F00D8110F0040418BF0A2407E100232B706878FEF75CFF10F0010686
S325080818E040F005811CB110F0040F40F0028100212846FFF741FF022806D0042800F0FB802D
S32508081900012821D90D24ECE005F5FF776C4605F23E29A0463846FEF77DFF48F8040B1037A6
S325080819204F45F7D104F110074FF0030806E02846FFF722FF012807D9BC42DED054F8041B54
S325080819400029F4D14046F7E795F8442095F8433043EA02231BB2B3F5007F40F0CE8095F8DD
S325080819604F2095F84E3053EA022704D105F15C00FEF750FF0746D5F834902F6295F8488042
S3250808198085F8038008F1FF33DBB2012B00F2B78095F845406C81002C00F0B380631E2342F0
S325080819A040F0B18095F84A2095F8493043EA02230FFA83FB9A462B8113F00F0F40F0A580D8
S325080819C095F84C3095F84B0050EA032003D105F15800FEF71FFF95F8472095F8463053EA4A
S325080819E0022300F0948007FB08F803EB1A1242449042C0F08E80801AB0FBF4F1A042C0F0BA
S32508081A008A806548814200F288804FF6F570814200F28F8040F6F570814200F2C980023102
S32508081A204B44E961C5F82490AB624A442A63BAF1000F78D003EB080201EB410301F0010101
S32508081A4001EB53030121EA6203F2FF13B7EB532F67D34FF0FF336B612B6180236B7129707A
S32508081A604E4A138801339BB21380EB804C4BEB600023AB61344634E009F101012846FFF79F
S32508081A8030F858BB00236B7195F8372295F8363243EA02231BB2434A934201D00321DEE7E0
S32508081AA005F13800FEF7B6FE3F4B984201D00321D5E705F50770FEF7ADFE3C4B984201D0E1
S32508081AC00321CCE705F50870FEF7A4FE686105F50970FEF79FFE28610321C0E70321BEE725
S32508081AE00B24204605B0BDE8F08F0C24F9E70324F7E70A24F5E70124F3E70D24F1E70D240A
S32508081B00EFE70D24EDE70D24EBE70D24E9E70D24E7E70D24E5E70D24E3E70D24E1E70D24AF
S32508081B20DFE70D24DDE70D24DBE70D24D9E70D24D7E78C1CEC61C5F824904B44AB624A4471
S32508081B402A6395F8632095F8623043EA02231FFA8BFB5BEA030BE8D105F16400FEF75AFE0F
S32508081B60E862A30003F2FF13B7EB532FD7D34FF0FF336B612B6180236B7195F8692095F8A2
S32508081B80683043EA02231BB2012B3FF475AF032165E700BF60410024F5FFFF0F5E4100243C
S32508081BA05C3F002455AAFFFF525261417272416102314B44E961C5F82490AB624A442A63E2
S32508081BC0BAF1000FB3D008EB03024B0002213AE72DE9F04F83B00546894607684FF0FF0BD1
S32508081BE05C460426DA464FF0000864E00F2A52D113F0400F0AD090F80DB003F0BF032A6943
S32508081C00EA62427B5A4505D0FF244EE09C42F8D054464AE0FE680096C17E827E52EA0122DC
S32508081C206BD1047824F04004013C04EB440204EB8204364901F10D0E4FF0010C0193634682
S32508081C40B44605E04FF6FF76B24252D171450FD011F8012B86187678825C42EA0622002B0B
S32508081C60F0D0FF2C43D82CF8142013460134EDE79C46019B027812F0400F02D0BCF1000FB7
S32508081C8002D1013BDCB210E0FF2C36D80022009921F81420F5E71CB9FEF79EFE584531D080
S32508081CA04FF0FF33EB622DE0544641462846FFF785FA064620BBA969E9B13846FEF711FFE9
S32508081CC00646E8B9E8690378CBB1C27A02F03F02AA71E52BE8D02E2BE6D022F020010829F4
S32508081CE014BF00210121494580D05446DDE7FF24DBE7FF24D9E72EB102E0FF24D5E70426EA
S32508081D000023AB61304603B0BDE8F08F54850C080246C87E8B7E43EA00201378032B00D0D7
S32508081D2070474A7D0B7D43EA022340EA0340F7E72DE9F04F89B007468B46036802930B78BB
S32508081D402F2B0CD05C2B0AD0029B9B69BB609BF800301F2B0FD9DFF8A4A3B84612E12F2BBC
S32508081D6001D05C2B05D11BF8013F2F2BFBD05C2BF9D00023EAE7802387F82B300021384647
S32508081D80FFF7FAF8034688E1FE2C20D825F81460013407A8FEF752FDB0F1FF3F17D0B0F54D
S32508081DA0803F03D3030C25F81430013486B21F2E0FD92F2E00F08B815C2E00F088817F2EDD
S32508081DC0E2D83146504639F0FEF90028DCD0062363E10426DDF81CB0012C07D0022C19D0DF
S32508081DE0002C00F06C8105EB44021DE02B882E2BF9D1002325F8143008F11F029C4294BFEC
S32508081E0020212E2102F8011F01330B2BF6D146F0200696E06B882E2BE5D12B882E2BE2D13E
S32508081E20E7E7013C00F04E8132F8023D202BF8D02E2BF6D005EB4402002325F814302B88BA
S32508081E40202B40F0428128460021013130F8023F202BFAD0081E18BF01202E2B08BF40F081
S32508081E600100434203F003031E43134633F8022D2E2A01D0013CF9D14FF02033C8F82030E7
S32508081E80C8F82430C8F8273001F1010935F81170002F00F00D810023039308220192CDF86F
S32508081EA010B09B4608E046F00306F6B24B4603F1010935F81370FFB1202FF4D02E2F01D16B
S32508081EC04C45F0D1019B9B450CD24C450AD07F2F76D83946874839F076F9002800F0A780B4
S32508081EE005967FE0019B0B2B53D04C4502D046F00306F6B24C4559D2DDF810B098F8203062
S32508081F00E52B4FD0019B082B00F0B080039A02F00C030C2B03D002F00303032B02D146F0B6
S32508081F200206F6B216F0020F0BD1039A42F3000303F010033343DEB212F0040F01D046F0EB
S32508081F40080688F82B604046FFF7CCF998F82B100346002840F0948011F0040F40F09D8030
S32508081F6098F8063013F0100F00F0A080029800F13801D8F81030C3F308031944FFF7C8FEA5
S32508081F80C8F80800CDF81CB0D8F80030DD680024FFE6DDF810B046F00306F6B298F8203028
S32508081FA0E52BB3D1052388F82030ABE7039B9B00DBB2039323460B2201924FF0080B76E7B9
S32508081FC046F00203DBB2059340F25231384600F055FF074610F0800F11D000F07F07464B50
S32508081FE0DF5D17BB059B43F00303DEB25B465F2703F1010B434483F820704B4657E7FF28A5
S32508082000EFD9019B013B5B4508D90BF1010308EB0B02010A82F82010059EE9E746F0030622
S32508082020F6B24B46DDF804B041E7059E51E7A7F141039BB2192B05D8039B43F0020303930F
S325080820405B46D5E7A7F161039BB2192B07D8039B43F001030393203FBFB25B46C8E75B4675
S32508082060C6E700230393082301939BE7039B9B00DAB2039203F00C030C2B7FF453AF4EE766
S32508082080042B0AD111F0200F0BD011F0040F3FF479AF802388F82B300023184609B0BDE849
S325080820A0F08F11F0040F08BF0523F6E70523F4E798F82030E52BD4D00023039332E700231F
S325080820C02B8084E600232B8081E60021C2E6079B1A782F2A01D05C2A06D1013307931A78BC
S325080820E02F2AFAD05C2AF8D01F2A8CBF00260126B6006FE650080C08D4840C0844080C0835
S3250808210010B584B0019000911446039103A8FEF773FC00281ADB0E4B53F8203023B100228A
S325080821200B4941F820201A70019B2BB1587000221A70074A42F8203014B9204604B010BDB7
S32508082140002201A96846FFF79FFBF7E70B20F5E7604100242DE9F04790B00191002800F07E
S32508082160E2801446054602F03F073A4602A901A8FFF78AFB064628B100232B60304610B0B2
S32508082180BDE8F087DDF80880CDF80C80019903A8FFF7CEFD0346002840F0CA809DF9373071
S325080821A0002BC0F2CB8014F01C0F00F0D0809DF8123013F0110F40F0B28014F0040F0CD023
S325080821C00826D9E7042B40F0C08003A8FFF766F9002840F0A28047F0080717F0080F3FD16E
S325080821E0D8F834302B62DDF82890C5F8249049464046FFF78DFD0446A86009F11C00FEF718
S3250808220009FB8146E860C5F80080B8F80630AB802F7400216974E961696105F1280A4FF427
S325080822200072504638F0C7FF17F0200FA6D0B9F1000FA3D0C5F81490B8F80A305F02B9EB6A
S32508082240432F4ED82346AB61C9F30803002B95D021464046FEF7B4FB002850D102268BE790
S325080822602CF048F8044601460A980E30FEF7DDFA21460A981630FEF7D8FADDF8289049467D
S325080822804046FFF745FD0446202389F80B3000220A994046FEF745FD00210A981C30FEF79B
S325080822A0C4FA012388F8043014B947F0400797E7D8F834900022214603A8FEF736FF08B1FE
S325080822C0064659E749464046FEF70BFC013CC8F810400028E9D006464EE7A9EB07094F4564
S325080822E00BD221462846FEF7DFFD044601281CD9B0F1FF3FF1D1012618E00346A3E700EB5F
S325080823005922EA610123514698F80100FEF758FA00283FF433AF01262EE706462CE7072649
S325080823202AE7042628E7092628E70226AC6123E714F01C0F7FF446AF1E461DE714F01C0F92
S3250808234001D0062618E70623F6E71E4614E79DF8123013F0100FE4D114F0020F3FF440AF21
S3250808236013F0010F3FF43CAF072605E72DE9F04F87B004460F46934698460023C8F8003008
S3250808238005A9FEF767FB0646002840F0A380667C002E40F09F80237C13F0010900F0B98027
S325080823A0E36862699B1A9B4528BF9B46BBF1000F00F0908004F128030193CDF8089003962F
S325080823C0BA464FE0A1692046FEF76EFD5AE0022666747FE0DDF80890012363744E4679E0F8
S325080823E00226667476E094F91030002B01DB6D022CE0E069C01BA842F9D24FF4007204F19D
S3250808240028010AEB402039F0CDF8F0E7E269BA420DD094F91030002B60DB01233A4604F173
S32508082420280199F80100FEF7CBF9002869D1E7616169C1F30801C1F500755D4528BF5D468A
S325080824402A46019B1944504639F0ACF8D8F800302B44C8F80030AA4463692B446361BBEBA8
S32508082460050B54D06369C3F30802002AE0D1DDF81490B9F80A60013E16EA532608D1002B5B
S32508082480A0D1A0680128A2D9B0F1FF3FA2D0A061A1694846FEF794FA07460028A0D037443C
S325080824A0BBF5007FB2D34FEA5B25B9F80A3006EB5B229A4288BF9D1B2B463A46514699F84C
S325080824C00100FEF77DF900288DD0DDF80890012363744E46304607B0BDE8F08F012304F18F
S325080824E0280199F80100FEF779F920B9237C03F07F03237491E7DDF80890012363744E46AC
S32508082500E8E7DDF80890012363744E46E2E7039EE0E70726DEE72DE9F04F85B004460F468E
S32508082520154698460023C8F8003003A9FEF792FA8246002849D194F811A0BAF1000F44D1F6
S32508082540237C13F0020F00F0D5806369EB4228BFDD43002D00F0C98004F1280301939BE0D8
S32508082560A1692046FEF75FFD002800F0BE8001282FD0B0F1FF3F31D0A061A36803B9A0605E
S3250808258094F91030002B2EDBA1695846FEF718FA814600283AD0B144B5F5007F51D36B0AC5
S325080825A00093BBF80A3006EB55229A4201D99B1B0093009B4A4639469BF80100FEF70EF9E4
S325080825C048B34FF0010A84F811A0504605B0BDE8F08F4FF0020A84F811A0F6E74FF0010A65
S325080825E084F811A0F1E70123E26904F128019BF80100FEF7F3F820B9237C03F07F0323743B
S32508082600C2E74FF0010A84F811A0DEE74FF0020A84F811A0D9E7E169A1EB0901009B994231
S3250808262002D3009B5E0227E04FF4007207EB412104F1280038F0B6FF237C03F07F032374FF
S32508082640EFE7E3694B4503D06269E3689A423DD3C4F81C906069C0F30800C0F50076AE42D6
S3250808266028BF2E4632463946019B184438F09AFF237C63F07F032374D8F800303344C8F8F7
S3250808268000303744636933446361E2689A4238BF1A46E260AD1B28D06369C3F30802002A3D
S325080826A0D8D1DDF80CB0BBF80A60013E16EA53267FF466AF002B7FF453AFA06800287FF42A
S325080826C056AF00212046FEF7AEFC4DE701234A4604F128019BF80100FEF772F80028B7D011
S325080826E04FF0010A84F811A06FE7237C43F0400323746AE74FF0070A67E7F0B583B004463A
S3250808270001A9FEF7A7F978B9237C13F040000BD013F0800F0AD12BF0EDFD0546019E216A8F
S325080827203046FEF7DEF978B103B0F0BD0123E26904F1280101984078FEF750F828BB237C1B
S3250808274003F07F032374E6E7676AFB7A43F02003FB72A26839462068FEF7E3FAE16807F15D
S325080827601C00FEF762F8294607F11600FEF75DF80023BB74FB74012333713046FEF7FAF92A
S32508082780237C23F040032374CEE70120CCE710B582B00446FFF7B1FF08B102B010BD01A945
S325080827A02046FEF757F90028F7D12060F5E730B591B00190002202A901A8FFF765F8044642
S325080827C010B1204611B030BD029D0395019903A8FFF7AEFA044680B99DF93730002B09DB65
S325080827E09DF8123013F0100F0CD00A992846FFF78FFA00E00598A861E3E7042814BF0446C5
S325080828000524DEE70524DCE72DE9F04383B004460E4601A9FEF71EF9804698B994F81180C4
S32508082820B8F1000F0ED1E368B34205D2227C12F0020F40F0A1801E46636900226261002E8F
S3250808284040F09D80404603B0BDE8F083A568002D33D0A56185B1BE4256D863693344636116
S32508082860C6F30803002B6ED029464846FEF7A8F8002863D000EB56256369E268934204D9FA
S32508082880E360227C42F040022274C3F30803002BD8D0E269AA42D5D094F91030002B54DBA0
S325080828A001232A4604F1280101984078FDF788FF804600285BD1E561C4E700212046FEF7FD
S325080828C0B2FB0546012804D0B0F1FF3F06D0A060BFE74FF0020884F81180B3E74FF001085A
S325080828E084F81180AEE729462046FEF7DDFA0546B5F1FF3F18D0012D1BD9D9F81C30AB423C
S3250808290017D9A561B742A8D2F61B63693B446361237C13F0020FE6D029462046FEF783FB67
S3250808292005460028E4D1A7E74FF0010884F8118088E74FF0020884F8118083E74FF00208FE
S3250808294084F811807EE71D4696E7012304F1280101984078FDF742FF20B9237C03F07F035A
S3250808296023749DE74FF0010884F811806AE74FF0010884F8118065E7636900226261DDF859
S325080829800490B9F80A707F02002B3FF45FAF013B721EB2FBF7F2B3FBF7F18A42FFF456AFB9
S325080829A07A4213406361F61AA56953E730B585B0019188B30446002203A901A8FEF764FFD6
S325080829C0034620B100222260184605B030BD039D256001992046FFF7ABF9034698B994F93D
S325080829E02B30002B08DBA37913F0100F10D0E1692846FFF78DF9A060EB88A38000212046E9
S32508082A00FEF7BAFA0346042B04D0002BDCD0D9E70523D7E70523D5E70923D5E710B582B06B
S32508082A20044601A9FEF716F800B9206002B010BD70B582B004460D4601A9FEF70BF80346F2
S32508082A40A0B9B5B100212046FFF7C2F8034610F0FB060BD129462046FEF770F9002120468A
S32508082A60FEF7ACFB042814BF03463346184602B070BD00212046FEF77FFA0346F6E730B5A6
S32508082A8091B001900C46002203A901A8FEF7FCFE054610B1284611B030BD019903A8FFF733
S32508082AA047F905460028F5D19DF93730002B06DB002CEFD0214603A8FEF740F9EAE7062557
S32508082AC0E8E72DE9F04F89B001900F4600911446002207A901A8FEF7D7FE824638B9079E0F
S32508082AE026607369F569AA1E934204D83B60504609B0BDE8F08F3478012C06D0D6F8289044
S32508082B000024274606F138082AE003960225002703E00135F369AB4232D9294603A8FEF76A
S32508082B20C3F9B0F1FF3F33D0012833D00028F0D10137EEE709F1010B49463046FDF7D1FFF0
S32508082B4058BBD9460EE008EB0400FDF763FE30F0704308BF01370434C4F30804013D0FD009
S32508082B60002CE7D03378022BEDD108EB04035A7818F8043053EA022308BF01370234EBE74D
S32508082B80009B1F607761737943F001037371AEE7A246ACE74FF0020AA9E78246A7E770B5C0
S32508082BA09EB0019002221DA901A8FEF76DFE08B11EB070BD1D9C1094019910A8FFF7B8F824
S32508082BC00028F5D19DF86B3013F0200F32D113F0800F31D19DF8466016F0010F2ED11799F8
S32508082BE02046FFF795F8054616F0100F11D0A369834225D003940590002103A8FEF7BCF91D
S32508082C000028D5D1002103A8FEF7E2FFD0B10428CED110A8FEF737FB00B92DB90028C7D1A4
S32508082C202046FDF7A7FFC3E70022294610A8FEF77CFAF3E70620BBE70620B9E70720B7E7F3
S32508082C400720B5E70720B3E72DE9F04194B00190022213A901A8FEF717FE044618B12046B2
S32508082C6014B0BDE8F081139B0693019906A8FFF75FF80446E8B10428F1D19DF8433013F0AC
S32508082C80200F18D1139B0293002102A8FEF7CBF9054600286ED0012D0FD0B5F1FF3F0ED1BE
S32508082CA001242BF027FB0022294602A8FEF73DFAD5E70824D3E70624D1E70224F1E72BF098
S32508082CC019FB074629461398FDF724FF04460028E9D1139C04F138064FF02033C4F8393087
S32508082CE0C4F83D30A4F841304FF02E0884F83880102384F84330394604F14E00FDF795FD75
S32508082D002A4631462046FEF70CF8A06BE16B226C636CA065E16522666366A06CE16C226D1F
S32508082D20636DA066E1662267636784F85980089A04F158012046FDF7F4FF0123237106A815
S32508082D40FEF7ACFB04460028ADD139460D981630FDF76BFD139C2A460D992046FDF7E1FF0C
S32508082D600D9B1022DA72012323712046FDF702FF044674E72BF0BEFA072494E770B590B081
S32508082D8001900D46144602220FA901A8FEF77CFD08B110B070BD0F9E0296019902A8FEF7C8
S32508082DA0C7FF0028F5D19DF8333013F0A00F01D00620EEE70998C37A83EA050104EA010291
S32508082DC002F027025340C372012333713046FDF7D1FEDEE7134B5B7A13BB10B5044603F031
S32508082DE0FF00104B93F809C05FFA8CFC4FF0000E03F80CE093F809C003EB8C0CCCF8044018
S32508082E005C7A1C4422725A7A541CE4B25C7230320A703A234B702F238B7081F803E010BDC0
S32508082E20012070476441002408B50022FFF7D2FF08BD00000D4B5B7A9BB10378303BDBB284
S32508082E400A4A02EB830252686AB1084A02EB83010020486013441872537A013BDBB25372FA
S32508082E607047012070470120704700BF6441002408B50021FFF7DEFF08BD00007F2801D857
S32508082E8080B27047B0F5803F10D240F2523399420CD1074A002332F8021B814203D00133F9
S32508082EA09BB2802BF7D18033D8B270470020704714880C087F2806D9FF2803D840F2523382
S32508082EC0994201D000207047024B0344024A32F81300704780FFFF7F14880C08B0F5803F74
S32508082EE059D230B51FFA80FC2B4B2C4ABCF5805F38BF1346604604331D4633F8041C4A1E58
S32508082F0092B2944519D933F8022C140AD2B202EB010E704505DB0433002CEDD105EB4203AA
S32508082F20E9E7082C09D8DFE804F0050A13181D22272C3100401A35F810C0604630BDACEB5D
S32508082F40010303F00103ACEB03031FFA83FCF4E7ACF1100C1FFA8CFCEFE7ACF1200C1FFA3E
S32508082F608CFCEAE7ACF1300C1FFA8CFCE5E7ACF11A0C1FFA8CFCE0E70CF1080C1FFA8CFCBF
S32508082F80DBE7ACF1500C1FFA8CFCD6E7ACF5E35C1FFA8CFCD1E7704764850C0820860C085B
S32508082FA000F1080343604FF0FF328260C360036100230360704700230361704730B40D68AF
S32508082FC0B5F1FF3F11D000F108031C465B681A68AA42FAD963684B6099608C60616008612F
S32508082FE003680133036030BC70470469F2E70369416882688A60416851605A68824206D031
S32508083000002202611A68013A1A601868704782685A60F5E710B5044602F0E4F9A46B02F048
S3250808302003FAB4FA84F0400910BD70B504461546866B026C5AB903681BB100200136A66372
S3250808304070BD806801F074FD0023A360F6E76DB9406838F0A7FA6368226C13446360A268CC
S32508083060934219D3236863602846E7E7C06838F099FA226C5142E3689B1AE3602268934249
S3250808308002D2A3680B44E3600EB1022D01D00020D4E7013E0020D1E72846CFE70346026C1D
S325080830A06AB110B50846D9681144D9609C68A14201D31968D960D96838F074FA10BD70472D
S325080830C070B5054602F08EF995F8454064B2002C0FDD05F1240602E0013C64B24CB16B6A8A
S325080830E03BB1304601F012FB0028F5D001F0D8FBF2E7FF2385F8453002F096F902F072F9DE
S3250808310095F8444064B2002C0FDD05F1100602E0013C64B24CB12B693BB1304601F0F6FA45
S325080831200028F5D001F0BCFBF2E7FF2385F8443002F07AF970BD38B580B10D460446C36B7D
S325080831401BB1026CA2FB03238BB14FF0500383F31188BFF36F8FBFF34F8FFEE74FF05003C8
S3250808316083F31188BFF36F8FBFF34F8FFEE702F039F92268216CE36B01FB03F3D018A060A2
S325080831800020A06362605B1A1A44E260FF2384F8443084F84530B5B923691BB902F044F91F
S325080831A0012038BD04F1100001F0B0FA0028F5D04FF0E0234FF08052C3F8042DBFF34F8F87
S325080831C0BFF36F8FEAE704F11000FFF7E9FE04F12400FFF7E5FEE1E773B110B582B01C463F
S325080831E008B192B189B94FF0500383F31188BFF36F8FBFF34F8FFEE74FF0500383F3118814
S32508083200BFF36F8FBFF34F8FFEE70AB90029EAD150230193019B502B08D04FF0500383F3CE
S325080832201188BFF36F8FBFF34F8FFEE7019B012384F84630002908BF22462260E063216466
S3250808324019462046FFF777FF9DF8103084F84C30204602B010BDF8B550B10D4614460646CE
S32508083260A1FB002323B901FB00F010F1510F08D94FF0500383F31188BFF36F8FBFF34F8F8E
S32508083280FEE7503002F034FA074670B1002380F8463065B100F150033B60FE633D640121FB
S325080832A03846FFF748FF87F84C403846F8BD0346F2E710B582B010B10C46884208D24FF0F0
S325080832C0500383F31188BFF36F8FBFF34F8FFEE702230093134600221146FFF77DFF00B1A4
S325080832E0846302B010BD10B510B10C46884208D24FF0500383F31188BFF36F8FBFF34F8FF5
S32508083300FEE702220021FFF7A6FF00B1846310BD2DE9F04385B0019288B10E461D46044622
S32508083320B1B1022D20D1E36B012B1DD04FF0500383F31188BFF36F8FBFF34F8FFEE74FF089
S32508083340500383F31188BFF36F8FBFF34F8FFEE7036C002BE5D04FF0500383F31188BFF32E
S325080833606F8FBFF34F8FFEE701F07AFB804650B9019B53B14FF0500383F31188BFF36F8F9E
S32508083380BFF34F8FFEE74FF0000800273DE02A4631462046FFF749FE636A83B948B14FF04C
S325080833A0E0234FF08052C3F8042DBFF34F8FBFF36F8F02F039F8012005B0BDE8F08304F1B1
S325080833C0240001F0A3F90028F3D04FF0E0234FF08052C3F8042DBFF34F8FBFF36F8FE8E7ED
S325080833E002F022F80020E7E702A801F009FA1AE084F8447023E084F8457026E02046FFF75F
S325080834005FFE00F0EFFF4FF0010801F0EBFFA26BE36B9A42BBD3022DB9D0019B002BDFD045
S32508083420B8F1000FE0D001F0FFFF00F0EDFE01F0D9FF94F8442052B2B2F1FF3FD8D094F872
S32508083440452052B2B2F1FF3FD5D001F0EDFF01A902A801F0E1F900BB01F0C4FFD4F8389068
S32508083460D4F83C8001F0E0FFC145C7D1019904F1100001F009F92046FFF722FE00F0B2FF91
S325080834800028C0D14FF0E0234FF08052C3F8042DBFF34F8FBFF36F8FB5E72046FFF710FED8
S325080834A000F0A0FF002087E748B108B5002181600160C1600B460A46FFF72AFF08BD704763
S325080834C010B5024600210120FFF7C5FE0446FFF7EBFF204610BD10B582B00B460090002277
S325080834E011460120FFF778FE0446FFF7DDFF204602B010BD38B538B10446856801F0AAFA2F
S3250808350085420AD0002038BD4FF0500383F31188BFF36F8FBFF34F8FFEE7E368013BE3604F
S325080835200BB10120EFE71A4619462046FFF7F0FE0120E8E72DE9F84390B10F4616461C4624
S325080835400546B1B1022C20D1EB6B012B1DD04FF0500383F31188BFF36F8FBFF34F8FFEE754
S325080835604FF0500383F31188BFF36F8FBFF34F8FFEE7036C002BE5D04FF0500383F311887F
S32508083580BFF36F8FBFF34F8FFEE702F053F8EFF311884FF0500383F31188BFF36F8FBFF335
S325080835A04F8FAA6BEB6B9A4206D3022C04D0002088F31188BDE8F88395F845904FFA89F974
S325080835C0AB6B224639462846FFF72FFDB9F1FF3F0CD16B6A0BB90120EAE705F1240001F0ED
S325080835E095F8D6B1C8B101203060E1E700F022FE814514D2B9F17F0F06D009F101035BB2DA
S3250808360085F845300120D3E74FF0500383F31188BFF36F8FBFF34F8FFEE70120C8E7012010
S32508083620C6E7F8B560B10D460446036C8BB14FF0500383F31188BFF36F8FBFF34F8FFEE7FB
S325080836404FF0500383F31188BFF36F8FBFF34F8FFEE70368DBB101F0EDFFEFF311864FF002
S32508083660500383F31188BFF36F8FBFF34F8FA36BE26B9A4235D994F845707FB20133A363A1
S32508083680B7F1FF3F18D1636A6BB901202AE08368002BE0D04FF0500383F31188BFF36F8F12
S325080836A0BFF34F8FFEE704F1240001F02FF8E5B1D8B10120286015E000F0BCFD874216D237
S325080836C07F2F05D07B1C5BB284F84530012009E04FF0500383F31188BFF36F8FBFF34F8FD1
S325080836E0FEE7002086F31188F8BD0120FAE70120F8E72DE9F04184B0019288B10E46044601
S32508083700B9B101F0ADF98046F8B9019BFBB14FF0500383F31188BFF36F8FBFF34F8FFEE70D
S325080837204FF0500383F31188BFF36F8FBFF34F8FFEE7036C002BE4D04FF0500383F31188BE
S32508083740BFF36F8FBFF34F8FFEE74FF0000800273EE031462046FFF7A1FC013DA563236960
S325080837602BB901F061FE012004B0BDE8F08104F1100000F0CBFF0028F3D04FF0E0234FF0E9
S325080837808052C3F8042DBFF34F8FBFF36F8FE8E701F04AFE0020E7E702A801F031F822E059
S325080837A084F844702BE084F845702EE02046FFF787FC00F017FE09E02046FFF781FC00F0E3
S325080837C011FE2046FFF726FC002842D14FF0010801F008FEA56B002DBBD1019B002BD7D095
S325080837E0B8F1000FD8D001F01FFE00F00DFD01F0F9FD94F844305BB2B3F1FF3FD0D094F849
S3250808380045305BB2B3F1FF3FCDD001F00DFE01A902A801F001F80028CED12046FFF7FAFB3F
S325080838200028C3D0019904F1240000F02DFF2046FFF746FC00F0D6FD0028C7D14FF0E02385
S325080838404FF08052C3F8042DBFF34F8FBFF36F8FBCE7002088E7F0B585B0019158B1044624
S32508083860036C8BB14FF0500383F31188BFF36F8FBFF34F8FFEE74FF0500383F31188BFF36E
S325080838806F8FBFF34F8FFEE701F0EAF8074650B9019B63B14FF0500383F31188BFF36F8F75
S325080838A0BFF34F8FFEE70026374600254AE00646FBE7013BA36323683BB123694BB901F023
S325080838C0B3FD0126304605B0F0BD01F0E3F9A060F3E704F1100000F019FF0028EFD04FF049
S325080838E0E0234FF08052C3F8042DBFF34F8FBFF36F8FE4E701F098FD0026E3E702A800F097
S325080839007FFF29E084F8445032E084F8455035E001F068FDA06801F0B3F8064601F084FD0A
S325080839203CE02046FFF7CCFB00F05CFD09E02046FFF7C6FB00F056FD2046FFF76BFB0028B6
S3250808394043D1012701F04EFDA36B002BB1D1019B002BCFD0002FD1D001F066FD00F054FC54
S3250808396001F040FD94F844305BB2B3F1FF3FC9D094F845305BB2B3F1FF3FC6D001F054FDB3
S3250808398001A902A800F048FF0028D0D12046FFF741FB0028C5D02368002BB9D0019904F19A
S325080839A0240000F071FE2046FFF78AFB00F01AFD0028C6D14FF0E0234FF08052C3F8042D88
S325080839C0BFF34F8FBFF36F8FBBE7002E3FF47AAF01F008FD616A19B1236B1968C1F13801E0
S325080839E0A06801F0F9F801F01FFD00266AE780B170B50C460546866801F02CF8864211D0A4
S32508083A0021462846FFF727FF80B1EB680133EB600CE04FF0500383F31188BFF36F8FBFF3AD
S32508083A204F8FFEE7EB680133EB60012070BD2DE9F843B0B10E4690460446D9B101F0FAFDF5
S32508083A40EFF311854FF0500383F31188BFF36F8FBFF34F8FA76BCFB9002085F31188BDE887
S32508083A60F8834FF0500383F31188BFF36F8FBFF34F8FFEE7036C002BE0D04FF0500383F39D
S32508083A801188BFF36F8FBFF34F8FFEE794F844904FFA89F931462046FFF700FB7B1EA363BA
S32508083AA0B9F1FF3F0FD123690BB90120D5E704F1100000F02BFEB8F1000F1BD0D0B1012098
S32508083AC0C8F80000C9E700F0B5FB814514D2B9F17F0F06D009F101035BB284F844300120EA
S32508083AE0BBE74FF0500383F31188BFF36F8FBFF34F8FFEE70120B0E70120AEE740B110B524
S32508083B00044601F06FFCA46B01F08EFC204610BD4FF0500383F31188BFF36F8FBFF34F8F4B
S32508083B20FEE708B1806B70474FF0500383F31188BFF36F8FBFF34F8FFEE7000038B170B45C
S32508083B40044691B1134B002002461D4613E04FF0500383F31188BFF36F8FBFF34F8FFEE7E1
S32508083B600C4800EBC2000160446070BC704701320833102A0AD05E68A642F1D00028F6D166
S32508083B8055F83260002E08BF1846F0E70028EAD1EBE700BF70410024014648B100230D4805
S32508083BA050F833208A420CD00133102BF8D170474FF0500383F31188BFF36F8FBFF34F8FDC
S32508083BC0FEE7054A002142F8331002EBC3025160704700BF744100247041002438B110B5C8
S32508083BE00446FFF7D9FF94F846304BB110BD4FF0500383F31188BFF36F8FBFF34F8FFEE706
S32508083C00204601F00DFEF1E770B504460D46164601F0E8FB94F844305BB2B3F1FF3F0DD096
S32508083C2094F845305BB2B3F1FF3F0BD001F0FCFBA36B5BB12046FFF743FA70BD002384F83C
S32508083C404430EDE7002384F84530EFE73246294604F1240000F030FDECE70000074B1B6857
S32508083C601B6823B9064B4FF0FF321A607047034B1B68DB681A68024B1A60704764420024FF
S32508083C80FC4100242DE9F843074689469846089E0A9C95002A46A521206B37F08CFA043DD2
S32508083CA0236B2B4423F007056564B9F1000F0FD009F1FF3204F1330C09F10F0312F8011FDC
S32508083CC00CF8011F09B19A42F8D1002384F84330372E08D94FF0500383F31188BFF36F8FA2
S32508083CE0BFF34F8FFEE7E6622665201DFFF763F904F11800FFF75FF92461C6F13806A661FB
S32508083D0064624FF4A072002104F1600037F053FA174B636603F16802A266D033E366012288
S32508083D200023C4E93E2343F20E33A4F800314AF6CD33A4F8023141F23423A4F804314EF24F
S32508083D406D63A4F806314DF6EC63A4F808310523A4F80A310B23A4F80C31424639462846C8
S32508083D6001F018FB2060099B03B11C60BDE8F8835C09052470B5054601F034FB374A13689B
S32508083D8001331360364B1B685BB1364B1B686BB9334B1B68DA6AEB6A9A4207D8304B1D60E1
S32508083DA004E02F4B1D601368012B37D02E4A136801331360AB64EB6A2C4A1268934201D9C7
S32508083DC02A4A13602A4A03EB830302EB83035B68AB609868E860291D41609960EB6A03EB52
S32508083DE08301880002EB8101696111580131115001F01AFB1B4B1B687BB1194B1B68DA6A26
S32508083E00EB6A9A4209D24FF0E0234FF08052C3F8042DBFF34F8FBFF36F8F70BD144C04F57B
S32508083E208C662046FFF7BCF81434B442F9D1114E3046FFF7B5F8104C2046FFF7B1F80F4832
S32508083E40FFF7AEF80E48FFF7ABF80E48FFF7A8F80D4B1E600D4B1C60A8E700BF1C4200245B
S32508083E60F0460024104200240042002414420024904200247C420024684200244C42002424
S32508083E803842002420420024644200246042002410B504460F4B1868603037F0C1FA94F871
S32508083EA0A53163B1012B11D0022B0ED04FF0500383F31188BFF36F8FBFF34F8FFEE7206B99
S32508083EC001F0AEFC204601F0ABFC10BD204601F0A7FCFAE7F046002480B5154C154F164ED3
S32508083EE0DFF858802368A3B101F07CFAFB68DD68281DFFF77CF83368013B33602368013B2F
S32508083F00236001F091FA2846FFF7C2FF2368002BEAD1D8F80030012BE4D94FF0E0234FF08C
S32508083F208052C3F8042DBFF34F8FBFF36F8FD9E734420024384200241C42002490420024FD
S32508083F4070B504460D461D4B1E681D4B18680430FFF74DF8B4F1FF3F14D19DB1194A516812
S32508083F60174B1868816018688C68C4601868043060601868043088601B685A6113680133D3
S32508083F80136070BD34440E4B1B685C60A64207D90D4B18680A4B19680431FFF70FF8F0E7DC
S32508083FA00A4B1868064B19680431FFF707F8084B1B68A342E5D9064B1C60E2E7184200248D
S32508083FC0F0460024204200246042002464420024FC4100242DE9F04186B00D9EAEB1044629
S32508083FE0884617461D460E9BC3B14FF4D4730493049BB3F5D47F1AD04FF0500383F31188BA
S32508084000BFF36F8FBFF34F8FFEE74FF0500383F31188BFF36F8FBFF34F8FFEE74FF050030D
S3250808402083F31188BFF36F8FBFF34F8FFEE7049B4FF4D47200210E9837F0BDF80E9B1E6341
S3250808404002230E9A82F8A53100230393029205AB01930C9B00932B463A4641462046FFF78E
S3250808406011FE0E98FFF786FE059806B0BDE8F0812DE9F04385B00746884614461E469000AB
S3250808408001F036FB28B381464FF4D47001F030FB0546C0B14FF4D472002137F08CF8C5F8D5
S325080840A030900023039302950D9B01930C9B00933346224641463846FFF7E4FD2846FFF743
S325080840C059FE012007E0484601F0AAFB4FF0FF3001E04FF0FF3005B0BDE8F083F8B5D0B18F
S325080840E004461A4B1B6883422CD001F07BF96569174B1E68174B1F6801F096F9B54223D049
S32508084100BD4221D0144B9D420ED0CDB1134B9D4216D0012017E04FF0500383F31188BFF371
S325080841206F8FBFF34F8FFEE7A36A0BB102200AE094F8A431DBB2012B14BF0320022002E00D
S32508084140042000E00020F8BD0220FCE7F0460024644200246042002420420024384200245D
S3250808416010B588B000240594069407AA06A905A82BF04AFB059B0293069B01930094234601
S32508084180079A19491948FFF725FF48B301F008F801280BD0B0F1FF3F22D14FF0500383F3C1
S325080841A01188BFF36F8FBFF34F8FFEE74FF0500383F31188BFF36F8FBFF34F8F0C4B1B6870
S325080841C060330C4A13600C4B4FF0FF321A600B4B01221A600A4B1C6029F054FA01F09CF97B
S325080841E0084B1B6808B010BD58080C08D93E0808F04600247C3C0024FC41002410420024A6
S325080842001842002414890C08024A136801331360704700BFF8410024014B1868704700BFD6
S325080842201842002408B501F005FA014B186808BD18420024014B1868704700BF1C4200246A
S325080842402DE9F8435C4B1B68002B40F0AD805B4B1C6801341C60C4B9594B1B681B6843B14F
S325080842604FF0500383F31188BFF36F8FBFF34F8FFEE7534A1168534B186810601960524AA9
S32508084280136801331360FFF7E9FC504B1B68A34278D84B4B1B681B6843B1002048498146B0
S325080842A0DFF83CC14A4ADFF82CE140E00020474B4FF0FF321A6066E0444B1E6063E0DD6805
S325080842C07D6044E0C3F82890D7F8008008F1FF38C7F80080DF6ADCF80080474501D9CCF8CF
S325080842E0007007EB870702EB87077F689F60D7F80880C3F80C80C8F80460BE60DE6A06EB3E
S32508084300860702EB8708C3F8148052F82770013706EB860642F82670DEF80070DE6AFB6AD6
S325080843209E4288BF01200B681B68002BBFD00B68DB68DB685E68B442BED35F69DE689D6816
S32508084340AE609D6875601E1D7D68B542B7D0C3F81490D7F8008008F1FF38C7F800809F6A9B
S32508084360002FB7D0D3F82080DD69C5F80880DD69C8F8045003F118087D684545A2D11D6AA4
S325080843807D609FE70020134B1B68DB6A03EB83039B000F4AD358022B28BF01200E4B1B68BA
S325080843A0002B18BF012004E00C4A1368013313600020BDE8F88300BFF8410024184200248E
S325080843C0644200246042002404420024FC41002490420024F0460024084200240C4200243C
S325080843E0144200242DE9F843544B1B6843B94FF0500383F31188BFF36F8FBFF34F8FFEE7F8
S3250808440000F0F0FF4D4B1A68013A1A601B68002B40F08C804A4B1B68002B00F08D80494B1A
S325080844201B68002B62D047480021DFF828C1464ADFF824E1454D4FF0010908E01C6A74608D
S3250808444012E0DC6874601DE00368002B4CD0C368DB689E6A1F6ADC69A760DC697C6003F12D
S3250808446018077468BC42E9D099623768013F37605E69DF689C68A7609C687C601F1D7468F2
S32508084480BC42DED05961D6F8008008F1FF38C6F80080DE6ADCF80080464501D9CCF80060BF
S325080844A006EB860602EB860676689E60D6F80880C3F80C80C8F80470B760DE6A06EB860766
S325080844C002EB8708C3F8148052F82770013706EB860642F82670DEF80070DE6AFB6A9E42C2
S325080844E0B2D3C5F80090AFE7FFF7B8FB184B1C686CB1164E012501E0013C05D0FFF7A0FE80
S325080845000028F9D03560F7E7114B00221A600F4B1C6864B14FF0E0234FF08052C3F8042DF7
S32508084520BFF34F8FBFF36F8F012400E0002400F07BFF2046BDE8F8830024F8E7F8410024AC
S325080845401C4200244C42002490420024084200240C42002414420024F046002410B5A8B149
S325080845600446104B1B6843B14FF0500383F31188BFF36F8FBFF34F8FFEE7FFF745FE0021E9
S325080845802046FFF7DDFCFFF72DFF48B94FF0E0234FF08052C3F8042DBFF34F8FBFF36F8F2E
S325080845A010BD00BFF841002408B52F4B1B681BB12E4B01221A6008BD2C4B00221A6029F06F
S325080845C06DF82B4B18601B682A4A1268934207D9274B1868284B19688B6D9B1A03448B6582
S325080845E0234B1A68234B1A60244B1B6803EB8302920023498A588AB93BB1013B03EB8302AA
S3250808460051F8222052B9002BF7D14FF0500383F31188BFF36F8FBFF34F8FFEE7184A03EBE5
S32508084620830102EB810148684068486003EB830102EB8102083290420FD003EB8301104AD8
S3250808464002EB81025268D1680B4A11600B490B60136860330B4A1360ADE74068084A02EB0B
S3250808466081025060E9E700BFF841002408420024F0410024F4410024F04600241442002415
S32508084680904200247C3C002458B110B50C46094A11681831FEF792FC01212046FFF750FCB0
S325080846A010BD4FF0500383F31188BFF36F8FBFF34F8FFEE7F046002438B5E0B18C46114650
S325080846C005464268104B1868C2611868946804621868183060601868183090601B689D622D
S325080846E02B6801332B6000290CBF60464FF0FF30FFF726FC38BD4FF0500383F31188BFF3EA
S325080847006F8FBFF34F8FFEE7F0460024C368DB68002B4BD010B49A6AD869196A8160D86954
S32508084720486003F118005168814248D0002199621168013911602C4A1268002A45D15A69E8
S325080847409868D968816098684860181D5168814238D000215961116801391160DA6A234911
S3250808476009688A4201D921490A60214902EB820201EB820252689A609468DC606060906051
S32508084780DA6A02EB8200840001EB80005861085901300851174A1168DA6ACB6A9A4220D994
S325080847A00120154B18605DF8044B70474FF0500383F31188BFF36F8FBFF34F8FFEE7196A46
S325080847C05160B3E7D9685160C3E70C4A5168D9618C681C62606088609A6211680131116061
S325080847E0D8E70020DFE700BFF84100241442002490420024F0460024084200244C420024F8
S32508084800034B1B680360034B1B684360704700BF0442002418420024D0B170B50C46054639
S32508084820F9B100F0DFFD1C4B1A682368B3F1FF3F2CD06968194800682E68864201D09142FE
S3250808484018D9501A834219D80023236001241EE04FF0500383F31188BFF36F8FBFF34F8F87
S32508084860FEE74FF0500383F31188BFF36F8FBFF34F8FFEE700232360012408E09B1A0B44C0
S3250808488023602846FFF7BCFF002400E0002400F0CBFD204670BD00BF184200240442002446
S325080848A0014B01221A6070470842002470B50C4616460546D0B1256005F134026260EA6A6E
S325080848C022612A6BE261AA6CA2602A6D6261AA6DA261052B19D0184A1268AA4209D023738B
S325080848E0032B09D0B6B90023238470BD124A1568E1E700232373F5E7FFF786FCAB6A0BB1B6
S3250808490002232373FFF76EFDECE72846FFF7E6FB2073E7E7296B0B78A52B0BD10B4618467A
S3250808492013F8012FA52AFAD0C1F101030344C3F38F03D9E70023FAE7F04600242DE9F84FCD
S325080849400E6846B30C4617464B685B684B6001F10808434507D06368D3F80CA005460026EE
S325080849604FF001090FE0CB684B60F4E76368D3F80CB03B464A4629465846FFF797FF0136FD
S325080849802435DA4507D06368596861608845EDD14B686360EAE73046BDE8F88F2DE9F843A0
S325080849A007460C461646FFF72FFC244B1B68A3423DD8234DA5F24C4900244FF0010804EBE2
S325080849C0C4004246294607EB8000FFF7B7FF04444D45A5F11405F2D11A4B196804EBC40003
S325080849E0022207EB8000FFF7A9FF0444164B196804EBC400022207EB8000FFF79FFF04441E
S32508084A0004EBC4000422114907EB8000FFF796FF044404EBC40003220D4907EB8000FFF772
S32508084A208DFF044426B128F039FE306000E00024FFF7D8FC2046BDE8F88300BF1C42002441
S32508084A40DC46002464420024604200243842002420420024014B1868704700BFF0460024AA
S32508084A60054B1B6833B1054B1868B0FA80F04009400070470120704710420024F841002494
S32508084A8000284CD038B50446C36A264A1268D26A93423BD28269002A05DB224A1268D26A39
S32508084AA0C2F13802826103EB83031F4A02EB830362699A4205D01B4B1B68DB6AE3620120B0
S32508084AC02CE0251D2846FEF792FA164B1B68DB6AE362164A1268934201D9144A1360124A5F
S32508084AE003EB830302EB83035B68A3609968E1604D609D60E36A03EB8301880002EB810151
S32508084B006161115801311150012007E0054B1B68006DDB6A98422CBF0020012038BD002019
S32508084B20704700BFF04600249042002414420024002848D038B50446244B1B68834208D019
S32508084B404FF0500383F31188BFF36F8FBFF34F8FFEE7436D43B94FF0500383F31188BFF37A
S32508084B606F8FBFF34F8FFEE7013B4365C16A026D914200D00BB1002038BD051D2846FEF735
S32508084B8036FA236DE362C3F13802A261104A1268934201D90E4A13600E4A03EB830302EB02
S32508084BA083035B68A3609968E1604D609D60E36A03EB8301880002EB810161611158013194
S32508084BC011500120D8E70020704700BFF04600241442002490420024002853D038B504469C
S32508084BE0436D43B94FF0500383F31188BFF36F8FBFF34F8FFEE7026D914238BF1146C26A71
S32508084C00012B01D18A4200D138BD1F4B1B6883422FD0C1628369002B02DBC1F13801816159
S32508084C2002EB8202194B03EB820362699A42EBD1251D2846FEF7DBF9E36A154A126893423F
S32508084C4001D9134A1360114A03EB830302EB83035B68A3609968E1604D609D60E36A03EB65
S32508084C608301880002EB81016161115801311150CAE74FF0500383F31188BFF36F8FBFF331
S32508084C804F8FFEE7704700BFF04600249042002414420024054B1B6823B1044B1A68536DC3
S32508084CA001335365014B1868704700BFF046002438B540B14FF0500383F31188BFF36F8F27
S32508084CC0BFF34F8FFEE70D46144600F08BFB1C4B1B68D3F8A0312BB9194B1B68012283F837
S32508084CE0A421BCB900F0A0FB00F07CFB144B1B68D3F8A0412CB1E5B1114B1B680022C3F8B5
S32508084D00A0210F4B1B68002283F8A42100F08CFB204638BD11462046FFF712F94FF0E023AB
S32508084D204FF08052C3F8042DBFF34F8FBFF36F8FD8E7034B1B68621EC3F8A021E1E700BF0D
S32508084D40F046002441B14FF0500383F31188BFF36F8FBFF34F8FFEE770B5044616461D46FD
S32508084D60A0B100F03FFB049B1BB1D4F8A031049A136094F8A431DBB2022284F8A421042D05
S32508084D8027D8DFE805F0110C181E21004FF0500383F31188BFF36F8FBFF34F8FFEE7D4F83C
S32508084DA0A0213243C4F8A021012B1FD0012400F03BFB204670BDD4F8A0210132C4F8A021F4
S32508084DC0F2E7C4F8A061EFE7022B5AD0C4F8A061EAE72E4A1268002AE6D04FF0500383F392
S32508084DE01188BFF36F8FBFF34F8FFEE76369A168E2688A60A1685160211D5A688A422BD055
S32508084E00002262611A68013A1A60E36A204A1268934201D91E4A13601E4A03EB830302EBDC
S32508084E2083035B68A3609868E06041609960E36A03EB8301880002EB810161611158013123
S32508084E401150A36A5BB14FF0500383F31188BFF36F8FBFF34F8FFEE7E2685A60D0E70E4BE8
S32508084E601B68E26ADB6A9A420DD94FF0E0234FF08052C3F8042DBFF34F8FBFF36F8F0124A2
S32508084E8095E7002493E7012491E700BF184200241442002490420024F046002408B54160E0
S32508084EA0006191420CD8D21A83699A4201D3012008BD011D094B1868FEF780F80020F7E7F9
S32508084EC09A4203D2994201D30120F1E7011D044B1868FEF773F80020EAE700BFF04700240B
S32508084EE0F447002470B504460D46164604E0A3691D44236A20469847A1692B46324629449C
S32508084F002046FFF7CBFF0028F1D170BD70B505460E460D4B1B68DB68DC68201DFEF767F887
S32508084F2094F8283013F0040F07D123F0010384F82830236A2046984770BD32462946204652
S32508084F40FFF7D0FFF5E700BFF4470024F8B50546FFF762F90446104B1B68834205D8002346
S32508084F602B600D4B1C602046F8BD0C4B1B681A685AB14FF0FF37094EDB6839461868FFF736
S32508084F80C5FF33681A68002AF6D1054A10680349086013600123E3E7E4470024F44700249F
S32508084FA0F04700242DE9F04186B05E4F5E4D3B681E68002E00F0A880DB681E68FFF724F960
S32508084FC002A8FFF7C3FF0446029A002A40F0A680B04213D2311B2868FEF716FEFFF702FA45
S32508084FE0002840F09D804FF0E0234FF08052C3F8042DBFF34F8FBFF36F8F91E0FFF7F2F955
S3250808500021463046FFF782FF8AE0484B1B681A68B2FA82F25209DDE705990498039B98472E
S32508085020029B002B09DA224602A92868FEF761FB0028BCD0029B002BEEDB049E736913B134
S32508085040301DFDF7D4FF01A8FFF780FF8046029B013B082BE7D8DFE803F00505293049050C
S325080850600529300096F8283043F0010386F82830039BB169024619443046FFF70FFF0028CA
S32508085080D1D096F8283013F0040F07D123F0010386F82830336A30469847C4E7B369424657
S325080850A0039919443046FFF71DFFF3E796F8283023F0010386F82830B5E796F8283043F0F7
S325080850C0010386F828300399B16131B10346024601443046FFF7E2FEA5E74FF0500383F39A
S325080850E01188BFF36F8FBFF34F8FFEE796F8283013F0020F04D023F0010386F8283092E7A8
S32508085100304600F08DFB8EE7FFF77EF802A8FFF71DFF0446029B002B3FF477AFFFF762F932
S32508085120002480E7F4470024EC470024F047002430B583B000F056F9114B1B681BB100F0CB
S3250808514073F903B030BD0F4D2846FDF729FF0E4C2046FDF725FF0D4B1D600D4B1C600023A3
S3250808516000930C4B0C4A10210A20FEF735F8044B18600028E3D00949FEF7E0FCDFE700BF12
S32508085180EC4700240C480024F8470024F4470024F0470024F44600244447002460080C0884
S325080851A010B588B0FFF7C4FF124B1B68CBB100240594069407AA06A905A82AF031FB059B7D
S325080851C00293069B0193172300932346079A0A490A48FEF7FFFE0A4B186010B1012008B01A
S325080851E010BD4FF0500383F31188BFF36F8FBFF34F8FFEE7EC47002468080C08A54F080827
S32508085200E8470024F0B583B01C462C230193019B2C2B08D04FF0500383F31188BFF36F8FEC
S32508085220BFF34F8FFEE706460F461546019B099B6BB10223099A82F8283089B94FF050031D
S3250808524083F31188BFF36F8FBFF34F8FFEE74FF0500383F31188BFF36F8FBFF34F8FFEE73E
S32508085260FFF766FF099B1E609F61DC61089B099A1362101DFDF79FFE3DB1099B93F8283070
S3250808528043F00403099A82F82830099803B0F0BDD8B19C4603461548006828B300B585B00A
S325080852A0009101920293052918DCFFF7D9FB02284FF000030CBF069A1A4669460B48006892
S325080852C0FEF726F805B05DF804FB4FF0500383F31188BFF36F8FBFF34F8FFEE7002362460B
S325080852E06946FEF727F9EDE700207047EC47002440B110B5044600F075F8E46900F094F8AC
S32508085300204610BD4FF0500383F31188BFF36F8FBFF34F8FFEE7000082B0002301930D4B3D
S325080853201B68B3F1FF3F08D04FF0500383F31188BFF36F8FBFF34F8FFEE74FF0500383F34C
S325080853401188BFF36F8FBFF34F8F019B002BFCD002B070470000002408480068006880F3AB
S3250808536008884FF0000080F3148862B661B6BFF34F8FBFF36F8F00DF00BF000008ED00E057
S32508085380DFF80C00016841F4700101607047000088ED00E04FF0807340F8043C21F00101DB
S325080853A040F8081C054B40F80C3C40F8202C6FF0020340F8243C4438704700BF19530808BD
S325080853C0074B19680868B0E8F04F80F30988BFF36F8F4FF0000080F311887047AFF30080C5
S325080853E0F04600244FF0500383F31188BFF36F8FBFF34F8F0B4A136801331360012B00D0E9
S3250808540070474FF0E023D3F8043D13F0FF0FF7D04FF0500383F31188BFF36F8FBFF34F8FB8
S32508085420FEE700BF00000024094B1B6843B94FF0500383F31188BFF36F8FBFF34F8FFEE7F5
S32508085440013B034A13600BB983F31188704700BF00000024000000000000000000000000CD
S32508085460EFF30980BFF36F8F154B1A681EF0100F08BF20ED108A20E9F04F10602DE90900A7
S325080854804FF0500080F31188BFF34F8FBFF36F8FFFF78AF84FF0000080F3118809BC196812
S325080854A00868B0E8F04F1EF0100F08BFB0EC108A80F30988BFF36F8F704700BFAFF3008019
S325080854C0F046002408B54FF0500383F31188BFF36F8FBFF34F8FFEF7B3FE28B14FF0E023FD
S325080854E04FF08052C3F8042D002383F3118808BD4FF0E022002313619361054B1B680549B5
S32508085500A1FB03139B09013B53610723136170473C380024D34D62104FF0E023D3F8002D76
S325080855203E4B9A423BD04FF0E023D3F8002D3C4B9A423DD030B583B03A4B1A78D2B20192F5
S32508085540FF221A701B78DBB28DF803309DF8033003F05003344A1370344B07221A609DF8EC
S32508085560033013F0800F11D006229DF803305B00DBB28DF803309DF803301146013A13F082
S32508085580800FF2D103291CD0284B19604FF0500383F31188BFF36F8FBFF34F8FFEE74FF09A
S325080855A0500383F31188BFF36F8FBFF34F8FFEE74FF0500383F31188BFF36F8FBFF34F8F6D
S325080855C0FEE71A4B4FF440721A60019BDBB2154A13704FF0E024D4F8203D43F47003C4F81F
S325080855E0203DD4F8203D43F07043C4F8203DFFF77FFF00250E4B1D60FFF7C2FED4F8343FAC
S3250808560043F04043C4F8343FFFF7A6FEFEF7CCFFFFF782FE284603B030BD00BF71C20F416F
S3250808562070C20F4100E400E0244800242048002400000024EFF305830F2B0FD9114A9B5CF0
S32508085640DBB2114A12789A4208D94FF0500383F31188BFF36F8FBFF34F8FFEE74FF0E023FD
S32508085660D3F80C3D03F4E063084A1268934208D94FF0500383F31188BFF36F8FBFF34F8F63
S32508085680FEE77047F0E300E0244800242048002410B4154B1A461B688342FBD35468111909
S325080856A088420AD0446801198B4210D00360824200D010605DF8044B70474168214451603C
S325080856C00C4611448B4201D01360F3E71046074909688B4205D05B682344436013681B689E
S325080856E0E4E70B46E2E700BF3C4800243848002470B50446FEF788FD434B1B68A3B1002C2A
S325080857007CD004F00700A0F11103A34276D304F1100CACEB0001002970DD3C4B1D688D425F
S325080857206CD33B4A146823E03A4A12F0070F1AD0D11D21F0070102F50032531A0A46344821
S325080857400260002141601344083B23F007032E48036059601960991A516013602E4B196084
S325080857602A4B1960CBE74FF40033E8E722461C4663688B4202D22368002BF7D1224B1B688A
S32508085780A3423BD01668083623681360A0EB0C0362681344102B10D9601810F0070F08D004
S325080857A04FF0500383F31188BFF36F8FBFF34F8FFEE743606160FFF76BFF6368ED1A134A1A
S325080857C01560154A1268954201D2134A156043F00043636000232360104A1368013313608E
S325080857E0FEF700FE16F0070F0BD04FF0500383F31188BFF36F8FBFF34F8FFEE7FEF7F2FDFF
S325080858000026304670BD00BF38480024344800243C48002444480024304800242C4800241A
S3250808582088B310B5044650F8043C002B08DB4FF0500383F31188BFF36F8FBFF34F8FFEE7AC
S3250808584050F8082C42B14FF0500383F31188BFF36F8FBFF34F8FFEE723F0004340F8043C2F
S32508085860FEF7D2FC084A54F8043C11680B441360A4F10800FFF70CFF044A13680133136028
S32508085880FEF7B0FD10BD7047344800242848002410B50C460A680C3201F0E2FC00B110BD84
S325080858A094F90400FBE7000070B5B0B10D4606460A2005F0E7FE044690B10660057229F0B5
S325080858C015FAE06021460848FFF7E2FF054621460A2005F0F9FE284670BD6FF00F05FAE71E
S325080858E04FF0FF35F7E700BFBD6F0808F8B504460F4615460A2005F0C5FE0646002850D029
S325080859002946204601F058F8044630B13772306031462548FFF7BCFF28B931460A2005F0EB
S32508085920D3FE2046F8BD63682BB1204BA3222049204835F017FB04F1100528460EF0C4FC50
S32508085940D0B104F114000EF0BFFCE0B904F10C0738460EF0FFFCE8B138460EF0F6FC284661
S325080859600EF06DFC2146082005F0AEFE31460A2005F0AAFE0024D4E70C4BA4220E490D4894
S3250808598035F0F0FADDE7094BA6220C49094835F0E9FADBE7054BA9220949064835F0E2FAD6
S325080859A0DAE70446BDE700BF4969080870080C08AC080C08D0080C08F8080C0810090C0820
S325080859C034090C0838B5A0B105460A2005F05AFE044680B1056029F089F9E06021460748EF
S325080859E0FFF756FF054621460A2005F06DFE284638BD0025FBE74FF0FF35F8E78D6C080845
S32508085A0038B550B10546FFF7DDFF044608B1204638BD284601F01CF8F9E70024F7E70000B2
S32508085A20F8B5C8B10D461646074699B10A2005F029FE044698B107602B68836086810146E0
S32508085A400848FFF725FF054621460A2005F03CFE2846F8BD044DE9E76FF00F05F8E74FF0E6
S32508085A60FF35F5E7A56D08083C8B0C0838B588B104460A2005F006FE054670B10460014659
S32508085A800748FFF705FF044629460A2005F01CFE204638BD6FF00F04FAE74FF0FF34F7E7B7
S32508085AA0E56D08082DE9F04700286CD00F46154698460646037803F0F003102B66D190F888
S32508085AC02C30C269002A50D103F0020308F00402134314BF4FF001094FF00009B9F1000F75
S32508085AE002D0089B002B54D0002D55D0002004463B1D53F83020A41850D20130A842F8D15B
S32508085B00002C50D0002C04DA089B002B4DD06FF000440A2005F0B6FD8246002848D006604B
S32508085B20876085810023036180F81C8044618361F369EBB90020CAF8200051461E48FFF749
S32508085B40A7FE054660B9089B1BB1DAF81830089A1360B9F1000F03D1DAF81830A3420AD121
S32508085B6051460A2005F0B0FD1AE04FF00109B5E729F0BCF8DFE7114B4FF486621049114801
S32508085B8035F0F0F9ECE76FF00F0509E06FF0050506E06FF0050503E0002501E06FF00505A8
S32508085BA02846BDE8F0870025FAE76FF00505F7E74FF0FF35F4E700BFF16E080870080C08F0
S32508085BC050090C08D0080C0800B585B002910392069A0092012202A9FFF764FF05B05DF8E1
S32508085BE004FB08B50321FFF75FFE08BD38B550B104460EF0F3FB94F90850002323720EF0D8
S32508085C00F9FB284638BD0025FBE7F0B583B0002941D004460E4600230B6000283ED0FFF7A6
S32508085C20E5FF05468DF8070010B1284603B0F0BD04F1140738460EF047FB90B394F82C300B
S32508085C4013F0010F30D113F0020F16D0694638460EF02FFBB0F1FF3F29D0636B1BB1002237
S32508085C600121204698470DF10701009800F03EFE70B9009BF3B13360D7E7226A694638466B
S32508085C800EF0F6FAB0F1FF3FE7D16FF00205CCE79DF90750C9E76FF00F05C6E76FF00F0520
S32508085CA0C3E76FF00E05C0E76FF00E05BDE76FF00605BAE76FF00E05B7E70000F0B583B002
S32508085CC000230193002976D0044617460E460B60002873D000F1100528460EF0F5FA00282E
S32508085CE02FD094F82C3003F0030307F00402134303D194F90830002B3AD001A928460EF077
S32508085D00D8FAB0F1FF3F24D0237803F0F003102B39D0019B002B46D0019B1B681D890EF063
S32508085D205DFBA36A5B1BA3620EF064FB636B1BB12A46012120469847019B3360002003B09D
S32508085D40F0BD2046FFF752FF002808BF6FF00A00F5E72046FFF74AFF0028F0D194F82C3029
S32508085D6013F0010F0CBF6FF006006FF00A00E6E7226A01A928460EF07BFAB0F1FF3FC3D10A
S32508085D806FF00200DBE70DF10301019800F0AEFD30B19DF9030010F10F0F08BF0020CEE75F
S32508085DA0019B1D89BBE7074B40F291220649074835F0D8F8B0E76FF00F00C0E76FF00F0005
S32508085DC0BDE700BF70080C0874090C08D0080C082DE9F04104460F46154610300EF074FA54
S32508085DE000285BD094F82C2094F92C30002B27DB15F0080F58D10A2005F044FC80460028BA
S32508085E004FD02A4639462046FFF758FF064668BB3E68002E52D03289237803F0F003102BCF
S32508085E2007D1C8F80040C8F8082041462448FFF72FFD41460A2005F047FCE6B1002612E0DF
S32508085E4002F07F0284F82C20636B1BB100220121204698476368D3B92046FFF7C7FE061E32
S32508085E6008BF6FF00D063046BDE8F08141460A2005F02AFCF7E715F0100FE5D094F82C30DC
S32508085E8063F07F0384F82C306FF00606EBE701212046FFF709FD6FF00E06E4E76FF00A06D1
S32508085EA0E1E74FF0FF36DEE72A4639462046FFF705FF06460028D6D13E68BEE70122ABE761
S32508085EC0B96E0808F0B583B0002938D004460D4600230B60002835D0037803F0F003102B78
S32508085EE026D100230193072005F0CCFB0646E0B1002201A92046FFF76BFF044640B9019FA9
S32508085F005FB1376077600023B381B3602E6013E03146072005F0D8FB0EE00C4B40F279327A
S32508085F200B490C4835F01EF8EBE74FF0FF3403E00022FFF7C3FE0446204603B0F0BD6FF0F9
S32508085F400F04F9E76FF00F04F6E700BF70080C08C00A0C08D0080C082DE9F04104461546E8
S32508085F6098460E46F1B124B36368B34205D02D4BEF222D492D4834F0F5FF0EF02FFAA76A07
S32508085F800EF038FA04F1100630460EF09DF920B12A893A44636A9A4215DD284605F0BCFEEC
S32508085FA0BDE8F0811F4BE6222149204834F0DAFFD9E71C4BE7221F491C4834F0D3FF284614
S32508085FC005F0AAFEECE7072005F05CFB0746F8B105604560B8F1000F1ED0D8F80030BB6007
S32508085FE0BDF81830BB812D89394630460EF030F9A0B90EF0F3F9A36A2B44A3620EF0FAF9CB
S32508086000636B002BCCD02A46002120469847C7E7284605F081FEC3E70023E0E7384601F06C
S325080860202FF8BDE780090C08000A0C08D0080C08BC090C08E0090C0810B5014644682046E4
S3250808604006F03EFC0849204606F042FC0749204606F058FC02220649204606F093FC054963
S32508086060204606F069FC10BDF96708088567080809670808796008082DE9F0410D460446C3
S3250808608068B30EF0ABF900226260257294F82C3043F0010384F82C30667862700EF0AAF96A
S325080860A0636B7BB10022042120469847636B4BB10022114620469847636B1BB100220221DD
S325080860C02046984715F10E0F1AD015F10D0F1AD015F10F0F48D055B94FF0000815E0384B43
S325080860E040F2BB123749384834F03CFFC9E7344B7D223649344834F035FF4FF0000804E0E0
S32508086100DFF8D88001E0DFF8D88004F1100738460EF0DAF858BB04F1140738460EF0D4F865
S3250808612050BBF31EDBB2012B01D9012E3DD194F82C3023F0040284F82C2013F0040F11D19C
S32508086140236BF3B1042E24D0236B1D71236B1D680C3528460EF0FEF8F8B10023236328463F
S325080861600EF0EEF8BDE8F081DFF87880CDE7414638460EF06DF8CEE7414638460EF068F80C
S32508086180CFE70F4B40F2E91211490F4834F0EAFED8E7236B00221A71D8E7094B4FF4F97234
S325080861A00C49094834F0DEFED7E7236B002BD9D0034B4FF4FD720849034834F0D3FED1E7BA
S325080861C080090C08200A0C08D0080C08300A0C08400A0C085C0A0C08780A0C0819890C0870
S325080861E01A890C0818890C082DE9F04F83B00D46044618B36378012B28D1236B002B2DD077
S325080862006368002B32D0236B9A695B699A4235D2236B9B89002B39D0236B93F81C8094F811
S325080862202CA00AF0020A08F004034AEA030AE369002B33D1DFF848B2019573E0904B40F2F4
S3250808624077629049904834F08DFED3E78C4B4FF4CF628E498C4834F085FECEE7884B40F2DE
S3250808626079628B49884834F07DFEC9E7844B40F27A628849844834F075FEC4E7804B40F281
S325080862807B628549804834F06DFEC1E77C4B40F27D6282497C4834F065FEBDE728F026FD71
S325080862A0236B1A6A801AE2699042C3DB9B69002B0CBF6FF006060026A7E0B7B241E048F08D
S325080862C002081546134498426BD3B6B2964273D000270FE03D463B44984263D34FF6FF7372
S325080862E09F4267D1B6F5803F64D34FF6FF7248F00208012743464946606809F0A3F90646ED
S3250808630000287DD1226B93692B449361226B13692B441361236B9A6819695268914251D059
S32508086320002F5DD0216B8A680B69106800EB03095068C61AB6F5803FBFD348F002084FF66F
S32508086340FF776268B2F864209742C3D9BAF1000FB5D0002AB5D1019D8B69002B0CBF6FF06E
S3250808636006060026236B9A695B699A425ED3636B1BB10022032120469847002E63D1236B5E
S325080863809F69D3F81480606809F04AFF10F1040F6DD0BAF1000F38D1474536D04FF0FF365C
S325080863A03BE017465B4640F2A7623D49364834F0D9FD93E73A4688E7236B9B89012B96D8C0
S325080863C0002797E79A89013A9A81236B9A89002AA6D09A6808329A60236B00221A619FE751
S325080863E0019DBAF1000F1CD16368B3F8641042F6A0529142BBD9B3F866301F2BBDD9B6E709
S32508086400019D431CDBB2012BEBD9236B18681E7100232363637075BB0026304603B0BDE8AF
S32508086420F08F236B9A695B699A42DDD2636B1BB1002203212046984794F82C3043F0100394
S3250808644084F82C3099E7B6F1FF3FDED1606809F0E7FE10F1040F0CD0BAF1000FDDD0236BAF
S325080864609B69002B14BF00266FF00606CDE70646CBE70646C9E70C300DF062FF0026CCE752
S3250808648080090C08200A0C08D0080C08940A0C08400A0C08B40A0C08CC0A0C080C0B0C0828
S325080864A0340B0C082DE9F84F88460446002868D0237803F0F003102B6BD16378042B70D15B
S325080864C06368002B75D0236B002B7AD06668236B1B7A03F0010703F00209032B10D037B188
S325080864E0327D531FDBB2012B0AD9082A08D0B9F1000F00F0ED80738B13F0100F00F0E88031
S325080865000021304606F0DCF996F814A0BAF1010F00F0D2804FF0010A002F5AD1B9F1000F67
